:020000040800F2
:10000000383C0020050100081B2500085F2300087C
:10001000192500085B0A00089D290008000000005F
:10002000000000000000000000000000452500085E
:100030005D0A0008000000001D2500084725000893
:100040001F0100081F0100081F0100081F01000810
:100050001F0100081F0100081F0100081F01000800
:100060001F0100081F0100081F0100081F010008F0
:100070001F0100081F0100081F0100081F010008E0
:100080001F0100081F0100081F0100081F010008D0
:10009000912900081F0100081F0100081F01000826
:1000A0001F0100081F0100081F0100081F010008B0
:1000B0001F0100081F0100081F0100081F010008A0
:1000C0001F0100081F0100081F0100081F01000890
:1000D0001F0100081F0100081F0100081F01000880
:1000E0001F0100081F0100081F010008DFF810D0E1
:1000F00000F032FC004800476D550008AFF3008067
:10010000383C00200648804706480047FEE7FEE7E7
:10011000FEE7FEE7FEE7FEE7FEE7FEE7FEE7FEE7B7
:10012000A9250008ED000008202A04DB203A00FA87
:1001300002F1002070479140C2F1200320FA03F33E
:10014000194390407047202A04DB203A21FA02F03C
:100150000021704721FA02F3D040C2F12002914001
:1001600008431946704740EA01039B0703D009E0A2
:1001700008C9121F08C0042AFAD203E011F8013B93
:1001800000F8013B521EF9D27047D2B201E000F8EC
:10019000012B491EFBD270470022F6E710B513462B
:1001A0000A4604461946FFF7F0FF204610BD421CE0
:1001B00010F8011B0029FBD1801A704710B50022EE
:1001C00000E0521C835C8C5CA34201D1002BF8D16F
:1001D000D8B2E1B2401A10BD30B504460020034643
:1001E00000E05B1C934203D2E05CCD5C401BF8D086
:1001F00030BD30B505460020034600E05B1C93424D
:1002000005D2EC5CC85C201A01D1002CF6D130BDBF
:10021000F0B480EA0102D40F4200B2EB410F02D2E7
:100220000246084611464A0042D0C30DDDB2C1F372
:10023000C752AD1A202D35DAC1F3160141F4000280
:1002400004B15242C5F1200602FA06F12A411044D7
:10025000B3EBD05F23D0C4B1012DA0EBC35009DCB8
:10026000F0BC4FF0004202EAC352DBB200F50000DE
:1002700000F08CB9400000F1807000EBC350A0F199
:10028000807040EAD170490009E0490841EAC07134
:10029000A0EBC35000F50000400800EBC350F0BCD9
:1002A00000F06BB96142012202EB4101001BF6E74D
:1002B000F0BC704781F00041AAE780F00040A7E75A
:1002C00080EA010210B502F00043400022D04A004B
:1002D0001FD0010E01EB1261C0F35600C2F35602AB
:1002E00040F4000042F40002A0FB022000047F3929
:1002F000140400D0401C50EA124001D44000491EB2
:10030000C2B20C0604EBD010401C4008802A02D078
:1003100003E0002010BD20F00100002900DA0020D9
:10032000184310BD30B480EA010202F0004530F0FD
:10033000004221F0004013D090B1C30DD40DC2F3A0
:100340001601C0F31600E41A41F4000140F4000263
:100350007D34914201D3641C00E04900002C02DA94
:1003600030BC002070474FF400000023914201D3BD
:10037000891A034340084FEA4101F7D151B1914234
:1003800002D14FF0004105E002D24FF0010101E03F
:100390006FF0010103EBC450284430BC00F0EDB80D
:1003A000420005D0C0F3C7525242914201DC002006
:1003B000704700EBC1507047C10F80EAE0700844FD
:1003C000CA079623002100F0E1B8962300221146C7
:1003D00000F0DCB8F0B4CA17CB0F50405140C6183B
:1003E00041F100054FEAC372314628004FF09603F1
:1003F00003D0B623F0BC00F0C9B830460021F9E7BD
:1004000000F0004220F00040C10DC0F3160040F49F
:1004100000007F2901DA00207047962903DCC1F132
:100420009601C84001E096398840002AF4D0404245
:10043000704720F00040C10DC0F3160040F40000EA
:100440007F2901DA00207047962903DCC1F196016B
:10045000C840704796398840704710B500F0004496
:1004600020F00040C20DC0F3160040F400007F2AC7
:1004700002DA0020014610BD0021962A03DCC2F1F9
:100480009602D04002E0963AFFF74EFE002CF2D0E2
:100490000023D0EB030063EB010110BD00F000422C
:1004A00030F000400AD0C10D01F56071C0F31600B4
:1004B00042EA0151C208400711437047002001463B
:1004C00070470000002801DBC0F10040002901DB7B
:1004D000C1F1004181427047002801DBC0F10040BA
:1004E000002901DBC1F100418842704730B50B465D
:1004F000014600202022012409E021FA02F59D4254
:1005000005D303FA02F5491B04FA02F52844151E27
:10051000A2F10102F1DC30BD2DE9F05F05460020BB
:1005200092469B4688460646814640241BE0284664
:10053000414647462246FFF706FE53465A46C01A32
:10054000914110D3114618462246FFF7EDFD2D1AB2
:1005500067EB01084F46224601200021FFF7E4FD2A
:1005600017EB00094E41201EA4F10104DFDC4846D0
:1005700031462A464346BDE8F09F0029A8BF704790
:10058000401C490008BF20F00100704710B4B0FAC9
:1005900080FC00FA0CF050EA010404BF10BC704764
:1005A00049B1CCF1200421FA04F411FA0CF118BF7E
:1005B000012121430843A3EB0C01CB1D4FEA00614D
:1005C0004FEA102042BF002010BC704700EBC35020
:1005D00010440029A4BF10BC7047401C490008BF4C
:1005E00020F0010010BC70472DE9FE4F804681EAE3
:1005F0000300C00F0C46009021F0004123F000459D
:10060000B8EB0200A94105D24046214690461C465F
:100610000B46024623F00040104347D0270DC7F396
:100620000A00C3F30A510290401A019040286BDA85
:10063000C3F3130040F4801B0098924620B10023BE
:10064000D2EB030A63EB0B0B01985946C0F1400251
:100650005046FFF769FD06460D4650465946019A39
:1006600000F08CF910EB08006141002487EA115278
:1006700084EAE7731A4340D0009A62B3019A012AD0
:100680004FEA075215DC001B61EB02014FF00042FC
:1006900002EA0752CDE90042001C41F580113246C2
:1006A0002B4600F08CF903B0BDE8F08F40462146A0
:1006B000F9E7001B61EB0201001C41F580130018F3
:1006C0005B412018A2F5001747EB030140EAD57003
:1006D000B6196D4111E06D084FEA360645EAC0755E
:1006E0004FEA0752001B61EB0201001C41F580112B
:1006F00049084FEA30000019514132462B4603B0F9
:10070000BDE8F04F00F04CB90098012240000023F2
:10071000D0EB020263EBE073009821464FEAE074ED
:10072000B8EB000061EB0401E9E783F000435BE70D
:1007300081F0004158E72DE9FE4F81EA030404F0FF
:10074000004421F0004100944FF0000B23F00043DF
:1007500050EA01045ED052EA03045BD0C3F30A54AA
:10076000C1F30A552C44A4F2F3340194A0FB0254C3
:10077000C1F3130141F48011C3F3130343F4801355
:1007800001FB024400FB034E840A970A44EA8154A9
:1007900047EA8357A4FB076802958D0A05FB078586
:1007A0004FEA932C04FB0C542705029D4FEA065890
:1007B00047EA1637B5EB08056EEB070C870E920E6D
:1007C00047EA811742EA8312A7FB0201B6EB0B014D
:1007D00064EB00042B0D43EA0C335E1844EB1C5011
:1007E000DA465146E7FB0201C5F313044FEA0B3327
:1007F00043EA14534FEA0432019C43EA0603A4F18E
:100800000C040294009CCDE900B400F0D8F803B0C9
:10081000BDE8F08F00200146F9E72DE9F04D81EAAF
:10082000030404F0004B21F0004514464FF0000A89
:1008300023F0004150EA050220D054EA01021DD005
:10084000C5F30A570246C5F31303C1F31300C1F3FE
:100850000A5640F4801543F48013A7EB0608101BDA
:10086000D64608F2FD3873EB050002D308F1010803
:1008700001E092185B41B8F1000F03DA0020014655
:10088000BDE8F08D00204FF48011064684460EE04E
:10089000171B73EB050705D3121B63EB0503064318
:1008A0004CEA010C49084FEA300092185B4150EACB
:1008B0000107EDD152EA030012D082EA040083EA74
:1008C0000501084305D0101BAB4106D201220023CD
:1008D00006E000224FF0004302E06FF001025310E7
:1008E0001AEB06004CEB085110EB0A0041EB0B0130
:1008F000BDE8F04D00F054B8C1F30A52C1F3130142
:1009000040F2FF3341F480119A4202DA002001469E
:10091000704740F233439A42A2F2334202DC524221
:10092000FFF711BCFFF700BC30B5041E71F10004E5
:1009300004DB4FF00044404264EB0101141E73F1EC
:10094000000405DB1C464FF00043524263EB0403F6
:10095000994208BF904230BD064C074D06E0E06862
:1009600040F0010394E8070098471034AC42F6D3F6
:10097000FFF7C0FB80710008A0710008202A06DB89
:10098000CB17203A41FA02F043EAE07306E041FA5D
:1009900002F3D040C2F1200291400843194670474B
:1009A00010B5141E73F1000408DA401C41F1000177
:1009B00092185B411A4301D120F0010010BD2DE9CE
:1009C000F04D92469B4611B1B1FA81F202E0B0FAC5
:1009D00080F220329046FFF7A7FB04460F4640EA1C
:1009E0000A0041EA0B0153465A46084313D0114608
:1009F00053EA010019D0C8F140025046FFF7A3FBAB
:100A000005460E46504659464246FFF78DFB0843C1
:100A100005D0012004E020463946BDE8F08D0020D5
:100A2000054346EAE0762C4337430A986305E40A17
:100A3000A0EB08000022FD0A44EA47540A3002D520
:100A400000200146E9E7010510196941DDE9084583
:100A500000196941BDE8F04DA2E7FEE7704772B6A4
:100A6000FEE7000006490020C8610648016941F020
:100A700004010161016941F040010161704700001A
:100A8000182C002000200240064A0021D1610649AE
:100A90000A6942F002020A614861086940F04000B8
:100AA00008617047182C002000200240044B0022EF
:100AB000DA61044A136943F001031361018070474E
:100AC000182C00200020024000201449CA68D306D8
:100AD000134A04D5D06940F00200D0611020CB68E1
:100AE0005B0705D5D36943F00103D36140F00400EF
:100AF000CB69DB0707D0D36943F00403D361CA692C
:100B000022F00102CA61A0F58072013A01D0C860EA
:100B10007047C86920F00100C8617047002002409A
:100B2000182C002070B5044600F0FCFD0546114E5F
:100B300009E0601C07D024B100F0F4FD401BA04286
:100B400001D9032070BDF068C007F2D1F0688006BB
:100B500001D52020F060F068C00605D4F069C00718
:100B600002D1F068400703D5FFF7AEFF012070BD4A
:100B7000002070BD0020024090F82020012A07D0FC
:100B8000022A05D0416A41F4802141620120704768
:100B9000006842690A43426100207047F0B590F84E
:100BA00020500468A468012D07D0022D05D0416AA9
:100BB00041F4802141620120F0BD04F0806504F021
:100BC0000066354301D1E50053D5C4F30164012526
:100BD000A5401D608B684FF4C0759BB1CE6805EBD6
:100BE000041733434E6843EAC6030668F3514FF4D3
:100BF000C273076803EB04130E69FE50097D0129D7
:100C000009D00DE00E88CB6805EB041743EA465384
:100C10000668F351EBE70168CE5846F48076CE5073
:100C20001179D379567941EA036193791B0443EA38
:100C3000062319434FF4C676036806EB0416995150
:100C40001178D37841EA0361937852781B0443EA20
:100C5000022211434FF4C473026803EB0413D15012
:100C6000006805EB0411425842F001024250002096
:100C7000F0BD416A41F4001141620120F0BD10B5A0
:100C8000026890F82030012B07D0022B05D0416A72
:100C900041F480214162012010BDD2F8000240F0F1
:100CA0000100C2F80002087D00F01F0301209840F7
:100CB000D2F81C328343C2F81C32CB69B3B9D2F8E4
:100CC0000C328343C2F80C328C894B6864F31F43A7
:100CD0004C6902EBC404C4F840320C890B6864F31D
:100CE0001F434C6902EBC404C4F84432CB69012BA6
:100CF00016D1D2F80C320343C2F80C320C884B6880
:100D000064F31F434C6902EBC404C4F840320C89FD
:100D1000CB6864F31F434C6902EBC404C4F844324B
:100D20008B697BB1D2F804320343C2F804320B69F9
:100D300073B1D2F814320343C2F81432096A01299C
:100D40000CD010E0D2F804328343C2F80432EEE74C
:100D5000D2F814328343C2F81432EFE7D2F81C12EF
:100D60000143C2F81C12D2F8000220F00100C2F8C0
:100D70000002002010BD7047406A704770B590F8BF
:100D80002040012C07D0022C05D0416A41F480217B
:100D90004162012070BD21B104682469A4072AD0F2
:100DA00003E00468E468A4071FD04FF4D874056812
:100DB00004EB01142D5905F0040595600DB3056889
:100DC0002D59ED08556005682C5904F00204D460D3
:100DD0004FF4DA74056804EB01142E5906F00F067F
:100DE000082E13D30825156114E0416A41F400115F
:100DF0004162012070BD416A41F40011416201204D
:100E000070BD05682D596D0D1560DCE72D5905F095
:100E10000F05156105682D59C5F30725956105680E
:100E20002C59240C54614FF4DC72046802EB01125B
:100E3000A4581C700468A458240A5C700468A45860
:100E4000240C9C700468A258120EDA704FF4DE7203
:100E5000046802EB0112A4581C710468A458240A07
:100E60005C710468A458240C9C710468A258120E8A
:100E7000DA7131B10068016941F02001016100209F
:100E800070BD0068C16841F02001C160F7E702460B
:100E9000002092F82010012901D002290CD11168FC
:100EA0008A68520100D501208A68120100D5401CD1
:100EB0008968C90000D5401C70472DE9F05F0546E0
:100EC000002428684669D0F804908768D0F80CA000
:100ED000D0F810B0D0F81880F10748D0F90714D036
:100EE00001218160B80703D5284600F033FA0CE0F1
:100EF000780702D54FF4006407E0380702D54FF4B5
:100F0000805402E0284600F024FAF80516D5296836
:100F10004FF480708860B80503D5284600F01CFAAD
:100F20000CE0780502D544F4005407E0380502D5FA
:100F300044F4804402E0284600F00DFAF80316D588
:100F400029684FF480308860B80303D5284600F044
:100F500005FA0CE0780302D544F4004407E03803B6
:100F600002D544F4803402E0284600F0F6F9300758
:100F700007D55FEACA6004D544F4007429681020DC
:100F8000C86070074FF0080707D55FEA0A7004D5FC
:100F90002868C760284600F075F9B00706D52868AC
:100FA000C068800702D0284600F06EF9700607D5A9
:100FB0005FEACB6004D544F480642968102008619E
:100FC000B00607D55FEA0B7004D52868076128468C
:100FD00000F090F9F00606D528680069800702D075
:100FE000284600F088F9B00308D55FEAC96005D546
:100FF000296810204860284600F07EF9F00307D5E4
:101000005FEA097004D528684760284600F0A7F910
:10101000300446D55FEA497040D5F00504D55FEA53
:10102000C87001D044F00104B00504D55FEA8870AF
:1010300001D544F00204700504D55FEA487001D57B
:1010400044F00404300529D518F0700F26D008F0BC
:101050007000402815D006DC102809D020280AD0BE
:10106000302816D10AE050280ED0602811D10EE0A9
:1010700044F008040DE044F010040AE044F02004B9
:1010800007E044F0400404E044F0800401E044F44C
:1010900080742868816921F07001816129680420C9
:1010A0004860002C05D0686A204368622846FFF734
:1010B00062FEBDE8F09F70B50446002C03D094F8A2
:1010C000200010B104E0012070BD204600F09CF823
:1010D0002068016841F00101016000F023FB054632
:1010E00005260CE000F01EFB401B0A2807D9606AA9
:1010F00040F40030606284F82060012070BD2068F8
:101100004068C007EED02068016821F0020101604C
:1011100000F008FB05460CE000F004FB401B0A2829
:1011200007D9606A40F40030606284F820600120D2
:1011300070BD206840688007EED4207E01283FD033
:101140002068016821F080010160607E01283DD0A7
:101150002068016821F040010160A07E01283BD099
:101160002068016821F020010160E07E012839D06B
:101170002068016841F010010160207F012837D00C
:101180002068016821F008010160607F012835D0E6
:101190002068016821F004010160D4E902010843DC
:1011A000D4E90412114308436168491E08432168C9
:1011B000C86100206062012084F82000002070BD1A
:1011C0002068016841F080010160BEE72068016885
:1011D00041F040010160C0E72068016841F0200152
:1011E0000160C2E72068016821F010010160C4E7D6
:1011F0002068016841F008010160C6E720680168C5
:1012000041F004010160C8E710B586B000210291E9
:101210000391049105910068174988422AD1174823
:10122000C16941F00071C161C16901F000710191B2
:10123000816941F004018161806900F0040001903E
:101240004FF4006002900E4C02A9204600F062F9B3
:10125000A1140291022103910321059102A92046C4
:1012600000F058F900221146142000F0CBFA1420A7
:1012700000F0BAFA06B010BD006400400010024051
:10128000000801407047000000B58DB06B4602AA0F
:101290000021FFF773FD002825D104F0F5FF039826
:1012A00020F0604040F0004009900598022803D1EA
:1012B000099840F08040099006988DF83000694602
:1012C0000AA8069AFEF74FFF00F02CFA4FF47A7145
:1012D00000FB01F2002309A9054802F00BFE0028DB
:1012E00003DB04F0F5FF0DB000BD04F0E5FFFAE705
:1012F000F402002070477047704770B5044694F8B8
:101300002000012805D0606A40F4002060620120BE
:1013100070BD022084F820002068016821F00101DE
:10132000016000F0FFF905460DE000F0FBF9401BFD
:101330000A2808D9606A40F400306062052084F809
:101340002000012070BD20684068C007EDD16062B8
:1013500070BD70477047704770477047704770475F
:1013600010B506484FF0FF31016100220261C160F3
:10137000C26000F019FA002010BD00000010024009
:1013800070B5044600F0CEF90546601C02D0044852
:101390000078044400F0C6F9401BA042FAD370BDA7
:1013A000E80000202DE9F04705460F464FF0010AFE
:1013B000DFF8908098F8180001280DD0012088F8F7
:1013C00018002868204E4CF25039022807D04846B1
:1013D000FFF7A8FB98B12FE00220BDE8F087484650
:1013E000FFF7A0FBF8B90120FFF73CFB4846FFF7E9
:1013F00099FB8246306920F0040030611CE04FF018
:10140000FF303860AC6811E02046FFF73DFB4846EE
:10141000FFF788FB8246306920F0020030615FEA06
:101420000A0001D03C6007E004F58064D5E90201C0
:1014300000EB8120A042E7D8002088F81800504631
:10144000CBE70000182C002000200240034801696F
:1014500041F080010161002070470000002002403F
:101460002DE9F05F0746884615461E460024DFF842
:10147000749099F81800012809D0012089F8180003
:101480004CF2503B5846FFF74DFB18B126E00220C6
:10149000BDE8F09F012F05D0022F05D00427DFF80B
:1014A00048A019E00127FAE70227F8E722012846B9
:1014B0003146FEF748FE81B208EB4400FFF7F6FA2A
:1014C0005846FFF72FFBDAF8101021F00101CAF897
:1014D000101018B9641CE4B2BC42E7D3002189F8AB
:1014E0001810D5E7182C00200020024000200649E3
:1014F0000A69120607D5054A4A60054A4A60096921
:10150000090600D5012070470020024023016745ED
:10151000AB89EFCD2DE9F84F00240023DFF8C4910B
:101520004FF00F08A9F1040B09F1040AABF1040E06
:10153000D1E00127A7403A40BA4275D1DFF8A8C1EF
:101540004D68A5EB0C0665452BD00DDC032D34D082
:1015500005DC35B3012D19D0022D2FD11BE0112D43
:1015600016D0122D2AD119E0B6F5881F19D006DC45
:10157000B6F5803F15D0B6F5801F1FD111E0B6F546
:10158000001F0ED0B6F5041F18D10AE0CB6815E095
:10159000CB681B1D12E0CB6808330FE0CB680C331F
:1015A0000CE08B6823B1012B04D00823476105E0D0
:1015B000042303E00823076100E00023FF2A01D889
:1015C000054601E000F1040502D84FEA840603E075
:1015D000A4F108064FEA86062F6808FA06FC27EAF7
:1015E0000C0703FA06F647EA06072F604D68ED0080
:1015F00070D53E4DAE6946F00106AE61AD6905F0AD
:10160000010500953A4D24F003067719BE68A50739
:101610002D0F08FA05FC26EA0C06DFF8D8C0604555
:1016200003D14FF0000C17E054E0DFF8CCC0604568
:1016300002D14FF0010C0FE0DFF8C0C0604502D1CD
:101640004FF0020C08E0DFF8B8C0604502D14FF05F
:10165000030C01E04FF0040C0CFA05FC4CEA060CFC
:10166000C7F808C04D68ED0205D5D9F800501543FC
:10167000C9F8005004E0D9F800509543C9F800506B
:101680004D68AD0205D5DAF800501543CAF8005090
:1016900004E0DAF800509543CAF800504D68AD03F5
:1016A00005D5DBF800501543CBF8005004E0DBF81B
:1016B00000509543CBF800504D68ED0305D5DEF89A
:1016C00000501543CEF8005004E0DEF8005095437A
:1016D000CEF80050641C0A6832FA04F57FF429AF92
:1016E000BDE8F88F0804014000001110001002400E
:1016F0000000014000080140000C014000100140C2
:1017000000140140C26821EA02030A4043EA024190
:1017100001617047002A01D001617047090401612D
:10172000704700000148806870470000E800002012
:10173000024881680278114481607047E800002007
:1017400010B50748016841F010010160032000F066
:1017500079F80F2000F006F800F028F8002010BDFE
:101760000020024070B504460D4D4FF47A71287880
:10177000B1FBF0F00B490968B1FBF0F000F02CFB75
:1017800008B1012070BD102C07D200222146501E46
:1017900000F038F86C60002070BD012070BD0000C2
:1017A000E8000020F40000207047000008B50C4855
:1017B000816941F001018161816901F001010091BC
:1017C000C16941F08051C161C06900F08050009052
:1017D0000449486820F0E06040F08060486008BD3F
:1017E0000010024000000140002809DB00F01F0249
:1017F000012191404009800000F1E020C0F8001173
:1018000070470000F0B40D460D4B1B68C3F3022374
:10181000C3F10704042C00D90424191D072901D29F
:10182000002300E0DB1E012606FA04F1491E2940D0
:1018300099409E40761E16403143F0BC01F0C0B87E
:101840000CED00E000F00701054A10684FF6FF03B9
:10185000184040EA01200349084310607047000027
:101860000CED00E00000FA052DE9F04704460D46B6
:10187000002C17D0DFF83081D8F8000000F0070006
:10188000A84211D2D8F8000020F007002843C8F879
:101890000000D8F8000000F00700A84204D00120A2
:1018A000BDE8F0870120FBE72068404E810712D594
:1018B000400703D5706840F4E0607060207800074E
:1018C00003D5706840F4605070607068A16820F0C3
:1018D000F000084370602078C0072CD060680128B1
:1018E00006D0022809D0316889070BD40120D7E738
:1018F0003168890306D40120D2E73168890101D417
:101900000120CDE7716821F0030101437160FFF709
:1019100009FF074641F2883906E0FFF703FFC01BC5
:10192000484501D90320BBE77068616800F00C00EE
:10193000B0EB810FF1D1D8F8000000F00700A84209
:101940000ED9D8F8000020F007002843C8F800009E
:10195000D8F8000000F00700A84201D001209FE75E
:101960002078400705D57068E16820F4E0600843FE
:1019700070602078000706D57068216920F46050F7
:1019800040EAC100706000F03FF87168084AC1F396
:101990000311515CC8400749086007480068FFF719
:1019A000E1FE00207CE70000002002400010024021
:1019B0004E700008F4000020EC0000200148006890
:1019C00070470000F400002000B5FFF7F7FF04495E
:1019D0004968044AC1F30221515CC84000BD0000BF
:1019E000001002405E70000800B5FFF7E7FF0449F1
:1019F0004968044AC1F3C221515CC84000BD0000DF
:101A0000001002405E7000080E4B59680E4801F04D
:101A10000C02042A11D0082A0FD10C48C1F38342CA
:101A2000805CC9030AD55968084AC1F34041921E37
:101A3000515C054A5043B0FBF1F0704704494843FC
:101A4000704700000010024000127A003E7000084B
:101A500000093D002DE9F84F0446002C0ED02078F7
:101A6000D94DC0075ED06868C0F3810001280BD053
:101A70006868C0F38100022803D00CE00120BDE8B3
:101A8000F88F6868C00306D5286880034AD5606867
:101A9000A8BB0120F3E76068B0F5803F11D0A8B182
:101AA000B0F5A02F1BD0286820F48030286028686B
:101AB00020F480202860606830B3FFF733FE0646CC
:101AC0001EE0286840F480302860F4E7286820F49D
:101AD00080302860286820F480202860EBE72868A0
:101AE00040F480202860286840F480302860E2E7D5
:101AF000FFF718FE801B642802D90320BFE711E01E
:101B000028688003F4D50DE0FFF70CFE064606E0DA
:101B1000FFF708FE801B642801D90320AFE728687F
:101B20008003F5D42078DFF8A48280074FF0010A03
:101B30004FF0000945D5686810F00C0F07D06868B1
:101B4000C0F38100022812D16868C0030FD428684E
:101B5000800704D52069012801D001208FE728687B
:101B6000616920F0F80040EAC100286029E020699E
:101B7000B8B1C8F800A0FFF7D5FD064606E0FFF7AC
:101B8000D1FD801B022801D9032078E7286880074F
:101B9000F5D52868616920F0F80040EAC1002860A6
:101BA0000FE0C8F80090FFF7BDFD064606E0FFF71E
:101BB000B9FD801B022801D9032060E7286880074F
:101BC000F5D42078000726D58148A16999B1C0F8DD
:101BD00000A0FFF7A7FD064606E0FFF7A3FD801B68
:101BE000022801D903204AE7686A8007F5D5012059
:101BF00000F096FC0FE0C0F80090FFF793FD06465A
:101C000006E0FFF78FFD801B022801D9032036E78D
:101C1000686A8007F5D42078400773D50026E86904
:101C2000C00008D4E86940F08050E861E86900F03D
:101C3000805000900126DFF89CB1DBF80000C00561
:101C400014D4DBF8000040F48070CBF80000FFF7FC
:101C500069FD074606E0FFF765FDC01B642801D952
:101C600003200CE7DBF80000C005F4D5E06801288C
:101C700012D0B0B105281DD0286A20F001002862DA
:101C8000286A20F004002862E06841F2883B28B30B
:101C9000FFF748FD07461DE0286A40F00100286272
:101CA000F2E7286A20F001002862286A20F0040088
:101CB0002862E9E7286A40F004002862286A40F0B8
:101CC00001002862E0E7FFF72DFDC01B584501D950
:101CD0000320D4E6286A8007F5D50DE0FFF722FD42
:101CE000074606E0FFF71EFDC01B584501D903203B
:101CF000C5E6286A8007F5D4012E03D1E86920F0F3
:101D00008050E861E069A0B36968C1F381010229EC
:101D100046D0022805D0C8F86090FFF703FD0446BE
:101D20003AE0C8F86090FFF7FDFC064606E0FFF7D2
:101D3000F9FC801B022801D90320A0E62868800155
:101D4000F5D4206AB0F5803F05D16868A16820F419
:101D5000003008436860D4E908010843696821F449
:101D6000741108436860C8F860A0FFF7DBFC044604
:101D700007E026E0FFF7D6FC001B022801D903206C
:101D80007DE628688001F5D51BE0FFF7CBFC001B42
:101D9000022801D9032072E628688001F5D410E0FA
:101DA00001280CD06868226A00F48031914204D185
:101DB000616A00F47010884203D001205FE60120C0
:101DC0005DE600205BE60000001002400000424299
:101DD000800442420070004010B5401EB0F1807F88
:101DE00001D3012010BD4FF0E02460610F21601786
:101DF00000F0E6FD0020A06107202061002010BD5A
:101E000070B590F83C20012A25D0012680F83C606E
:101E1000022280F83D2002685468936824F070051F
:101E20000C682C4354600D4C0268A24208D0B2F1F9
:101E3000804F05D00A4CA24202D00A4CA24204D1E3
:101E400023F080034968194391603C3046700021BB
:101E50000170002070BD022070BD0000002C014008
:101E6000000400400008004010B50446002C03D0D8
:101E700094F83D0010B107E0012010BD002084F867
:101E80003C00204600F016F8022084F83D00211D99
:101E9000206800F08BFB01203D3460726070A07000
:101EA000E07020716071A071E071207220700020DC
:101EB00010BD000008B50068B0F1804F08D105489A
:101EC000C16941F00101C161C06900F001000090E9
:101ED00008BD00000010024070B50446002594F8CB
:101EE0003C00012817D0012684F83C60022084F8C9
:101EF0003D002068826822F0770222F47F428260EF
:101F00000868502838D00DDC202853D005DC90B369
:101F1000102811D14EE0022070BD30284AD0402850
:101F20000AD13DE0602831D070280CD0B0F5805F38
:101F300003D0B0F5005F12D001253C34667000205C
:101F40002070284670BDCB68D1E90121206800F0DF
:101F500076FB2068816841F077018160EDE7CB680E
:101F6000D1E90121206800F06AFB2068816841F412
:101F700080418160E1E71DE0CA684968206800F09F
:101F800027FC5021206800F064FBD6E7CA68496846
:101F9000206800F02EFC6021206800F05AFBCCE79E
:101FA000CA684968206800F013FC4021206800F0EE
:101FB00050FBC2E722680146104600F04AFBBCE72E
:101FC00000B585B000210191029103910491006850
:101FD000B0F1804F11D10A48816941F0040181615B
:101FE000806900F0040000900F2001900220029010
:101FF000049001A90348FFF78DFA05B000BD000069
:10200000001002400008014070B504460D4600264D
:1020100094F83C0001280FD0012084F83C006AB1FC
:10202000042A1FD0082A32D00C2A44D001260020CE
:1020300084F83C00304670BD022070BD29462068FF
:1020400000F010FB2068816941F00801816120687F
:10205000816921F004018161206881692A69114345
:102060008161E4E72946206800F02CFB2068816943
:1020700041F4006181612068816921F4806181619E
:10208000206881692A6941EA02218161CFE72946F6
:10209000206800F049FB2068C16941F00801C16176
:1020A0002068C16921F00401C1612068C1692A6901
:1020B0001143C161BBE72946206800F065FB206839
:1020C000C16941F40061C1612068C16921F4806186
:1020D000C1612068C1692A6941EA0221C161A6E79C
:1020E00010B50446002C03D094F83D0010B107E071
:1020F000012010BD002084F83C00204600F015F8B7
:10210000022084F83D00211D206800F04FFA0120D4
:102110003D3460726070A070E07020716071A071D9
:10212000E07120722070002010BD704710B5044689
:10213000002909D004290AD008290BD094F84100BD
:1021400001280AD0012010BD94F83E00F8E794F869
:102150003F00F5E794F84000F2E7022039B3042984
:1021600028D0082929D084F841000122206800F0F5
:1021700059FA16492068884203D1426C42F4004261
:1021800042642068884208D0B0F1804F05D01049E1
:10219000884202D00F49884212D1816801F00701BC
:1021A000062911D0016841F0010101600CE084F8BA
:1021B0003E00DAE784F83F00D7E784F84000D4E730
:1021C000016841F001010160002010BD002C0140B8
:1021D000000400400008004070B50446002C04D004
:1021E00094F84100002510B106E0012070BD84F88C
:1021F0004050204600F024F8242084F84100206854
:10220000C16821F40051C160204600F02BFB20681A
:10221000016921F4904101612068416921F02A019E
:1022200041612068C16841F40051C16065642020AB
:1022300084F8410084F842006563002070BD00000E
:1022400030B585B00024019402940394049400688E
:102250001449884224D11448816941F48041816144
:10226000816901F480410091816941F0040181613B
:10227000806900F0040000904FF40070019002208B
:10228000029003200490094D01A92846FFF742F966
:10229000291501910294039401A92846FFF73AF900
:1022A00005B030BD00380140001002400008014078
:1022B0002DE9F84304460E4615461F4694F84100A2
:1022C000202802D00220BDE8F8837EB175B100203D
:1022D0006064212084F84100FFF724FA8146A58438
:1022E000E584A068B0F5805F02D003E00120EAE752
:1022F000206920B1354600264FF0200815E0002562
:10230000FAE74B46002280212046009700F006FBAA
:1023100018B184F841800320D5E7ADB1216815F8E4
:10232000010B4860E08C401EE084E08C0028E8D17E
:102330004B46002240212046009700F0EFFA50B1B2
:1023400084F841800320BEE736F8020B2168C0F311
:1023500008004860E6E784F841800020B3E7FEE724
:1023600010B50F480D4901600221416000218160D4
:10237000C1604FF420220261D20042610176012245
:1023800042768176C27601774177FEF794FE002887
:1023900003D0BDE81040FEF762BB10BD00640040F2
:1023A0004413002070B586B0002402940394049472
:1023B00005941648816941F010018161816901F03D
:1023C00010010191816941F020018161816901F071
:1023D00020010191816941F004018161806900F06F
:1023E000040001900A4E4FF4005500222946304661
:1023F000FFF790F9029501210391049402210591C0
:1024000002A93046FFF786F806B070BD0010024002
:102410000010014010B58EB000240A940B940C9467
:102420000D94089409941C2101A8FDF7B5FE2B48D2
:102430004FF08041016047214160846040F2CF71DC
:10244000C16004618461FFF70FFD08B1FEF707FB6F
:102450004FF480500A900AA92048FFF73DFD08B1CB
:10246000FEF7FDFA1D48FFF73BFE08B1FEF7F7FA4D
:102470000894099408A91948FFF7C2FC08B1FEF7AF
:10248000EEFA6020019040F2E73002900394059448
:10249000002201A91148FFF7B7FD08B1FEF7DFFAE6
:1024A000042201A90D48FFF7AFFD08B1FEF7D7FAE6
:1024B000082201A90948FFF7A7FD08B1FEF7CFFAE6
:1024C0000C2201A90548FFF79FFD08B1FEF7C7FAE6
:1024D0000248FFF775FD0EB010BD00006C13002020
:1024E00010B50C480A4901604FF4E1314160002108
:1024F0008160C16001610C2242618161C161FFF7AD
:102500006BFE002803D0BDE81040FEF7A8BA10BD4E
:1025100000380140B4130020FEE7FEE770470000DA
:1025200008B507494FF4FA520968B1FBF2F141438B
:10253000009100BF0098411E0091FAD208BD000032
:10254000F40000207047FFF7F3B830B58FB02821B2
:1025500005A8FDF721FE14216846FDF71DFE0121A7
:1025600005910804069000240794099102250C9512
:102570000D904FF4E0100E9005A8FFF76BFA08B12C
:10258000FEF76DFA0F200090019502944FF48060E1
:102590000390049402216846FFF766F9002801D0F1
:1025A000FEF75DFA0FB030BD70470000F0B502686D
:1025B000194C1A4D1A4E4FF08047A04205D0B84230
:1025C00003D0A84201D0B04203D122F070034A6880
:1025D0001A43A04205D0B84203D0A84201D0B0426D
:1025E00003D122F44073CA681A434B6922F0800277
:1025F0001A4302608A68C2620A688262A04201D1FC
:1026000009690163012141610169C90703D00169B9
:1026100021F001010161F0BD002C014000040040E7
:102620000008004010B501F01F0101238B40046A2F
:102630009C430462036A8A401343036210BD10B5D1
:10264000846824F47F4442EA03220A4322438260DE
:1026500010BD826822F070020A4342F007018160D7
:102660007047000030B5026A036A23F00103036279
:102670004368846924F0700424F003050C682C433B
:1026800022F002058A682A430D4DA84206D122F0A5
:102690000802CD6845EA020525F0040209D123F4B9
:1026A000807323F400734D6945EA03058B6943EA9F
:1026B00005034360846149684163026230BD0000E4
:1026C000002C014030B5036A026A22F01002026257
:1026D0004268846924F4E04424F440740D6844EAB8
:1026E000052423F020038D6843EA05130D4DA8420D
:1026F00006D123F08003CD6843EA051323F040039D
:1027000009D122F4806222F400624D6942EA850216
:102710008D6942EA8502426084614968816303628F
:1027200030BD0000002C014030B5026A036A23F47A
:10273000807303624368C46924F0700424F00305C5
:102740000C682C4322F400728D6842EA05220D4D7C
:10275000A84206D122F40062CD6842EA052222F4A2
:10276000806209D123F4805323F400534D6943EA76
:1027700005138D6943EA05134360C4614968C16369
:10278000026230BD002C014030B5036A026A22F4B7
:10279000805202624268C46924F4E04424F4407424
:1027A0000D6844EA052423F400538D6843EA053399
:1027B000064DA84204D122F480424D6942EA8512B6
:1027C0004260C46149680164036230BD002C01406D
:1027D00010B5036A046A24F001040462846924F0D9
:1027E000F00444EA021423F00A020A4384610262FC
:1027F00010BD10B5036A046A24F0100404628469F1
:1028000024F4704444EA023223F0A00343EA0111A5
:102810008261016210BD01680C3151E8002F22F481
:10282000907241E80023002BF5D10168143151E882
:10283000002F22F0010241E80023002BF5D1016BAB
:10284000012909D101680C3151E8002F22F0100252
:1028500041E80023002BF5D1202180F8421000210F
:102860000163704770B5044620680169E26821F48D
:10287000405111430161A16820690143606901432E
:102880002068C26841F20C639A430A43C260206820
:102890004169A26921F44071114341611E492068D8
:1028A000884202D1FFF7A0F801E0FFF78DF800EBB6
:1028B000C00101EB0010616864228900B0FBF1F3F4
:1028C000B3FBF2F36FF018067343B0FBF1F5B0FB06
:1028D000F1F605EB8305322303EB0515B5FBF2F5A5
:1028E000B6FBF2F605F0F00505EB0615B0FBF1F6C8
:1028F000B0FBF1F0B0FBF2F06FF01801484306EBCB
:10290000800003EB0010B0FBF2F0216800F00F0034
:102910002844886070BD0000003801402DE9F8436C
:1029200004460D4617469846089E25E0701C23D0A5
:10293000FEF7F8FEA0EB0800B0421BD8D6B1206825
:10294000C168490718D5802D16D0402D14D00168D4
:10295000C943090710D40025216809684068009020
:102960002046FFF758FF0820606484F8405001209B
:10297000BDE8F8830320FBE72068006835EA000023
:1029800004D00020B842D1D00020F1E70120F9E7BF
:102990000148FEF792BA000044130020FEE7000051
:1029A0000FB4054B10B503A9044A029800F0EAF8E9
:1029B00010BC5DF814FB0000F1480008F80000208E
:1029C0000907090E002804DB00F1E02080F800145C
:1029D000704700F00F0000F1E02080F8141D7047F0
:1029E00002E008C8121F08C1002AFAD170477047D8
:1029F000002001E001C1121F002AFBD17047000036
:102A00002DE9FF5F82B00021DDE90430020DDDF821
:102A100040B0034318D044F61050A2F2FF324243B4
:102A20001514119801281FD0A5EB0B00401C5FEA7C
:102A3000000A4FF000064E4FDFF83891B04650467E
:102A400015D5CAF1000413E0119801244AA3012806
:102A500001D16FEA0B010298119AC0E90031C0E977
:102A6000024206B0BDE8F09FCBF10000DFE704466C
:102A70000021404A491842EB0450CDE9001012E011
:102A8000E00707D032463B4640464946FDF753FE35
:102A90008046894632463B4610461946FDF74BFEB6
:102AA00006460F466410002CEAD1DDE90401DDE999
:102AB0000023BAF1000F06DAFDF73DFE42464B4611
:102AC000FDF739FE05E0FDF7A8FE42464B46FDF74F
:102AD000A4FE04460E460022284BFDF725FF03D82E
:102AE0004FF0FF30014607E00022254B20463146DB
:102AF000FDF77AFDFDF700FF102409E0002C0ADB4A
:102B00000A220023FDF708FD039B30321A55641E8C
:102B100050EA0102F2D1641C039AC4F11103144477
:102B2000119A012A03D0012208430DD10AE008437B
:102B300004D000204FF0110B119072E7A3EB0B05AE
:102B40006D1E0DE05B4504DD4FF0000205F101054F
:102B500004E003DA4FF00002A5F10105002AECD0F1
:102B600002981199C0E90231C0E9004579E70000F7
:102B7000000014400000F03F300000000000F0436F
:102B80000000E03F2DE9FF4F95B09A468846064683
:102B90000025EEE1252877D100242746F94A0121B6
:102BA000039400E0044316F8013F203B01FA03F0D0
:102BB0001042F7D130782A2811D06FF02F033078E7
:102BC000A0F13002092A16D8039A44F0020402EB5D
:102BD000820203EB42021044761C0390EFE758F8A0
:102BE000042B0392002A03DA504244F40054039069
:102BF00044F00204761C30782E2816D116F8010F06
:102C000044F004042A280DD06FF02F023078A0F190
:102C10003003092B09D807EB870302EB4303C718DE
:102C2000761CF3E758F8047B761C30786C280FD0BC
:102C300006DC4C2817D068280DD06A2814D104E08F
:102C4000742810D07A280FD10DE044F400140AE063
:102C500044F4801401E044F440147278824202D1BA
:102C600004F58014761C761C307866280BD013DCB3
:102C7000582877D009DC002875D04528F6D046289A
:102C8000F4D047281AD193E118E0632835D064289E
:102C900079D0652812D18BE1702873D008DC6728C1
:102CA000F1D069286FD06E280DD06F2806D1ACE026
:102CB00073282CD0752874D0782853D05246179991
:102CC00090476D1C54E1C4F30250022809D0032838
:102CD0000DD0D8F8001004280DD00D6008F10408BC
:102CE00046E1D8F80010EA17C1E90052F6E7D8F833
:102CF00000100D80F2E70D70F0E718F8041B8DF856
:102D0000001000208DF80100EB46012003E058F888
:102D100004BB4FF0FF3061074FF0000102D40DE01B
:102D200009F101018946B9420FDA8145F8DB1BF848
:102D300009100029F4D108E009F101018946814216
:102D4000FADB1BF809100029F6D103985346A0EBD3
:102D5000090721463846179A00F080FA284400EB0C
:102D6000090507E044E008E10DE01BF8010B5246BD
:102D700017999047B9F10109F7D2534621463846D1
:102D8000179AF2E039E00A21C4F302524FF0000B27
:102D90000091022A06D058F8040BC117032A09D063
:102DA0000AE023E008F1070020F00702F2E8020140
:102DB000904605E000B2C117042A01D140B2C11704
:102DC000002906DA0A460021404261EB02012D2269
:102DD00002E0220504D52B228DF80420012203E015
:102DE000E20701D02022F7E7914657E00A2100E0F0
:102DF00010214FF0000B00910BE010214FF0000B61
:102E000044F004040827009103E008204FF0000B71
:102E10000090C4F30252022A05D058F8040B002196
:102E2000032A08D008E008F1070020F00702F2E8C2
:102E30000201904603E080B2042A00D1C0B24FF0F4
:102E4000000922072AD53278702A07D0DDF800C0A1
:102E50008CF0100C5CEA0B0C05D00EE040228DF8D3
:102E60000420012208E050EA010306D030238DF847
:102E700004308DF8052002229146009B83F0080360
:102E800053EA0B030AD150EA010201D1620705D5CA
:102E900030228DF804204FF001097F1E3278582A25
:102EA00004D039A20C920CAA02920BE03BA2F9E7E3
:102EB0005B46009AFDF730FB0C9B9B5C029A521E0E
:102EC0000292137050EA0102F2D1029804A9081A82
:102ED00000F1200B600702D524F4803400E00127C4
:102EE0005F4502DDA7EB0B0000E0002000EB0B01CB
:102EF000009003984944401A0390E00306D45346D7
:102F00002146179A039800F0A9F90544002706E026
:102F100001A85246C05D179990476D1C7F1C4F4514
:102F2000F6DBE0030CD553462146179A039800F0D0
:102F300095F9054404E030205246179990476D1CDE
:102F40000099481E00900029F5DC08E002980299DB
:102F500052460078491C0291179990476D1CBBF1AD
:102F60000001ABF1010BF1DC5BE100F065F9054418
:102F7000761C307800287FF40DAE19B02846BDE8E5
:102F8000F08F0000092801003031323334353637F4
:102F900038396162636465660000000030313233A5
:102FA0003435363738394142434445460000000045
:102FB000600700D4062708F1070020F00700F0E8BA
:102FC0000223804603F0004C5FEA0C0001D097A07A
:102FD00009E0200501D596A005E0E00701D095A005
:102FE00001E0AFF24C001390307823F000436528E5
:102FF0000CD006DC452809D046281DD047287FD1B3
:103000003BE0662818D067287AD136E00021112FDE
:1030100001DB112000E0781CCDE9000104A90CA817
:10302000FFF7EEFCDDE90D010C9A4FF0000B07F104
:103030000109109200914EE04FF000400097CDE959
:10304000011004A90CA8FFF7DBFCDDE90D020C9BC5
:103050000F994FF0000B91461093009211B9791C13
:1030600000EB0109B7EB090003D4C0F1FF3B07F106
:103070000109A9EB0700019042E0012F00DA0127C6
:103080000021112F01DD112000E03846CDE90001BB
:1030900004A90CA8FFF7B4FCDDE90D010C9A00911E
:1030A0004FF0000BB946109221070FD4009A4A4501
:1030B00003DA914601E0A9F10109B9F1010F05DD3B
:1030C000109AA9F10101515C3029F4D0B84202DA1A
:1030D00010F1040F03DA0121CDE9011010E00028FE
:1030E00003DC8344A9EB000102E0411C494500DDFB
:1030F0008946A0EB0B00401C01904FF0004002906D
:10310000200705D40198484502DB4FF0FF300190BD
:1031100000208DF84B0002980DF14B07B0F1004FE5
:1031200025D002200C902B200D90029800280CDA5C
:10313000404202902D200D9007E00A210298FDF7F1
:10314000D5F93031029007F8011D0C99481E0C90FA
:103150000029F2DC02980028EFD1791E0D98087042
:10316000307800F0200040F0450007F8020D11A86B
:10317000C01BC01D02901398007800B1012000EB25
:103180000901019801EBE071029801440398401A8B
:10319000401E0390E00306D453462146179A039835
:1031A00000F05CF805441398007818B1524617995E
:1031B00090476D1CE00323D553462146179A039888
:1031C00000F04CF805441BE0BBF1000F07DB009852
:1031D000584504DD1098179910F80B0001E0179975
:1031E00030205246904701980BF1010B401E05F12B
:1031F0000105019004D12E205246179990476D1C6D
:10320000B9F10001A9F10109DEDC05E017F8010BB5
:103210005246179990476D1C0299481E029000294A
:10322000F4DC53462146179A03989EE62D000000D1
:103230002B000000200000002DE9F041044600258D
:103240001E461746880404D405E039462020B047BE
:103250006D1C641EF9D52846BDE8F0812DE9F041CA
:10326000044600251E469046C80301D5302700E0DD
:103270002027880404D505E041463846B0476D1C38
:10328000641EF9D52846BDE8F0814268002A0BD0BB
:10329000116841604189491C89B2418183898B420F
:1032A00000D28181104670470020704770B500241D
:1032B000064E4FF4005529463046FEF723FA3220D9
:1032C000FEF75EF8641C062CF5DB70BD00100140B3
:1032D00030B58DB0294800F03BFA00242848CDE9EC
:1032E00000042949274B4FF48052A1F12C0001F032
:1032F00021F8264D6421297023482C3801F0BDF8AF
:10330000297823A0FFF74CFB2A48294901600221B4
:1033100041608460C4604FF420210161C9004161B3
:103320000476012545768476C57604774477FDF7E3
:10333000C2FE10B100200DB030BD089409940A956A
:10334000039404940594069407940B950E200C9016
:1033500003A91848FDF793FC08B10020EBE71548D6
:10336000FDF7CBFF08B10020E5E702211148FDF78A
:1033700003FC08B10020DEE70120DCE7F02B002091
:10338000B1610008D5590008F01B0020E0000020C2
:103390005B426F6F746C6F616465722043414E5D78
:1033A000204E6F6465204944203D2025750D0A009C
:1033B000006400404413002010B500F021F8FEF72F
:1033C000B1F90D4C6168401AB0F57A7F04D302F070
:1033D000E5FCFEF7A7F96060FEF7A4F94FF47A71F7
:1033E00000FB01F20023054800F00CFBBDE8104093
:1033F0000120FDF7C5BF0000E0000020C41B002035
:1034000010B588B0134800F0B8FF04461EE018223B
:10341000114902A8FCF7A7FE206820F06040039045
:10342000207B06900D48FDF732FD002810D001AB3F
:10343000221D02A90948FDF7B1FB002808D1054863
:1034400000F0A2FF034800F098FF0446002CDED1F4
:1034500008B010BDC41B00202470000844130020D5
:103460004FF000600168A1F10051B1F5A04F01D902
:10347000002070474068A0F10060B0F5FE3F01D920
:10348000002070470120704710B5FEF72FF800228A
:10349000134604490220FDF7E3FFBDE81040FDF7A5
:1034A000D5BF000000FB010810B5012000F074F941
:1034B00000F062F820B10FA0FFF772FA00F0A0F858
:1034C000FFF7CEFF60B114A0FFF76AFA00F082F8B0
:1034D0004FF4FA70FDF754FFBDE8104000F05AB801
:1034E00017A0FFF75DFA00F063F8BDE8104000F0A8
:1034F00087B800005B426F6F746C6F616465725DCA
:103500002055706461746520666C61672064657421
:1035100065637465640D0A005B426F6F746C6F6164
:103520006465725D205374617274696E67206170A6
:10353000706C69636174696F6E2E2E2E0D0A000027
:103540005B426F6F746C6F616465725D204E6F20BB
:1035500076616C6964206669726D776172652C2092
:1035600073746179696E6720696E20626F6F746C25
:103570006F616465720D0A0004480068044988425E
:1035800001D10120704700207047000000FB0108B6
:1035900007B007B010B54FF0006472B6FDF7E0FE5B
:1035A0002168606881F30888BDE81040004700008A
:1035B00070B50024064E4FF4005529463046FEF7FC
:1035C000A1F86420FDF7DCFE641C0A2CF5DB70BD5D
:1035D000001001402DE9F0410024084E4FF4005541
:1035E0004FF4967729463046FEF78CF83846FDF7BB
:1035F000C7FE641C062CF5DBBDE8F081001001401D
:1036000070B51EA0FFF7CCF9FFF762FE00281ED0B0
:103610002348FFF7C5F900244EF66025FFF7CCFEDE
:10362000AC421BD31FA0FFF7BBF9FFF719FFD0B1C6
:10363000FFF72AFFFFF7CEFF28A0FFF7B1F94FF4FD
:10364000FA70FDF79DFEBDE87040FFF7A3BFFFF7DE
:10365000AFFFBDE870402DA0FFF7A2B9641C0120A8
:10366000FDF78EFEDAE7FFF7A3FF30A0FFF798F92A
:103670004FF47A742046FDF783FEFBE70D0A3D3DCB
:103680003D2044726F6E6543414E204F54412042AD
:103690006F6F746C6F61646572203D3D3D0D0A0073
:1036A0003C7100085B426F6F746C6F616465725DA2
:1036B0002054696D656F75742C20636865636B6950
:1036C0006E6720666F722076616C6964206669722D
:1036D0006D776172652E2E2E0D0A00005B426F6FB2
:1036E000746C6F616465725D2056616C69642066FC
:1036F00069726D7761726520666F756E642C206AE1
:10370000756D70696E672E2E2E0D0A005B426F6F0D
:10371000746C6F616465725D2043414E20696E690F
:1037200074206661696C65640D0A00005B426F6F0E
:10373000746C6F616465725D204E6F2076616C6998
:1037400064206669726D77617265210D0A00000060
:10375000FEB505460F4800216C4650F8212004F8BC
:10376000212004EB8103160A5E70160C9E70120E67
:10377000DA70491CC9B20329EFD3A52210212846CB
:10378000FCF703FD00982860019868600298A86023
:10379000FEBD0000E8F7FF1F80F001024FF400516A
:1037A0000148FDF7B7BF0000001001402DE9FF5FA1
:1037B000884691461F460024D8F81400C0F30940FB
:1037C000052809D11AE008EB000219F80410D17697
:1037D000401C80B2641CA4B2052801D2BC42F2D3C2
:1037E000BC420BD3D8F8140007EB104161F3194029
:1037F000C8F81400012004B0BDE8F09FD8F8140008
:103800004FF01C0BC0F30940401FB0FBFBF10BFB5A
:10381000110AD8F8041029B10126009800F0EDF83B
:10382000054613E0009800F0A5FE054629460098DD
:1038300000F0E5F8C8F8040015B14FF0000A39E0CF
:103840006FF00200D7E7761CB6B20546286800285C
:10385000F9D1D8F81400C0F309403844401FB0FB38
:10386000FBF0401C80B2B04224D9BAF1000F21D144
:10387000009800F07FFE286008B105461AE06FF05E
:103880000200B8E7564607E0A91919F804000871C4
:10389000761CB6B2641CA4B21C2E01D2BC42F3D377
:1038A000BC4207D2009800F065FE286070B1054662
:1038B0004FF0000ABC42E5D3D8F8140007EB1041E2
:1038C00061F31940C8F81400012094E76FF002007A
:1038D00091E710B504464FF6FF70218C072909D9EE
:1038E000D4E9022300F02FFE228CE169BDE81040EC
:1038F00000F008BE10BD2DE9F04F8BB014AF0646A6
:1039000097E8800F14461D4628216846FCF744FCC2
:10391000CDE90245ADF81070CDF814808DF81890FF
:10392000CDF81CA0ADF820B06946304600F003F891
:103930000BB0BDE8F08F2DE9F04107460C466FF063
:103940000101E069002804D1208C10B10846BDE8CF
:10395000F081207E1F2801D90846F8E74FF6FF7650
:10396000384600F0C5FAD8B1384600F0C1FA217ED9
:10397000228A090641EA022140EA01052046FFF7B2
:10398000A8FF0646234632462946384600F0DBFEAD
:103990000546002D02DD606901F05CFD2846D6E792
:1039A000208A012805D0228C072A02D96FF0030053
:1039B000CDE7800801D00846C9E7228C3046E1698E
:1039C00000F0A0FD47F6FE710140384600F090FA85
:1039D0000546207E000640EA4121208A00F00302CD
:1039E00041EA02210D430128CCD1208C0728C9D9F6
:1039F0002046FFF76EFF0646C4E7084670470846B4
:103A0000704700002DE9F0470546174698462E6A94
:103A1000344605F10C0933E0D4E902013A1A68EBA7
:103A20000100194B00219A1A814123D2286AA04231
:103A300010D12146284602F035FA286A0168484626
:103A400000F017FD28622146484600F05DFF2C6A11
:103A5000264615E02146284602F024FA2068306008
:103A60002146484600F050FF4846316800F001FD0D
:103A7000044605E026464846216800F0FAFC044664
:103A8000002CC9D1BDE8F08780841E00FEB5054634
:103A90000B48C16802910469019468040009FCF7AD
:103AA0000FFC064600902146FCF716FD02D846F0B2
:103AB000FF400090009805F4004140EA0140FEBD3F
:103AC000F86F00082DE9FC5F06460C9D14469846E9
:103AD0006FF00100002E18D0002D16D0A4F1010ABD
:103AE000BAF1400F11D2012C02D1B8F1000F0CD164
:103AF0000020009001906B462246304600F084FD85
:103B00008146B9F1000F02DC4846BDE8FC9F600722
:103B100008D0684600EBD4006242017802F0070248
:103B2000D14001706FF0080B012C03D0082C03D892
:103B300001260CE001260AE0102C01D8022606E03E
:103B4000202C01D8042602E0402C1ED8082601F0C3
:103B50009DFC18B13146684602F0D2FBB8F1000F67
:103B600043D0B4EBC60F40D0601E012101FA00F033
:103B7000A140491EC943082C09D89DF800200242E3
:103B800033D00A438DF800202FE05846BDE7102CB3
:103B900007D8BDF80020024227D00A43ADF8002024
:103BA00023E0202C05D8009A02421ED00A4300923E
:103BB0001BE0402C22D2DDE90067524601200021A3
:103BC000FCF7B2FA304007EA010210430DD022465A
:103BD00001200021FCF7A8FA401E41F1FF32C14349
:103BE0000E4367EA0207CDE90067B8F1000F1AD06B
:103BF000082C05D89DF80000287030E0584684E76E
:103C0000102C03D8BDF80000288028E0202C02D812
:103C10000098286023E0402C03D8DDE9000103C5AB
:103C20001DE0584671E7012C05D0082C07D89DF8F7
:103C30000000287013E09DF8000028700FE0102CA1
:103C400003D8BDF80000288009E0202C02D8009895
:103C5000286004E0402C04D8DDE9000103C5484693
:103C600053E7584651E7007C7047000070B58EB0AE
:103C700004460E46207C00283BD107A80690B18A56
:103C800006AB0BAA304602F0E4FD002831DB9DF8BC
:103C90003030032B02D90D98C07800E00020022BB1
:103CA00002D90D99897800E00021012B02D90D9AE3
:103CB000527800E0002213B10D9D2D7800E0002520
:103CC000CDE90152CDE903109DF82D0000909DF83B
:103CD0002C20F17E1348FEF763FE9DF8302021462C
:103CE0000D98FCF779FA30B19DF830100EA0FEF770
:103CF00057FE0EB070BD9DF82C10481E7E280AD8C5
:103D000021749DF82D309DF8302011A0FEF748FE5B
:103D10000020A074EDE79DF83000102800D9102095
:103D2000A074E6E7687000085B44796E49445D2042
:103D3000554944206D69736D61746368202872650C
:103D40007370206C656E3D2575290D0A000000001A
:103D50005B44796E49445D20476F7420616C6C6FE1
:103D6000636174696F6E3A206E6F64655F69643D6C
:103D70002575206C656E3D25752066697273743DEE
:103D800025750D0A0000000070B504460D4613218C
:103D90002046FCF701FA102229462046FCF7E3F9F9
:103DA0000021A17470BD000070B58EB004460E46AF
:103DB000134600200B900C900D90A07C102800D989
:103DC0001020102802D300200EB070BDC0F11002E8
:103DD000062A00D90622D2B28DF82C30F0B1002587
:103DE0008DF82D508DF8302020440D90617C0CA072
:103DF000FEF7D6FD06A90BA802F088FD18221134A3
:103E0000CDE9014280B206A9CDE90310012000905E
:103E10000F4A104B3046FFF76EFDD5E70125DFE76F
:103E20005B44796E49445D20526571207469643D3C
:103E30002575207072656669785F6C656E3D2575C5
:103E4000207072656665723D25750D0A00000000E0
:103E5000401DA12026812A0B2DE9FF4107460E4671
:103E60001446402C00D9402404B9012400210291B9
:103E700003910025012C06D0082C0BD801251878B9
:103E80008DF8080019E00125187800B101208DF89F
:103E9000080012E0102C04D802251888ADF808009C
:103EA0000BE0202C03D804251868029005E0402C74
:103EB00003D8082503CBCDE9020101F0E7FA18B1D8
:103EC000294602A802F01CFA600708D002A800EBFD
:103ED000D4016242087802F00702904008703B4625
:103EE0002246002102A8009600F0D2FABDE8FF8128
:103EF000007870472DE9FF5F94B00D4616461F46C7
:103F0000286800F0D9FC8146B9F1020F18D0288842
:103F1000C0F306232868002814DA410012D4800078
:103F200010D4287B70B1B9F1020F0ED01498FFF7AE
:103F3000DFFF984209D06FF00A0018B0BDE8F09F8B
:103F40000023E7E76FF00900F7E72868C0F3046192
:103F5000119100F07F0A00F09EFC1090109840EA4A
:103F6000094040EA8A4040EA436B297BE81C11F88B
:103F7000008000210E910F915FEAD81014D0CDF887
:103F800000A014984B460EA94468109AA04740B16F
:103F90005946149802F0C1F9044620000BD1C01E06
:103FA000CBE76FF00B00C8E75946149800F090FC7F
:103FB0000446200010D0D4E9020150EA01021AD0D0
:103FC00000220D92321A67EB0100D74B00219A1A9A
:103FD000814112D2012011E0CDF800A014984B4687
:103FE0000EA94468109AA04710B16FF00C00A4E726
:103FF0006FF00B00A1E70122E3E700200C90687B43
:10400000A17E884201D1012000E000200B904FEA00
:10401000D81B08F01F0113916069C0F3846000F0A1
:1040200031FA012801DD012000E000200A90D4E9E6
:104030000201321A67EB0100BC4B00219A1A814140
:1040400001D2012000E0002009906069C0F3846182
:10405000139800F017FA102801DA012000E0002080
:10406000616801B10121DDE90C321A430BD10B9AD1
:104070000A9B02EA0B020B431A4204D1099901EA96
:104080000B01014201D0012000E0002078B113991A
:10409000606961F39E6020F00040606121461498E1
:1040A00001F000FF687BA0765FEAD81005D0687B3E
:1040B000A17E88420CD000203FE760694FF000618C
:1040C00001EBF0704FEA700060616FF00C0034E7B4
:1040D0005FEAD81027D05FEA486024D5C4E90267B8
:1040E00020216846FCF758F8CDE90067281D0290AA
:1040F000287B401EC0B2ADF814001098ADF8160031
:104100008DF8189013988DF8190011988DF81A00F1
:104110008DF81BA01498694682689047204601F0EC
:1041200091FC002009E76069C8F34011B1EBD07F32
:1041300002D06FF00D0000E71399C0F38462914242
:1041400002D06FF00E00F8E614995FEAD81201F180
:104150000C01129137D05FEA486134D4297B0329DE
:1041600002D86FF00F00E8E6C4E902677049084022
:104170006061287BAA1DC01EC3B221461298FFF7BA
:1041800015FB002809DA2146149801F08BFE204621
:1041900001F058FC6FF00200CFE62879697940EA17
:1041A00001202083DDE90E234FF6FF7000F0CBF9EC
:1041B000A082287BA91DC01EC2B2A08A80B200F0D6
:1041C000A1F9A0822DE008F0400050EAD8100BD0F1
:1041D000287B401E00F0FF0B4FF000086069C0F321
:1041E0000940052830D334E0287B2A1D401EC3B285
:1041F00021461298FFF7DAFA002809DA21461498C6
:1042000001F050FE204601F01DFC6FF0020094E624
:10421000287B291D401EC2B2A08A80B200F072F92C
:10422000A0826069012101EBE07161F3DF706061E0
:10423000002082E605EB080122180979D176401C9E
:1042400008F1010808F0FF08052823D2D845F1D36A
:1042500020E061681298FFF7D0FB0146080019D0F2
:10426000052001E011461C300A68002AFAD1626973
:10427000C2F30942101A09E005EB08020B18127983
:104280001A71401C08F1010808F0FF081C2801D22F
:10429000D845F1D3CDE9006704F11B0002906168B5
:1042A0001298FFF7AAFB0390D84501D3002002E043
:1042B00005EB0800001D04906069C0F309405844F4
:1042C000ADF814001098ADF816008DF818901398FA
:1042D0008DF8190011988DF81A008DF81BA0002098
:1042E00060602A7BA08A521E80B2291D00F00AF964
:1042F000A082A08A218B80B2884203D1149869469B
:10430000826890476946149800F044F8204601F00E
:1043100099FBA08A218B80B2884201D100200CE653
:104320006FF0100009E6000080841E0040420F007C
:10433000FFFF00FC2DE9F0470446DDE908890D4642
:1043400016461F462C212046FBF726FF0020207032
:10435000A760C4F8048020626062C4F828907009E5
:10436000B0F5803F01D34FF6FF7082B2294604F1C9
:104370000C00BDE8F04701F076B8406A002801D093
:10438000001D704700207047416A0A6842620C3085
:1043900000F0BABA70B50C4600F10C0604E00D68E6
:1043A000304600F0B1FAE560E1680029F7D100205D
:1043B000A0602061A08270BD2DE9F0418AB010ADEF
:1043C000DDE914C8E0CD139C012C13D000248DF836
:1043D0000040CDE90223ADF8105005968DF8187015
:1043E000CDF81CC0ADF820806A4600F005F80AB090
:1043F000BDE8F0810124EAE770B5064614466FF087
:104400000102E069002803D1208C08B1104670BD7C
:10441000207E1F2801D9104670BD3046FFF768FD89
:10442000F8B13046FFF764FD227E238A120642EA85
:104430000342237842EAC33242EA0121084340F0B2
:1044400080052046FFF745FA0246234629463046B6
:1044500000F079F90546002D09DD2078012803D008
:1044600005E06FF0030070BD606900F0F3FF2846BF
:1044700070BD08467047084670474A1E7E2A00D81D
:1044800001707047401A002801DA203000B27047EE
:104490002DE9F041069C00EBD10603EBD40701F0B7
:1044A000070004F0070300EB020C27E000F007040C
:1044B00003F007018C4201D9254600E00D46ACEB24
:1044C0000002C5F10805AA4200D32A464FF47F45F1
:1044D000D540EDB2CD4006EBD00898F8008008FA40
:1044E00004F828FA01F807EBD30108EA05080C786C
:1044F000AC4344EA08040C70104413448445D5D1FD
:10450000BDE8F08170B50C46154603E014F8011BB8
:1045100000F004F86D1E691CF8D170BD10B580EA7A
:104520000120002141F221034FF6FF72040403D55C
:1045300002EA4000584001E002EA4000491CC9B2CA
:104540000829F3D310BD2DE9F041074615461E4654
:104550000024224628463146FBF7F5FDC1B2384615
:10456000FFF7DCFF07460834A4B2402CF1D33846ED
:10457000BDE8F08110B5FEF788FE10B100210160A2
:1045800010BD002010BD30B589B005460C46202175
:104590006846FBF701FE04942846FEF776FE0446C3
:1045A0003CB1202269462046FBF7DDFD204609B0DC
:1045B00030BD0020FBE710B5FEF767FE04462CB1C6
:1045C00014212046FBF7E8FD204610BD002010BD59
:1045D000082802D90C2801D809207047102801D8D2
:1045E0000A207047142801D80B207047182801D8DA
:1045F0000C207047202801D80D207047302801D8A2
:104600000E2070470F2070472DE9FF4F83B083467F
:10461000BBF81400B1EBC00F03D3002007B0BDE816
:10462000F08F059A0A44B2EBC00F03D9C1EBC0006A
:10463000C0B20590DBF80C00002210B9DBF81000C6
:10464000F0B30C464FF00008059D282C12D2C4F19F
:104650002800A84200D9284600F0FF080092DBF8A5
:10466000080042462146069BFFF712FF4444A5EB93
:104670000800C5B2BBF814006FF0270101EBC00AB7
:104680002826DBF80C9028E0BAF1E00F01D9E020F1
:1046900000E050468719A74219D9381BA84200D913
:1046A0002846C0B20290A11BCDF8008009F1040099
:1046B000069B029AFFF7ECFE02980444029800E081
:1046C0001CE0404400F0FF080298281AC5B2B81B4D
:1046D000AAEB000A3E46D9F80090B9F1000F01D0CC
:1046E000002DD1D1DBF8100078B175B1A11BCDF848
:1046F00000802A46069BFFF7CBFE06E00092DBF81F
:104700000800DDE90523FFF7C3FE059886E70828C2
:104710000CD909280BD00A280BD00B280BD00C2859
:104720000BD00D280BD00E280BD0402070470C204A
:1047300070471020704714207047182070472020C1
:104740007047302070472DE9FF4F83B092461C46DA
:104750006FF001006269002A39D0228C12B1E3693E
:10476000002B34D04FF0000808200190039841F04E
:10477000004B0C300290082A2CD20298FFF71BFF46
:104780000546280021D00830228C0646E169FBF757
:10479000EAFC208C401C80B2FFF71AFFFFF7B7FF3E
:1047A000401E2084401C28746069218C007800F031
:1047B0001F0040F0C0008855C5F804B02946039892
:1047C00001F02CFB4FF0010863E06FF0020007B02E
:1047D000BDE8F08F002600274FF08009921C90B2B0
:1047E0000721801D90FBF1F080B203998A8AC98A63
:1047F000511A89B2814249D2F01EE8E70298FFF7C8
:10480000DAFE0546280002D000201EB108E06FF055
:104810000200DCE785F808A04FEA1A20687202203F
:104820000199491E07E0E2692B18925D1A72401C3B
:1048300080B2761CB6B2884202DA228CB242F2D83A
:10484000218CB14201D14FF04009401C80B2FFF7EA
:10485000BFFEFFF75CFF401E80B2626949EA471164
:10486000127802F01F0211432A181172C5F804B021
:10487000401C28742946039801F0D0FA08F1010879
:104880000FFA88F887F001074FF00009208CB0423A
:10489000B4D140469BE700B50246104600F00CF844
:1048A000022802D0C2F3074000BDC2F30F20510618
:1048B000FAD100F0030000BDC0F3C011002903D0FD
:1048C000000403D501207047022070470020704784
:1048D00070B505460C46286A0C3506E00169A14210
:1048E00005D001682846FFF7C4FD0028F6D170BD49
:1048F00013B54FF6FF73012269460248FDF7D8FC55
:1049000000981CBDB413002042680A6041604189D0
:10491000491E41817047000010B5042802D34FF0B2
:10492000FF3010BD401C0A4900EB400001EBC00005
:10493000406810F1FF4F02D24FF07C5101E04FF080
:104940003F41FBF765FCBDE81040FBF759BD000097
:1049500068000020F0B58BB006460C461F480A9050
:104960000C3800250560456085600246A18A0AABC7
:10497000204602F00EF807460795089509958DF830
:104980001C50164907A8C83102F02EF8134AA17E20
:10499000C832CDE9035280B20291059004F11900AA
:1049A0002821CDE90010E17E0D4A0E4B3046FFF77D
:1049B00003FD002F0DDB0C490120C8700B49087066
:1049C000FCF7B0FE0A4908600AA0FDF7E9FF0BB04A
:1049D000F0BD394611A0FDF7E3FFF8E7080100201C
:1049E00026417272DF25D7B7000000202100002089
:1049F000240000205B4657555D20426567696E467E
:104A000069726D7761726555706461746520616368
:104A10006365707465640D0A000000005B465755BD
:104A20005D204465636F6465206661696C3A20258A
:104A30006C640D0A000000002DE9F0418AB0804648
:104A40000C46264F0997A7F11006002535607560C2
:104A5000B560F560A18A09AB3246204602F039F80C
:104A6000069507950895002819DB1D48017C51B96A
:104A70000121017405608560E17EC160317A19A071
:104A8000F268FDF78DFF4FF48072ADF8185008976B
:104A9000ADF81C501DA03168FDF782FF02E0022036
:104AA000ADF818000D4906A8C83102F03EF80B4ACF
:104AB000A17EC832CDE9035280B20291059004F183
:104AC00019003021CDE90010E17E1F4A1F4B4046FE
:104AD000FFF772FC0AB0BDE8F0810000F819002071
:104AE000002C00205B426F6F746C6F616465725DB7
:104AF0002046696C6520726561642073746172740C
:104B000065643A20252E2A730D0A00005B426F6F00
:104B1000746C6F616465725D2046696C65207265B6
:104B2000616420726571756573743A206F6666738F
:104B300065743D256C752C206368756E6B5F7369B9
:104B40007A653D25750D0A0078F6339F93CACD8DA1
:104B50002DE9F04198B080460D4627A0E97EFDF78B
:104B60001FFF482106A8FBF717FB0DF13A0001F0E3
:104B700077F901268DF8386000248DF839408DF8DA
:104B800028608DF829408DF82A400B94FCF7CAFD67
:104B90004FF47A71B0FBF1F006908DF81C408DF85F
:104BA0001D4021A73846FBF702FB8DF854001697ED
:104BB000234906A801F0C9FC0746214AA97ECDE990
:104BC0000342B8B2059005F11900CDE900600291E9
:104BD000E97E1C4A1C4B4046FFF7EEFB01460029CC
:104BE00005DC1AA0FDF7DCFE18B0BDE8F0813946FF
:104BF0001FA0FDF7D5FEF7E75B4765744E6F646550
:104C0000496E666F5D2052657175657374205265DB
:104C10006365697665642066726F6D204E6F6465AA
:104C20002025640D0A0000006F72672E61726475A2
:104C300070696C6F742E63616E746F70776D0000B5
:104C4000001400209E6AC421818A46EE5B47657489
:104C50004E6F6465496E666F5D205265706C792099
:104C60004661696C65643A2025640D0A0000000005
:104C70005B4765744E6F6465496E666F5D20526573
:104C8000706C7920456E7175657565642C206C6556
:104C90006E3D256C750D0A002DE9F04198B08046F7
:104CA0000D46482106A8FBF777FA0DF13A00FEF70A
:104CB0004FFD01268DF8386000248DF839408DF8BD
:104CC00028608DF829408DF82A400B94FCF72AFDC6
:104CD0004FF47A71B0FBF1F006908DF81C40032080
:104CE0008DF81D000FA73846FBF761FA8DF85400C8
:104CF0001697154906A801F028FC134AA97ECDE9AC
:104D0000034280B2059005F11900CDE900600291DF
:104D1000E97E0E4A0E4B4046FFF74EFB18B0BDE849
:104D2000F08100006F72672E6172647570696C6F3C
:104D3000742E63616E746F70776D2E626F6F746C1A
:104D40006F61646572000000681800209E6AC421CB
:104D5000818A46EE30B58FB005460C46202106A864
:104D6000FBF71AFA1F49D1E90402CDE90602D1E99D
:104D70000602CDE90802D1E90802CDE90A020120C4
:104D80008DF83000184A0D92D1E90A03C2E90003F8
:104D9000D1E90C03C2E90203D1E90E01C2E9040121
:104DA00002F1480106A801F00EFC0F4A0023483228
:104DB000A17ECDE9033280B20291059004F1190081
:104DC0000421CDE90010E17E084A094B2846FFF78F
:104DD000F3FA0146002902DC06A0FDF7E1FD0FB061
:104DE00030BD000020000020D0170020042B31EC43
:104DF000A7766FBE5B4765745472616E73706F7295
:104E00007453746174735D205265706C79204661CF
:104E1000696C65643A2025640D0A0000F0B58BB01A
:104E200006460D4600240A942B48046444648464B6
:104E3000C464002700F14002A98A0AAB284601F0A9
:104E4000A6FE002826DB24484030007810B1012857
:104E500008D01FE001F044F8074639461FA0FDF7CF
:104E60009FFD17E00020254A00EB400102EBC10145
:104E70000B694B60401C0528F6DB5068FBF7C0FA55
:104E80001E494839087001F02BF8074639461CA026
:104E9000FDF786FD8DF82070184906A8403901F00D
:104EA000A1FE164AA97E403ACDE9034280B20291A2
:104EB000059005F119000A21CDE90010E97E194A93
:104EC000194B3046FFF778FA0146002902DC17A09B
:104ED000FDF766FD0BB0F0BD801700205B506172DE
:104EE000616D5D2053415645206F70636F6465208E
:104EF000726573756C743D25640D0A0068000020AE
:104F00005B506172616D5D204552415345206F7069
:104F1000636F646520726573756C743D25640D0A5A
:104F200000000000CDD269EBC51A133B5B506172E3
:104F3000616D5D20457865637574654F70636F645E
:104F400065207265706C79206661696C65643A20D1
:104F500025640D0A000000002DE9F04788B00746DF
:104F60000E469B48079020212038FBF715F95C215D
:104F70009748FBF711F9964AB18A07AB203A3046B9
:104F800001F070FE002805DA92A0FDF709FD08B0D7
:104F9000BDE8F087DFF83882A8F1200898F81810EB
:104FA00031B10A4691A0D8F81C30FDF7F9FC04E0B5
:104FB000B8F8001097A0FDF7F3FCD8F81000FBF745
:104FC0006DFAB28A98F810308DE80B00039298F8C9
:104FD0000810D8E904239648FDF7E2FC002498F86D
:104FE0001800DFF850A260B1002505EB450998F8DC
:104FF00018205AF83910D8F81C00FBF7FAF848B115
:1050000015E0B8F80000052814D200EB40000AEBC8
:10501000C0040FE05AF83900FBF7C9F898F81810E7
:10502000884204D105EB45000AEBC00402E06D1C88
:10503000052DDADB002C5DD098F80800002859D047
:10504000012804D0022808D003280AD011E0D8E9AA
:105050000401FBF7BFF960600BE0D8F81000606056
:1050600007E098F8100010B14FF07E5000E00020EB
:105070006060D4E90101FBF725FA01D2A068606005
:10508000E1686068FBF728FA01D2E0686060207D83
:1050900078B1606810F1FF4F02D24FF07C5101E00F
:1050A0004FF03F41FBF7B4F8FBF7AAF9FBF784F99F
:1050B00060606068FBF7F2F9256802460B462946F6
:1050C0005DA0FDF76DFC62A12068FBF777F868B979
:1050D0006068FBF7AEF9C1B211B1481E7E2806D850
:1050E0005448483801705DA0FDF75AFC02E06AA000
:1050F000FDF756FC364848216030FBF74DF8344D3B
:105100004FF000086035BCB32068FBF750F885F815
:10511000400020686864207DF0B14FF0010985F8F7
:1051200000906068FBF799F9C5E9020185F81090D5
:105130002069FBF792F9C5E9060185F83090A0686F
:10514000FBF78BF9C5E90E0185F82090E068FBF7C5
:1051500084F9C5E90A0115E0022028706168A96098
:1051600028742169A96185F83000A168A96385F8D0
:105170002000E068A86205E0FFE785F800804FA006
:10518000FDF70EFC1249A831A1F1480001F0C9FD5C
:1051900004460F4AB17EA832CDE90382A0B2029143
:1051A000059006F119000B21CDE90010F17E4C4A63
:1051B0004C4B3846FFF700F90146002903DC4AA0B2
:1051C000FDF7EEFBE3E621464EA0FDF7E9FBDEE648
:1051D000A01500205B506172616D5D204465636FB6
:1051E0006465204661696C65640D0A005B506172FC
:1051F000616D5D2052657175657374204E616D65DA
:10520000286C656E3D2564293A20252E2A730D0AE7
:10521000000000005B506172616D5D205265717528
:1052200065737420496E6465783A2025640D0A0020
:10523000CC700008680000205B506172616D5D20D9
:10524000536574202573203D2025660D0A0000005B
:1052500063616E5F6E6F64655F6964005B5061726D
:10526000616D5D2050656E64696E67204E6F646588
:10527000204944203D202564202877696C6C2061FA
:1052800070706C792061667465722068616E646C00
:105290006572290D0A0000005B506172616D5D202E
:1052A0004E6F6465204944206F7574206F662072CC
:1052B000616E67653A2025640D0A00005B506172DB
:1052C000616D5D204E6F7420666F756E642C207268
:1052D00065706C7920656D7074790D0A00000000AE
:1052E000D5A4D139F922B6A75B506172616D5D20FA
:1052F0005265706C79204661696C65643A2025645A
:105300000D0A00005B506172616D5D205265706C2A
:1053100079206C656E3D256C7520717565756564C9
:105320000D0A00002DE9F04389B081460C460026A5
:105330000896DFF89C80C8F84060C8F84460A18AED
:1053400008AB08F14002204601F022FA08F14007BC
:10535000002807DBD7E900011E4A81F0AC0150406C
:10536000084322D000250795194907A8891C01F098
:105370002CFA174AA17E921CCDE9036280B20291F9
:10538000059004F119000521CDE90010E17E124AD3
:10539000124B4846FFF710F80146002907DC10A021
:1053A000FDF7FEFA09B0BDE8F0830125DBE755B152
:1053B000012088F80100FCF7B5F9C8F8040011A035
:1053C000FDF7EEFAEEE70CCF19A0FDF7E9FAE9E7F1
:1053D000200000201E1B55CEF017304A39059E567E
:1053E0005B526573746172744E6F64655D205265C3
:1053F000706C79204661696C65643A2025640D0AF9
:10540000000000005B526573746172744E6F6465D6
:105410005D2041636365707465642C207363686507
:1054200064756C696E672072657365740D0A00009F
:105430005B526573746172744E6F64655D20526572
:105440006A656374206D616769633D3078256C6CB3
:10545000580D0A000178491CC9B20170202901D3F6
:1054600000210170704730B500230161041D04E084
:1054700001EB431525602C465B1C9342F8D30021B9
:105480002160028141818181016030BD08B5012028
:1054900000909DF80100012800D0002008BD30B523
:1054A000044621F0604224F06043CD0FE00F8542B6
:1054B0000CD005B1920C00B19B0C9A4202D002D2E2
:1054C0004FF0010030BD4FF0000030BDC1F38071DE
:1054D000C4F380709A4201D18142F6D19A4201D23E
:1054E000012030BD002030BD10B5114C114920689D
:1054F00088421BD16068012818D11C21204600F089
:1055000087FAE169814204D0BDE810400AA0FDF7A6
:1055100047BA0021144804EB810201EB410300EB80
:10552000C30392685A60491C0529F4DB10BD0000D2
:1055300000FC0108415241505B506172616D5D2079
:10554000435243206D69736D617463682C206967F1
:105550006E6F72652073746F7265642076616C750E
:1055600065730D0A00000000680000208CB0002464
:10557000FDF79AFFFCF7E4F8FCF7E7FFFCF712FFF2
:10558000FCF7EEFEFCF746FFFCF7AAFF8F4800F0A1
:1055900067FC8FA0FDF704FA00258C4E8EA0715D8C
:1055A000FDF7FEF96D1C102DF8DB8DA0FDF7F8F965
:1055B000FFF79AFF00218B48FCF7B8FD04218948CA
:1055C000FCF7B4FD08218748FCF7B0FD0C218548A5
:1055D000FCF7ACFD01F0ECFCFDF768FE002782480B
:1055E000CDE900078249814B4FF48052A1F12C0094
:1055F000FEF7A0FE7549A1F11300FEF7C5FBDFF829
:10560000F4814FF07C51D8F80400FAF701FEFAF764
:1056100010FFC1B200295BD075482C38FEF72DFF72
:105620000797089701200990029703970497059719
:1056300006970A900E200B9002A96F48FBF71FFBFC
:105640006D48FBF75AFE02216B48FBF795FADFF82D
:105650007C91DFF8A8B1A9F11309694E4FF47A7A69
:1056600000F05AFA9BF900007F2814D8C5B2002D2B
:1056700031D077705E4829462C38FEF7FEFE28466A
:10568000FAF7A3FEC8F80400FF208BF800002946B3
:105690005CA0FDF785F9707800284AD04B48133894
:1056A000FEF7E1FA0546280018D07F2D16D850489D
:1056B00029462C38FEF7E1FE77702846FAF785FE7A
:1056C000C8F80400294657A0FDF76AF9B77030E022
:1056D00000F09CFDA4E700F099FDD0E7B078A0B100
:1056E000FCF720F8316988420FD399F8120010288E
:1056F0000BD23F49354800222C391338FEF754FBB2
:10570000FCF710F8F060B77013E0FCF70BF8F168E5
:10571000401A50450DD399F81200102809D2344987
:105720002A4800222C391338FEF73EFBFBF7FAFF1C
:10573000F060FBF7F7FF7169401A504504D300F0A1
:10574000FDFAFBF7EFFF7061FBF7ECFF4FF47A71A6
:1057500000FB01F2264800232C38FEF753F93A48A3
:10576000007820B322482C38FEF707FE48B1002508
:10577000FBF7D8FF35490968401AC82803D901202A
:1057800002E00125F4E70020054310D0F07808B1CD
:1057900000F020FCBFF34F8F2D4908682D4A00F41C
:1057A000E06010430860BFF34F8F00BFFDE70120AA
:1057B000FBF7E6FD544506D34FF400512648FBF7AE
:1057C000A1FF00244CE7641CA4B249E73313002076
:1057D0005549443A2000000025303258200000008E
:1057E0000D0A00006C130020456000085D58000899
:1057F0002003002068000020441300202000002027
:10580000000000205B506172616D5D204170706C22
:10581000696564204E6F6465204944203D202564FD
:105820000D0A00005B44796E49445D20416C6C6F49
:105830006361746564204E6F6465204944203D2097
:1058400025640D0A00000000210000202400002033
:105850000CED00E00400FA0500100140FEB506461C
:105860000C46E08A012802D1217E022902D00128BB
:1058700019D01BE021464648FEF7F8F9454D6878F7
:1058800070B14348FEF7EFF950B94148807C1028C9
:1058900006D20120A870FBF745FF0A30286170E0AE
:1058A0000020A8706DE0217E012904D00B2807D0CC
:1058B0000A280AD00CE021463046FFF749F960E09B
:1058C00021463046FFF748FB5BE0217E012902D0EC
:1058D000042805D007E021463046FFF79FFA50E044
:1058E000217E012902D0052805D007E02146304657
:1058F000FFF730FA45E0217E012902D0282805D0A3
:1059000007E021463046FFF70DFD3AE0217E0129F0
:1059100019D0A0F54071F23904D0A0F580610639A4
:105920001AD02EE01C4802901A4AA18A02AB183203
:10593000204600F00EFD0146002909DB154818300D
:1059400000F0A4F81DE021463046FFF703F818E008
:1059500012A0FDF725F814E00F487830029000906F
:10596000A18A6B4601AA204600F065FD0146002988
:1059700004DBE17E01A800F04DF902E00CA0FDF788
:105980000FF803B021463046BDE8F040FEF702BDF7
:105990002013002000000020540200204465636FA3
:1059A0006465206661696C3A2025640D0A00000078
:1059B00045534320526177436F6D6D616E6420647F
:1059C00065636F6465206661696C3A2025640D0A21
:1059D0000000000070B505460C46E18A012902D19D
:1059E000207E012802D0302905D00BE02146284630
:1059F000FFF752F906E0207E012803D12146284610
:105A0000FFF71AF821462846BDE87040FEF7C2BCF1
:105A100030B54FF0FF320A4C0DE010F8013B5A4010
:105A2000002302F001056D42254085EA52025B1C0D
:105A3000DBB2082BF5D3491E4B1CEED1D04330BD51
:105A40002083B8ED41694FF0006202EBF1714FEA3B
:105A50007101034A114021F000414161704700008B
:105A6000FFFF00FC70B5054605F10C000646FEF789
:105A70008AFD04463CB13046296AFEF7FCFC2060F2
:105A80002C62204670BD002070BD00002DE9F0475B
:105A9000804600264FF47A794FF4FA6A1C4F30E0C2
:105AA000D8F8040000EBC6051A496868FAF708FC44
:105AB000FAF7BFFC00F2DC5084B24C4500D24C46F1
:105AC000544500D954462878FEF726FF054620465F
:105AD00000F096F9042D12D235B1012D07D0022D18
