:020000040800F2
:10000000C0350020050100081F2200085F200008FD
:100010001D220008D3090008A126000800000000E6
:10002000000000000000000000000000492200085D
:10003000D509000800000000212200084B2200081A
:100040001F0100081F0100081F0100081F01000810
:100050001F0100081F0100081F0100081F01000800
:100060001F0100081F0100081F0100081F010008F0
:100070001F0100081F0100081F0100081F010008E0
:100080001F0100081F0100081F0100081F010008D0
:10009000952600081F0100081F0100081F01000825
:1000A0001F0100081F0100081F0100081F010008B0
:1000B0001F0100081F0100081F0100081F010008A0
:1000C0001F0100081F0100081F0100081F01000890
:1000D0001F0100081F0100081F0100081F01000880
:1000E0001F0100081F0100081F010008DFF810D0E1
:1000F00000F0EEFB0048004759440008AFF30080D1
:10010000C03500200648804706480047FEE7FEE766
:10011000FEE7FEE7FEE7FEE7FEE7FEE7FEE7FEE7B7
:10012000AD220008ED000008202A04DB203A00FA86
:1001300002F1002070479140C2F1200320FA03F33E
:10014000194390407047202A04DB203A21FA02F03C
:100150000021704721FA02F3D040C2F12002914001
:1001600008431946704740EA01039B0703D009E0A2
:1001700008C9121F08C0042AFAD203E011F8013B93
:1001800000F8013B521EF9D27047D2B201E000F8EC
:10019000012B491EFBD270470022F6E710B513462B
:1001A0000A4604461946FFF7F0FF204610BD421CE0
:1001B00010F8011B0029FBD1801A704710B50022EE
:1001C00000E0521C835C8C5CA34201D1002BF8D16F
:1001D000D8B2E1B2401A10BD30B504460020034643
:1001E00000E05B1C934203D2E05CCD5C401BF8D086
:1001F00030BD30B505460020034600E05B1C93424D
:1002000005D2EC5CC85C201A01D1002CF6D130BDBF
:10021000F0B480EA0102D40F4200B2EB410F02D2E7
:100220000246084611464A0042D0C30DDDB2C1F372
:10023000C752AD1A202D35DAC1F3160141F4000280
:1002400004B15242C5F1200602FA06F12A411044D7
:10025000B3EBD05F23D0C4B1012DA0EBC35009DCB8
:10026000F0BC4FF0004202EAC352DBB200F50000DE
:1002700000F048B9400000F1807000EBC350A0F1DD
:10028000807040EAD170490009E0490841EAC07134
:10029000A0EBC35000F50000400800EBC350F0BCD9
:1002A00000F027B96142012202EB4101001BF6E791
:1002B000F0BC704781F00041AAE780F00040A7E75A
:1002C00080EA010210B502F00043400022D04A004B
:1002D0001FD0010E01EB1261C0F35600C2F35602AB
:1002E00040F4000042F40002A0FB022000047F3929
:1002F000140400D0401C50EA124001D44000491EB2
:10030000C2B20C0604EBD010401C4008802A02D078
:1003100003E0002010BD20F00100002900DA0020D9
:10032000184310BD420005D0C0F3C752524291425B
:1003300001DC0020704700EBC1507047C10F80EA1C
:10034000E0700844CA079623002100F0DBB8F0B43F
:10035000CA17CB0F50405140C61841F100054FEA73
:10036000C372314628004FF0960303D0B623F0BC89
:1003700000F0C8B830460021F9E700F0004220F054
:100380000040C10DC0F3160040F400007F2901DADF
:1003900000207047962903DCC1F19601C84001E0B6
:1003A00096398840002AF4D04042704720F000403F
:1003B000C10DC0F3160040F400007F2901DA0020CF
:1003C0007047962903DCC1F19601C8407047963901
:1003D0008840704710B500F0004420F00040C20D86
:1003E000C0F3160040F400007F2A02DA0020014624
:1003F00010BD0021962A03DCC2F19602D04002E033
:10040000963AFFF791FE002CF2D00023D0EB0300C8
:1004100063EB010110BD00F0004230F000400AD053
:10042000C10D01F56071C0F3160042EA0151C20826
:10043000400711437047002001467047002801DB48
:10044000C0F10040002901DBC1F100418142704749
:10045000002801DBC0F10040002901DBC1F10041AF
:100460008842704730B50B46014600202022012407
:1004700009E021FA02F59D4205D303FA02F5491B72
:1004800004FA02F52844151EA2F10102F1DC30BD88
:100490002DE9F05F0546002092469B4688460646B9
:1004A000814640241BE02846414647462246FFF746
:1004B0004AFE53465A46C01A914110D31146184677
:1004C0002246FFF731FE2D1A67EB01084F46224600
:1004D00001200021FFF728FE17EB00094E41201EE6
:1004E000A4F10104DFDC484631462A464346BDE814
:1004F000F09F0029A8BF7047401C490008BF20F0AA
:100500000100704710B4B0FA80FC00FA0CF050EA19
:10051000010404BF10BC704749B1CCF1200421FA9A
:1005200004F411FA0CF118BF012121430843A3EB95
:100530000C01CB1D4FEA00614FEA102042BF0020A2
:1005400010BC704700EBC35010440029A4BF10BC7E
:100550007047401C490008BF20F0010010BC7047E4
:100560002DE9FE4F804681EA0300C00F0C46009043
:1005700021F0004123F00045B8EB0200A94105D26B
:100580004046214690461C460B46024623F000405A
:10059000104347D0270DC7F30A00C3F30A51029056
:1005A000401A019040286BDAC3F3130040F4801B1B
:1005B0000098924620B10023D2EB030A63EB0B0BA9
:1005C00001985946C0F140025046FFF7ADFD06467E
:1005D0000D4650465946019A00F08CF910EB080080
:1005E0006141002487EA115284EAE7731A4340D03C
:1005F000009A62B3019A012A4FEA075215DC001BE8
:1006000061EB02014FF0004202EA0752CDE90042DD
:10061000001C41F5801132462B4600F08CF903B0E6
:10062000BDE8F08F40462146F9E7001B61EB02016F
:10063000001C41F5801300185B412018A2F500173B
:1006400047EB030140EAD570B6196D4111E06D0822
:100650004FEA360645EAC0754FEA0752001B61EBC8
:100660000201001C41F5801149084FEA30000019D1
:10067000514132462B4603B0BDE8F04F00F04CB973
:100680000098012240000023D0EB020263EBE073EC
:10069000009821464FEAE074B8EB000061EB0401DA
:1006A000E9E783F000435BE781F0004158E72DE97B
:1006B000FE4F81EA030404F0004421F0004100945D
:1006C0004FF0000B23F0004350EA01045ED052EAE1
:1006D00003045BD0C3F30A54C1F30A552C44A4F2BB
:1006E000F3340194A0FB0254C1F3130141F48011CF
:1006F000C3F3130343F4801301FB024400FB034ED6
:10070000840A970A44EA815447EA8357A4FB07689E
:1007100002958D0A05FB07854FEA932C04FB0C54C8
:100720002705029D4FEA065847EA1637B5EB08053C
:100730006EEB070C870E920E47EA811742EA83128E
:10074000A7FB0201B6EB0B0164EB00042B0D43EA9F
:100750000C335E1844EB1C50DA465146E7FB0201AD
:10076000C5F313044FEA0B3343EA14534FEA043240
:10077000019C43EA0603A4F10C040294009CCDE919
:1007800000B400F0D8F803B0BDE8F08F00200146B7
:10079000F9E72DE9F04D81EA030404F0004B21F064
:1007A000004514464FF0000A23F0004150EA0502CC
:1007B00020D054EA01021DD0C5F30A570246C5F302
:1007C0001303C1F31300C1F30A5640F4801543F438
:1007D0008013A7EB0608101BD64608F2FD3873EB12
:1007E000050002D308F1010801E092185B41B8F15D
:1007F000000F03DA00200146BDE8F08D00204FF421
:100800008011064684460EE0171B73EB050705D3DF
:10081000121B63EB050306434CEA010C49084FEA3F
:10082000300092185B4150EA0107EDD152EA030013
:1008300012D082EA040083EA0501084305D0101BA8
:10084000AB4106D20122002306E000224FF0004314
:1008500002E06FF0010253101AEB06004CEB085156
:1008600010EB0A0041EB0B01BDE8F04D00F054B86D
:10087000C1F30A52C1F3130140F2FF3341F4801176
:100880009A4202DA00200146704740F233439A420E
:10089000A2F2334202DC5242FFF755BCFFF744BCE0
:1008A00030B5041E71F1000404DB4FF000444042F7
:1008B00064EB0101141E73F1000405DB1C464FF0CC
:1008C0000043524263EB0403994208BF904230BD9B
:1008D000064C074D06E0E06840F0010394E807008D
:1008E00098471034AC42F6D3FFF704FC2C550008AF
:1008F0004C550008202A06DBCB17203A41FA02F0BB
:1009000043EAE07306E041FA02F3D040C2F120026C
:10091000914008431946704710B5141E73F1000446
:1009200008DA401C41F1000192185B411A4301D1E1
:1009300020F0010010BD2DE9F04D92469B4611B10B
:10094000B1FA81F202E0B0FA80F220329046FFF76D
:10095000EBFB04460F4640EA0A0041EA0B0153460E
:100960005A46084313D0114653EA010019D0C8F182
:1009700040025046FFF7E7FB05460E4650465946F3
:100980004246FFF7D1FB084305D0012004E0204692
:100990003946BDE8F08D0020054346EAE0762C4359
:1009A00037430A986305E40AA0EB08000022FD0A19
:1009B00044EA47540A3002D500200146E9E7010520
:1009C00010196941DDE9084500196941BDE8F04D9C
:1009D000A2E7FEE7704772B6FEE790F82020012AF2
:1009E00007D0022A05D0416A41F4802141620120EA
:1009F0007047006842690A43426100207047F0B5C1
:100A000090F820500468A468012D07D0022D05D06D
:100A1000416A41F4802141620120F0BD04F080650B
:100A200004F00066354301D1E50053D5C4F30164F9
:100A30000125A5401D608B684FF4C0759BB1CE6841
:100A400005EB041733434E6843EAC6030668F351C7
:100A50004FF4C273076803EB04130E69FE50097D5F
:100A6000012909D00DE00E88CB6805EB041743EA95
:100A700046530668F351EBE70168CE5846F480769A
:100A8000CE501179D379567941EA036193791B04E9
:100A900043EA062319434FF4C676036806EB0416AF
:100AA00099511178D37841EA0361937852781B0405
:100AB00043EA022211434FF4C473026803EB0413A8
:100AC000D150006805EB0411425842F00102425037
:100AD0000020F0BD416A41F4001141620120F0BDE7
:100AE00010B5026890F82030012B07D0022B05D0FA
:100AF000416A41F480214162012010BDD2F8000218
:100B000040F00100C2F80002087D00F01F03012040
:100B10009840D2F81C328343C2F81C32CB69B3B977
:100B2000D2F80C328343C2F80C328C894B6864F3E0
:100B30001F434C6902EBC404C4F840320C890B68B3
:100B400064F31F434C6902EBC404C4F84432CB691C
:100B5000012B16D1D2F80C320343C2F80C320C88A8
:100B60004B6864F31F434C6902EBC404C4F8403281
:100B70000C89CB6864F31F434C6902EBC404C4F8CE
:100B800044328B697BB1D2F804320343C2F8043299
:100B90000B6973B1D2F814320343C2F81432096AF4
:100BA00001290CD010E0D2F804328343C2F8043299
:100BB000EEE7D2F814328343C2F81432EFE7D2F8EA
:100BC0001C120143C2F81C12D2F8000220F00100EE
:100BD000C2F80002002010BD7047406A704770B52F
:100BE00090F82040012C07D0022C05D0416A41F436
:100BF00080214162012070BD21B104682469A407ED
:100C00002AD003E00468E468A4071FD04FF4D87426
:100C1000056804EB01142D5905F0040595600DB32A
:100C200005682D59ED08556005682C5904F002043B
:100C3000D4604FF4DA74056804EB01142E5906F001
:100C40000F06082E13D30825156114E0416A41F4FC
:100C500000114162012070BD416A41F400114162FE
:100C6000012070BD05682D596D0D1560DCE72D590B
:100C700005F00F05156105682D59C5F30725956128
:100C800005682C59240C54614FF4DC72046802EBA3
:100C90000112A4581C700468A458240A5C700468EB
:100CA000A458240C9C700468A258120EDA704FF4F9
:100CB000DE72046802EB0112A4581C710468A45887
:100CC000240A5C710468A458240C9C710468A2581E
:100CD000120EDA7131B10068016941F02001016141
:100CE000002070BD0068C16841F02001C160F7E7D5
:100CF0000246002092F82010012901D002290CD1CF
:100D000011688A68520100D501208A68120100D555
:100D1000401C8968C90000D5401C70472DE9F05F70
:100D20000546002428684669D0F804908768D0F802
:100D30000CA0D0F810B0D0F81880F10748D0F9070F
:100D400014D001218160B80703D5284600F04CFA81
:100D50000CE0780702D54FF4006407E0380702D5AD
:100D60004FF4805402E0284600F03DFAF80516D50D
:100D700029684FF480708860B80503D5284600F0D4
:100D800035FA0CE0780502D544F4005407E0380544
:100D900002D544F4804402E0284600F026FAF80325
:100DA00016D529684FF480308860B80303D52846EB
:100DB00000F01EFA0CE0780302D544F4004407E08A
:100DC000380302D544F4803402E0284600F00FFADC
:100DD000300707D55FEACA6004D544F40074296877
:100DE0001020C86070074FF0080707D55FEA0A7047
:100DF00004D52868C760284600F080F9B00706D5FA
:100E00002868C068800702D0284600F079F970068B
:100E100007D55FEACB6004D544F4806429681020CC
:100E20000861B00607D55FEA0B7004D52868076132
:100E3000284600F0A9F9F00606D528680069800761
:100E400002D0284600F0A1F9B00308D55FEAC960D6
:100E500005D5296810204860284600F097F9F0036E
:100E600007D55FEA097004D528684760284600F076
:100E7000C0F9300446D55FEA497040D5F00504D585
:100E80005FEAC87001D044F00104B00504D55FEA00
:100E9000887001D544F00204700504D55FEA4870FB
:100EA00001D544F00404300529D518F0700F26D080
:100EB00008F07000402815D006DC102809D0202842
:100EC0000AD0302816D10AE050280ED0602811D15F
:100ED0000EE044F008040DE044F010040AE044F091
:100EE000200407E044F0400404E044F0800401E002
:100EF00044F480742868816921F070018161296857
:100F000004204860002C05D0686A204368622846A7
:100F1000FFF762FEBDE8F09F70B50446002C03D0D9
:100F200094F8200010B104E0012070BD204600F0CC
:100F30009DF82068016841F00101016000F074FA39
:100F4000054605260CE000F06FFA401B0A2807D979
:100F5000606A40F40030606284F82060012070BD57
:100F600020684068C007EED02068016821F00201C7
:100F7000016000F059FA05460CE000F055FA401BFC
:100F80000A2807D9606A40F40030606284F8206063
:100F9000012070BD206840688007EED4207E0128C3
:100FA0003FD02068016821F080010160607E012847
:100FB0003DD02068016821F040010160A07E012839
:100FC0003BD02068016821F020010160E07E01280B
:100FD00039D02068016841F010010160207F0128AC
:100FE00037D02068016821F008010160607F012886
:100FF00035D02068016821F004010160D4E90201C4
:101000000843D4E90412114308436168491E0843A8
:101010002168C86100206062012084F8200000205F
:1010200070BD2068016841F080010160BEE7206862
:10103000016841F040010160C0E72068016841F0AB
:1010400020010160C2E72068016821F01001016001
:10105000C4E72068016841F008010160C6E7206824
:10106000016841F004010160C8E7000010B586B0D6
:101070000021029103910491059100681C49884266
:1010800034D11C48C16941F00071C161C16901F0EE
:1010900000710191816941F001018161816901F073
:1010A00001010191816941F004018161806900F0D1
:1010B000040001904FF400600290012004900E4C57
:1010C00002A9204600F0A8F8A11402910221039180
:1010D0000321059102A9204600F09EF80022114646
:1010E000142000F00FFA142000F0FEF906B010BD35
:1010F00000640040001002400008014070470000FA
:1011000000B58DB06B4602AA0021FFF768FD0028EC
:1011100025D1039820F0604040F0004009900598E8
:10112000022803D1099840F08040099006988DF874
:10113000300069460AA8069AFFF715F800F074F91E
:101140004FF47A7100FB01F2002309A9054802F06F
:10115000EFF90146002902DA03A001F0A3FA0DB06D
:1011600000BD0000B404002063616E6172644861D8
:101170006E646C6552784672616D65206572723D71
:1011800025640D0A0000000070477047704770B575
:10119000044694F82000012805D0606A40F400203D
:1011A0006062012070BD022084F820002068016880
:1011B00021F00101016000F037F905460DE000F073
:1011C00033F9401B0A2808D9606A40F40030606295
:1011D000052084F82000012070BD20684068C00709
:1011E000EDD1606270BD70477047704770477047BF
:1011F0007047704770B5044600F016F90546601C4C
:1012000002D004480078044400F00EF9401BA042CC
:10121000FAD370BD440000202DE9F84F00240023CC
:10122000DFF8C4914FF00F08A9F1040B09F1040A8B
:10123000ABF1040ED1E00127A7403A40BA4275D184
:10124000DFF8A8C14D68A5EB0C0665452BD00DDC79
:10125000032D34D005DC35B3012D19D0022D2FD14B
:101260001BE0112D16D0122D2AD119E0B6F5881FDA
:1012700019D006DCB6F5803F15D0B6F5801F1FD11A
:1012800011E0B6F5001F0ED0B6F5041F18D10AE024
:10129000CB6815E0CB681B1D12E0CB6808330FE06C
:1012A000CB680C330CE08B6823B1012B04D00823EE
:1012B000476105E0042303E00823076100E0002301
:1012C000FF2A01D8054601E000F1040502D84FEAE3
:1012D000840603E0A4F108064FEA86062F6808FAA0
:1012E00006FC27EA0C0703FA06F647EA06072F6012
:1012F0004D68ED0070D53E4DAE6946F00106AE6119
:10130000AD6905F0010500953A4D24F00306771903
:10131000BE68A5072D0F08FA05FC26EA0C06DFF8C3
:10132000D8C0604503D14FF0000C17E054E0DFF85F
:10133000CCC0604502D14FF0010C0FE0DFF8C0C017
:10134000604502D14FF0020C08E0DFF8B8C06045FC
:1013500002D14FF0030C01E04FF0040C0CFA05FC35
:101360004CEA060CC7F808C04D68ED0205D5D9F85F
:1013700000501543C9F8005004E0D9F800509543D7
:10138000C9F800504D68AD0205D5DAF80050154394
:10139000CAF8005004E0DAF800509543CAF800504B
:1013A0004D68AD0305D5DBF800501543CBF8005070
:1013B00004E0DBF800509543CBF800504D68ED0396
:1013C00005D5DEF800501543CEF8005004E0DEF8F5
:1013D00000509543CEF80050641C0A6832FA04F5B8
:1013E0007FF429AFBDE8F88F080401400000111018
:1013F000001002400000014000080140000C0140C4
:101400000010014000140140C26821EA02030A40B2
:1014100043EA024101617047002A01D0016170472F
:1014200009040161704700000148806870470000AE
:1014300044000020024881680278114481607047AE
:101440004400002010B50748016841F01001016018
:10145000032000F077F80F2000F006F800F026F8DF
:10146000002010BD0020024070B504460D4D4FF421
:101470007A712878B1FBF0F00B490968B1FBF0F004
:1014800000F02AFB08B1012070BD102C07D2002209
:101490002146501E00F036F86C60002070BD01201F
:1014A00070BD0000440000205000002008B50C482A
:1014B000816941F001018161816901F001010091BF
:1014C000C16941F08051C161C06900F08050009055
:1014D0000449486820F0E06040F08060486008BD42
:1014E0000010024000000140002809DB00F01F024C
:1014F000012191404009800000F1E020C0F8001176
:1015000070470000F0B40D460D4B1B68C3F3022377
:10151000C3F10704042C00D90424191D072901D2A2
:10152000002300E0DB1E012606FA04F1491E2940D3
:1015300099409E40761E16403143F0BC01F0C2B87F
:101540000CED00E000F00701054A10684FF6FF03BC
:10155000184040EA0120034908431060704700002A
:101560000CED00E00000FA052DE9F04704460D46B9
:10157000002C17D0DFF83081D8F8000000F0070009
:10158000A84211D2D8F8000020F007002843C8F87C
:101590000000D8F8000000F00700A84204D00120A5
:1015A000BDE8F0870120FBE72068404E810712D597
:1015B000400703D5706840F4E06070602078000751
:1015C00003D5706840F4605070607068A16820F0C6
:1015D000F000084370602078C0072CD060680128B4
:1015E00006D0022809D0316889070BD40120D7E73B
:1015F0003168890306D40120D2E73168890101D41A
:101600000120CDE7716821F0030101437160FFF70C
:101610000BFF074641F2883906E0FFF705FFC01BC4
:10162000484501D90320BBE77068616800F00C00F1
:10163000B0EB810FF1D1D8F8000000F00700A8420C
:101640000ED9D8F8000020F007002843C8F80000A1
:10165000D8F8000000F00700A84201D001209FE761
:101660002078400705D57068E16820F4E060084301
:1016700070602078000706D57068216920F46050FA
:1016800040EAC100706000F03FF87168084AC1F399
:101690000311515CC8400749086007480068FFF71C
:1016A000E3FE00207CE70000002002400010024022
:1016B000F254000850000020480000200148006853
:1016C000704700005000002000B5FFF7F7FF044905
:1016D0004968044AC1F30221515CC84000BD0000C2
:1016E000001002400255000800B5FFF7E7FF04496B
:1016F0004968044AC1F3C221515CC84000BD0000E2
:1017000000100240025500080E4B59680E4801F0C7
:101710000C02042A11D0082A0FD10C48C1F38342CD
:10172000805CC9030AD55968084AC1F34041921E3A
:10173000515C054A5043B0FBF1F0704704494843FF
:10174000704700000010024000127A00E2540008C6
:1017500000093D002DE9F84F0446002C0ED02078FA
:10176000D94DC0075ED06868C0F3810001280BD056
:101770006868C0F38100022803D00CE00120BDE8B6
:10178000F88F6868C00306D5286880034AD560686A
:10179000A8BB0120F3E76068B0F5803F11D0A8B185
:1017A000B0F5A02F1BD0286820F48030286028686E
:1017B00020F480202860606830B3FFF735FE0646CD
:1017C0001EE0286840F480302860F4E7286820F4A0
:1017D00080302860286820F480202860EBE72868A3
:1017E00040F480202860286840F480302860E2E7D8
:1017F000FFF71AFE801B642802D90320BFE711E01F
:1018000028688003F4D50DE0FFF70EFE064606E0DB
:10181000FFF70AFE801B642801D90320AFE7286880
:101820008003F5D42078DFF8A48280074FF0010A06
:101830004FF0000945D5686810F00C0F07D06868B4
:10184000C0F38100022812D16868C0030FD4286851
:10185000800704D52069012801D001208FE728687E
:10186000616920F0F80040EAC100286029E02069A1
:10187000B8B1C8F800A0FFF7D7FD064606E0FFF7AD
:10188000D3FD801B022801D9032078E72868800750
:10189000F5D52868616920F0F80040EAC1002860A9
:1018A0000FE0C8F80090FFF7BFFD064606E0FFF71F
:1018B000BBFD801B022801D9032060E72868800750
:1018C000F5D42078000726D58148A16999B1C0F8E0
:1018D00000A0FFF7A9FD064606E0FFF7A5FD801B67
:1018E000022801D903204AE7686A8007F5D501205C
:1018F00000F098FC0FE0C0F80090FFF795FD064659
:1019000006E0FFF791FD801B022801D9032036E78E
:10191000686A8007F5D42078400773D50026E86907
:10192000C00008D4E86940F08050E861E86900F040
:10193000805000900126DFF89CB1DBF80000C00564
:1019400014D4DBF8000040F48070CBF80000FFF7FF
:101950006BFD074606E0FFF767FDC01B642801D951
:1019600003200CE7DBF80000C005F4D5E06801288F
:1019700012D0B0B105281DD0286A20F001002862DD
:10198000286A20F004002862E06841F2883B28B30E
:10199000FFF74AFD07461DE0286A40F00100286273
:1019A000F2E7286A20F001002862286A20F004008B
:1019B0002862E9E7286A40F004002862286A40F0BB
:1019C00001002862E0E7FFF72FFDC01B584501D951
:1019D0000320D4E6286A8007F5D50DE0FFF724FD43
:1019E000074606E0FFF720FDC01B584501D903203C
:1019F000C5E6286A8007F5D4012E03D1E86920F0F6
:101A00008050E861E069A0B36968C1F381010229EF
:101A100046D0022805D0C8F86090FFF705FD0446BF
:101A20003AE0C8F86090FFF7FFFC064606E0FFF7D3
:101A3000FBFC801B022801D90320A0E62868800156
:101A4000F5D4206AB0F5803F05D16868A16820F41C
:101A5000003008436860D4E908010843696821F44C
:101A6000741108436860C8F860A0FFF7DDFC044605
:101A700007E026E0FFF7D8FC001B022801D903206D
:101A80007DE628688001F5D51BE0FFF7CDFC001B43
:101A9000022801D9032072E628688001F5D410E0FD
:101AA00001280CD06868226A00F48031914204D188
:101AB000616A00F47010884203D001205FE60120C3
:101AC0005DE600205BE6000000100240000042429C
:101AD000800442420070004010B5401EB0F1807F8B
:101AE00001D3012010BD4FF0E02460610F21601789
:101AF00000F0E8FD0020A06107202061002010BD5B
:101B000070B590F83C20012A25D0012680F83C6071
:101B1000022280F83D2002685468936824F0700522
:101B20000C682C4354600D4C0268A24208D0B2F1FC
:101B3000804F05D00A4CA24202D00A4CA24204D1E6
:101B400023F080034968194391603C3046700021BE
:101B50000170002070BD022070BD0000002C01400B
:101B6000000400400008004010B50446002C03D0DB
:101B700094F83D0010B107E0012010BD002084F86A
:101B80003C00204600F016F8022084F83D00211D9C
:101B9000206800F08DFB01203D3460726070A07001
:101BA000E07020716071A071E071207220700020DF
:101BB00010BD000008B50068B0F1804F08D105489D
:101BC000C16941F00101C161C06900F001000090EC
:101BD00008BD00000010024070B50446002594F8CE
:101BE0003C00012817D0012684F83C60022084F8CC
:101BF0003D002068826822F0770222F47F428260F2
:101C00000868502838D00DDC202853D005DC90B36C
:101C1000102811D14EE0022070BD30284AD0402853
:101C20000AD13DE0602831D070280CD0B0F5805F3B
:101C300003D0B0F5005F12D001253C34667000205F
:101C40002070284670BDCB68D1E90121206800F0E2
:101C500078FB2068816841F077018160EDE7CB680F
:101C6000D1E90121206800F06CFB2068816841F413
:101C700080418160E1E71DE0CA684968206800F0A2
:101C800029FC5021206800F066FBD6E7CA68496845
:101C9000206800F030FC6021206800F05CFBCCE79D
:101CA000CA684968206800F015FC4021206800F0EF
:101CB00052FBC2E722680146104600F04CFBBCE72D
:101CC00000B585B000210191029103910491006853
:101CD000B0F1804F11D10A48816941F0040181615E
:101CE000806900F0040000900F2001900220029013
:101CF000049001A90348FFF78FFA05B000BD00006A
:101D0000001002400008014070B504460D46002650
:101D100094F83C0001280FD0012084F83C006AB1FF
:101D2000042A1FD0082A32D00C2A44D001260020D1
:101D300084F83C00304670BD022070BD2946206802
:101D400000F012FB2068816941F008018161206880
:101D5000816921F004018161206881692A69114348
:101D60008161E4E72946206800F02EFB2068816944
:101D700041F4006181612068816921F480618161A1
:101D8000206881692A6941EA02218161CFE72946F9
:101D9000206800F04BFB2068C16941F00801C16177
:101DA0002068C16921F00401C1612068C1692A6904
:101DB0001143C161BBE72946206800F067FB20683A
:101DC000C16941F40061C1612068C16921F4806189
:101DD000C1612068C1692A6941EA0221C161A6E79F
:101DE00010B50446002C03D094F83D0010B107E074
:101DF000012010BD002084F83C00204600F015F8BA
:101E0000022084F83D00211D206800F051FA0120D5
:101E10003D3460726070A070E07020716071A071DC
:101E2000E07120722070002010BD704710B504468C
:101E3000002909D004290AD008290BD094F84100C0
:101E400001280AD0012010BD94F83E00F8E794F86C
:101E50003F00F5E794F84000F2E7022039B3042987
:101E600028D0082929D084F841000122206800F0F8
:101E70005BFA16492068884203D1426C42F4004262
:101E800042642068884208D0B0F1804F05D01049E4
:101E9000884202D00F49884212D1816801F00701BF
:101EA000062911D0016841F0010101600CE084F8BD
:101EB0003E00DAE784F83F00D7E784F84000D4E733
:101EC000016841F001010160002010BD002C0140BB
:101ED000000400400008004070B50446002C04D007
:101EE00094F84100002510B106E0012070BD84F88F
:101EF0004050204600F024F8242084F84100206857
:101F0000C16821F40051C160204600F02DFB20681B
:101F1000016921F4904101612068416921F02A01A1
:101F200041612068C16841F40051C16065642020AE
:101F300084F8410084F842006563002070BD000011
:101F400030B585B000240194029403940494006891
:101F50001449884224D11448816941F48041816147
:101F6000816901F480410091816941F0040181613E
:101F7000806900F0040000904FF40070019002208E
:101F8000029003200490094D01A92846FFF744F967
:101F9000291501910294039401A92846FFF73CF901
:101FA00005B030BD0038014000100240000801407B
:101FB0002DE9F84304460E4615461F4694F84100A5
:101FC000202802D00220BDE8F8837EB175B1002040
:101FD0006064212084F84100FFF726FA8146A58439
:101FE000E584A068B0F5805F02D003E00120EAE755
:101FF000206920B1354600264FF0200815E0002565
:10200000FAE74B46002280212046009700F008FBAB
:1020100018B184F841800320D5E7ADB1216815F8E7
:10202000010B4860E08C401EE084E08C0028E8D181
:102030004B46002240212046009700F0F1FA50B1B3
:1020400084F841800320BEE736F8020B2168C0F314
:1020500008004860E6E784F841800020B3E7FEE727
:1020600010B510480E4901600221416000218160D5
:10207000C1604FF4502202614FF4001242610176B8
:10208000012242768176C27601774177FEF744FFDE
:10209000002803D0BDE81040FEF79DBC10BD000035
:1020A000006400400415002070B586B0002402943E
:1020B0000394049405941648816941F010018161EC
:1020C000816901F010010191816941F02001816174
:1020D000816901F020010191816941F00401816170
:1020E000806900F0040001900A4E4FF40055002270
:1020F00029463046FFF790F9029501210391049497
:102100000221059102A93046FFF786F806B070BD9E
:10211000001002400010014010B58EB000240A9457
:102120000B940C940D94089409941C2101A8FEF7BB
:1021300033F82B484FF080410160472141608460B3
:1021400040F2CF71C16004618461FFF70DFD08B1F9
:10215000FEF741FC4FF480500A900AA92048FFF78F
:102160003BFD08B1FEF737FC1D48FFF739FE08B10B
:10217000FEF731FC0894099408A91948FFF7C0FC40
:1021800008B1FEF728FC6020019040F2E730029091
:1021900003940594002201A91148FFF7B5FD08B189
:1021A000FEF719FC042201A90D48FFF7ADFD08B1A7
:1021B000FEF711FC082201A90948FFF7A5FD08B1A7
:1021C000FEF709FC0C2201A90548FFF79DFD08B1A7
:1021D000FEF701FC0248FFF773FD0EB010BD0000D2
:1021E0002C15002010B50C480A4901604FF4E1316C
:1021F000416000218160C16001610C224261816106
:10220000C161FFF769FE002803D0BDE81040FEF76A
:10221000E2BB10BD0038014074150020FEE7FEE768
:102220007047000008B507494FF4FA520968B1FB3E
:10223000F2F14143009100BF0098411E0091FAD293
:1022400008BD0000500000207047FFF7F3B830B51C
:102250008FB0282105A8FDF79FFF14216846FDF7E0
:102260009BFF012105910804069000240794099121
:1022700002250C950D904FF4E0100E9005A8FFF785
:1022800069FA08B1FEF7A7FB0F20009001950294B0
:102290004FF480600390049402216846FFF764F9CC
:1022A000002801D0FEF797FB0FB030BD704700004B
:1022B000F0B50268194C1A4D1A4E4FF08047A042F3
:1022C00005D0B84203D0A84201D0B04203D122F0D9
:1022D00070034A681A43A04205D0B84203D0A8420E
:1022E00001D0B04203D122F44073CA681A434B694B
:1022F00022F080021A4302608A68C2620A6882621F
:10230000A04201D109690163012141610169C90745
:1023100003D0016921F001010161F0BD002C0140F1
:10232000000400400008004010B501F01F01012327
:102330008B40046A9C430462036A8A40134303622D
:1023400010BD10B5846824F47F4442EA03220A4396
:102350002243826010BD826822F070020A4342F07C
:10236000070181607047000030B5026A036A23F0FC
:10237000010303624368846924F0700424F00305B8
:102380000C682C4322F002058A682A430D4DA842AE
:1023900006D122F00802CD6845EA020525F00402C4
:1023A00009D123F4807323F400734D6945EA0305D2
:1023B0008B6943EA050343608461496841630262B3
:1023C00030BD0000002C014030B5036A026A22F0E3
:1023D000100202624268846924F4E04424F44074E8
:1023E0000D6844EA052423F020038D6843EA0513B1
:1023F0000D4DA84206D123F08003CD6843EA0513B2
:1024000023F0400309D122F4806222F400624D6976
:1024100042EA85028D6942EA850242608461496828
:102420008163036230BD0000002C014030B5026AB8
:10243000036A23F4807303624368C46924F0700460
:1024400024F003050C682C4322F400728D6842EAE4
:1024500005220D4DA84206D122F40062CD6842EA61
:10246000052222F4806209D123F4805323F400531F
:102470004D6943EA05138D6943EA05134360C4615E
:102480004968C163026230BD002C014030B5036A67
:10249000026A22F4805202624268C46924F4E04471
:1024A00024F440740D6844EA052423F400538D6835
:1024B00043EA0533064DA84204D122F480424D6917
:1024C00042EA85124260C46149680164036230BD1A
:1024D000002C014010B5036A046A24F00104046270
:1024E000846924F0F00444EA021423F00A020A4347
:1024F0008461026210BD10B5036A046A24F01004FE
:102500000462846924F4704444EA023223F0A00394
:1025100043EA01118261016210BD01680C3151E88A
:10252000002F22F4907241E80023002BF5D10168BE
:10253000143151E8002F22F0010241E80023002B62
:10254000F5D1016B012909D101680C3151E8002F47
:1025500022F0100241E80023002BF5D1202180F861
:10256000421000210163704770B50446206801697C
:10257000E26821F4405111430161A16820690143DF
:10258000606901432068C26841F20C639A430A43C0
:10259000C26020684169A26921F440711143416120
:1025A0001E492068884202D1FFF79EF801E0FFF73C
:1025B0008BF800EBC00101EB001061686422890018
:1025C000B0FBF1F3B3FBF2F36FF018067343B0FB0B
:1025D000F1F5B0FBF1F605EB8305322303EB0515AE
:1025E000B5FBF2F5B6FBF2F605F0F00505EB0615C6
:1025F000B0FBF1F6B0FBF1F0B0FBF2F06FF01801B8
:10260000484306EB800003EB0010B0FBF2F02168BA
:1026100000F00F002844886070BD000000380140C1
:102620002DE9F84304460D4617469846089E25E0D6
:10263000701C23D0FEF7F8FEA0EB0800B0421BD8B8
:10264000D6B12068C168490718D5802D16D0402D15
:1026500014D00168C943090710D40025216809680E
:10266000406800902046FFF758FF0820606484F817
:1026700040500120BDE8F8830320FBE72068006894
:1026800035EA000004D00020B842D1D00020F1E7A4
:102690000120F9E70148FEF741BB000004150020C6
:1026A000FEE700000FB4054B10B503A9044A0298D9
:1026B00000F0EAF810BC5DF814FB00002D3F0008A4
:1026C000540000200907090E002804DB00F1E02077
:1026D00080F80014704700F00F0000F1E02080F84F
:1026E000141D704702E008C8121F08C1002AFAD161
:1026F00070477047002001E001C1121F002AFBD182
:10270000704700002DE9FF5F82B00021DDE9043051
:10271000020DDDF840B0034318D044F61050A2F289
:10272000FF3242431514119801281FD0A5EB0B006E
:10273000401C5FEA000A4FF000064E4FDFF8389168
:10274000B046504615D5CAF1000413E01198012493
:102750004AA3012801D16FEA0B010298119AC0E93E
:102760000031C0E9024206B0BDE8F09FCBF10000A5
:10277000DFE704460021404A491842EB0450CDE906
:10278000001012E0E00707D032463B46404649467B
:10279000FDF78DFF8046894632463B461046194676
:1027A000FDF785FF06460F466410002CEAD1DDE9EF
:1027B0000401DDE90023BAF1000F06DAFDF777FF27
:1027C00042464B46FDF773FF05E0FDF7E2FF424648
:1027D0004B46FDF7DEFF04460E460022284BFEF76F
:1027E0005FF803D84FF0FF30014607E00022254B89
:1027F00020463146FDF7B4FEFEF73AF8102409E012
:10280000002C0ADB0A220023FDF742FE039B303234
:102810001A55641E50EA0102F2D1641C039AC4F1F5
:1028200011031444119A012A03D0012208430DD147
:102830000AE0084304D000204FF0110B119072E71A
:10284000A3EB0B056D1E0DE05B4504DD4FF00002B0
:1028500005F1010504E003DA4FF00002A5F10105DE
:10286000002AECD002981199C0E90231C0E9004574
:1028700079E70000000014400000F03F3000000045
:102880000000F0430000E03F2DE9FF4F95B09A466D
:10289000884606460025EEE1252877D10024274604
:1028A000F94A0121039400E0044316F8013F203B5C
:1028B00001FA03F01042F7D130782A2811D06FF0D6
:1028C0002F033078A0F13002092A16D8039A44F079
:1028D000020402EB820203EB42021044761C0390D6
:1028E000EFE758F8042B0392002A03DA504244F42D
:1028F0000054039044F00204761C30782E2816D140
:1029000016F8010F44F004042A280DD06FF02F02AE
:102910003078A0F13003092B09D807EB870302EBCD
:102920004303C718761CF3E758F8047B761C30780D
:102930006C280FD006DC4C2817D068280DD06A28E8
:1029400014D104E0742810D07A280FD10DE044F49B
:1029500000140AE044F4801401E044F44014727856
:10296000824202D104F58014761C761C30786628E9
:102970000BD013DC582877D009DC002875D0452807
:10298000F6D04628F4D047281AD193E118E06328FE
:1029900035D0642879D0652812D18BE1702873D0A6
:1029A00008DC6728F1D069286FD06E280DD06F2819
:1029B00006D1ACE073282CD0752874D0782853D079
:1029C0005246179990476D1C54E1C4F302500228F7
:1029D00009D003280DD0D8F8001004280DD00D60C0
:1029E00008F1040846E1D8F80010EA17C1E90052DE
:1029F000F6E7D8F800100D80F2E70D70F0E718F850
:102A0000041B8DF8001000208DF80100EB4601201A
:102A100003E058F804BB4FF0FF3061074FF00001AE
:102A200002D40DE009F101018946B9420FDA81456E
:102A3000F8DB1BF809100029F4D108E009F10101C5
:102A400089468142FADB1BF809100029F6D1039868
:102A50005346A0EB090721463846179A00F080FA42
:102A6000284400EB090507E044E008E10DE01BF80D
:102A7000010B524617999047B9F10109F7D2534615
:102A800021463846179AF2E039E00A21C4F302528F
:102A90004FF0000B0091022A06D058F8040BC11722
:102AA000032A09D00AE023E008F1070020F007021A
:102AB000F2E80201904605E000B2C117042A01D1F4
:102AC00040B2C117002906DA0A460021404261EBF4
:102AD00002012D2202E0220504D52B228DF80420CC
:102AE000012203E0E20701D02022F7E7914657E0F8
:102AF0000A2100E010214FF0000B00910BE01021A3
:102B00004FF0000B44F004040827009103E0082074
:102B10004FF0000B0090C4F30252022A05D058F87F
:102B2000040B0021032A08D008E008F1070020F078
:102B30000702F2E80201904603E080B2042A00D1C5
:102B4000C0B24FF0000922072AD53278702A07D088
:102B5000DDF800C08CF0100C5CEA0B0C05D00EE028
:102B600040228DF80420012208E050EA010306D03B
:102B700030238DF804308DF8052002229146009B09
:102B800083F0080353EA0B030AD150EA010201D192
:102B9000620705D530228DF804204FF001097F1E11
:102BA0003278582A04D039A20C920CAA02920BE077
:102BB0003BA2F9E75B46009AFDF76AFC0C9B9B5C25
:102BC000029A521E0292137050EA0102F2D1029848
:102BD00004A9081A00F1200B600702D524F4803400
:102BE00000E001275F4502DDA7EB0B0000E00020BD
:102BF00000EB0B01009003984944401A0390E00356
:102C000006D453462146179A039800F0A9F90544C3
:102C1000002706E001A85246C05D179990476D1C39
:102C20007F1C4F45F6DBE0030CD553462146179A2F
:102C3000039800F095F9054404E0302052461799B6
:102C400090476D1C0099481E00900029F5DC08E0B3
:102C50000298029952460078491C029117999047B0
:102C60006D1CBBF10001ABF1010BF1DC5BE100F08D
:102C700065F90544761C307800287FF40DAE19B054
:102C80002846BDE8F08F00000928010030313233BA
:102C90003435363738396162636465660000000098
:102CA0003031323334353637383941424344454682
:102CB00000000000600700D4062708F1070020F09C
:102CC0000700F0E80223804603F0004C5FEA0C00A6
:102CD00001D097A009E0200501D596A005E0E00706
:102CE00001D095A001E0AFF24C001390307823F0B2
:102CF000004365280CD006DC452809D046281DD0A5
:102D000047287FD13BE0662818D067287AD136E083
:102D10000021112F01DB112000E0781CCDE900011A
:102D200004A90CA8FFF7EEFCDDE90D010C9A4FF0A9
:102D3000000B07F10109109200914EE04FF00040A6
:102D40000097CDE9011004A90CA8FFF7DBFCDDE931
:102D50000D020C9B0F994FF0000B914610930092BF
:102D600011B9791C00EB0109B7EB090003D4C0F1DC
:102D7000FF3B07F10109A9EB0700019042E0012F99
:102D800000DA01270021112F01DD112000E0384673
:102D9000CDE9000104A90CA8FFF7B4FCDDE90D01A1
:102DA0000C9A00914FF0000BB946109221070FD4F6
:102DB000009A4A4503DA914601E0A9F10109B9F107
:102DC000010F05DD109AA9F10101515C3029F4D001
:102DD000B84202DA10F1040F03DA0121CDE9011043
:102DE00010E0002803DC8344A9EB000102E0411C51
:102DF000494500DD8946A0EB0B00401C01904FF0D7
:102E000000400290200705D40198484502DB4FF0AE
:102E1000FF30019000208DF84B0002980DF14B0718
:102E2000B0F1004F25D002200C902B200D9002987D
:102E300000280CDA404202902D200D9007E00A2174
:102E40000298FDF70FFB3031029007F8011D0C9935
:102E5000481E0C900029F2DC02980028EFD1791E60
:102E60000D980870307800F0200040F0450007F819
:102E7000020D11A8C01BC01D02901398007800B16C
:102E8000012000EB0901019801EBE0710298014477
:102E90000398401A401E0390E00306D4534621468F
:102EA000179A039800F05CF805441398007818B15D
:102EB0005246179990476D1CE00323D5534621468F
:102EC000179A039800F04CF805441BE0BBF1000F83
:102ED00007DB0098584504DD1098179910F80B008F
:102EE00001E0179930205246904701980BF1010BF1
:102EF000401E05F10105019004D12E20524617997C
:102F000090476D1CB9F10001A9F10109DEDC05E073
:102F100017F8010B5246179990476D1C0299481EED
:102F200002900029F4DC53462146179A03989EE646
:102F30002D0000002B000000200000002DE9F041D2
:102F4000044600251E461746880404D405E0394689
:102F50002020B0476D1C641EF9D52846BDE8F081DD
:102F60002DE9F041044600251E469046C80301D5D0
:102F7000302700E02027880404D505E04146384684
:102F8000B0476D1C641EF9D52846BDE8F081426843
:102F9000002A0BD0116841604189491C89B24181E6
:102FA00083898B4200D28181104670470020704790
:102FB0002DE9FF5F884691461F460024D8F814008B
:102FC000C0F30940052809D11AE008EB000219F8FE
:102FD0000410D176401C80B2641CA4B2052801D232
:102FE000BC42F2D3BC420BD3D8F8140007EB10411B
:102FF00061F31940C8F81400012004B0BDE8F09F47
:10300000D8F814004FF01C0BC0F30940401FB0FB70
:10301000FBF10BFB110AD8F8041029B10126009826
:1030200000F0E1F8054613E0009800F0C1FD054608
:103030002946009800F0D9F8C8F8040015B14FF0FF
:10304000000A39E06FF00200D7E7761CB6B20546F9
:1030500028680028F9D1D8F81400C0F30940384492
:10306000401FB0FBFBF0401C80B2B04224D9BAF143
:10307000000F21D1009800F09BFD286008B10546A3
:103080001AE06FF00200B8E7564607E0A91919F8F0
:1030900004000871761CB6B2641CA4B21C2E01D2C6
:1030A000BC42F3D3BC4207D2009800F081FD2860F7
:1030B00070B105464FF0000ABC42E5D3D8F81400C1
:1030C00007EB104161F31940C8F81400012094E7A0
:1030D0006FF0020091E710B504464FF6FF70218CA7
:1030E000072909D9D4E9022300F04BFD228CE169BC
:1030F000BDE8104000F024BD10BD2DE9F04F8BB0AD
:1031000014AF064697E8800F14461D4628216846EE
:10311000FDF742F8CDE90245ADF81070CDF8148006
:103120008DF81890CDF81CA0ADF820B06946304657
:1031300000F003F80BB0BDE8F08F2DE9F041074631
:103140000C466FF00101E069002804D1208C10B119
:103150000846BDE8F081207E1F2801D90846F8E71F
:103160004FF6FF76384600F0E0F9D8B1384600F067
:10317000DCF9217E228A090641EA022140EA0105A2
:103180002046FFF7A8FF0646234632462946384622
:1031900000F0F7FD0546002D02DD606901F012F92F
:1031A0002846D6E7228C072A02D96FF00300D0E721
:1031B000208A800801D00846CBE73046E16900F05C
:1031C000BFFC47F6FE710140384600F0AEF9227EA2
:1031D000120642EA4121227C02F0030241EA022166
:1031E00040EA0105D0E708467047084670470000EE
:1031F0002DE9F0470546174698462E6A344605F1F4
:103200000C0933E0D4E902013A1A68EB0100194BCA
:1032100000219A1A814123D2286AA04210D1214666
:10322000284601F07BFC286A0168484600F03FFC14
:1032300028622146484600F085FE2C6A264615E0A5
:103240002146284601F06AFC206830602146484645
:1032500000F078FE4846316800F029FC044605E09D
:1032600026464846216800F022FC0446002CC9D1BD
:10327000BDE8F08780841E00FEB505460B48C16896
:1032800002910469019468040009FDF719F80646E3
:1032900000902146FDF7DCF802D846F0FF40009090
:1032A000009805F4004140EA0140FEBDB454000816
:1032B0002DE9FC5F06460C9D144698466FF0010010
:1032C000002E18D0002D16D0A4F1010ABAF1400F3B
:1032D00011D2012C02D1B8F1000F0CD100200090C6
:1032E00001906B462246304600F0ACFC8146B9F1B5
:1032F000000F02DC4846BDE8FC9F600708D0684626
:1033000000EBD4006242017802F00702D140017064
:103310006FF0080B012C03D0082C03D801260CE019
:1033200001260AE0102C01D8022606E0202C01D844
:10333000042602E0402C1ED8082601F05FF818B1E0
:103340003146684601F0EAFCB8F1000F43D0B4EB17
:10335000C60F40D0601E012101FA00F0A140491EB5
:10336000C943082C09D89DF80020024233D00A43F3
:103370008DF800202FE05846BDE7102C07D8BDF887
:103380000020024227D00A43ADF8002023E0202C81
:1033900005D8009A02421ED00A4300921BE0402C3E
:1033A00022D2DDE90067524601200021FCF7BCFE75
:1033B000304007EA010210430DD0224601200021CF
:1033C000FCF7B2FE401E41F1FF32C1430E4367EAF3
:1033D0000207CDE90067B8F1000F1AD0082C05D814
:1033E0009DF80000287030E0584684E7102C03D880
:1033F000BDF80000288028E0202C02D80098286022
:1034000023E0402C03D8DDE9000103C51DE0584648
:1034100071E7012C05D0082C07D89DF80000287012
:1034200013E09DF8000028700FE0102C03D8BDF8C1
:103430000000288009E0202C02D80098286004E0D1
:10344000402C04D8DDE9000103C5484653E758463F
:1034500051E710B5044688B00846217C002916D1F2
:1034600001A90091818A6B4605AA01F01BFE002884
:103470000DDB9DF8182021460798FCF7ADFE0028CB
:1034800005D19DF81400411E7E2900D8207408B093
:1034900010BD2DE9FF4107460E461446402C00D9C9
:1034A000402404B901240021029103910025012C3C
:1034B00006D0082C0BD8012518788DF8080019E0E3
:1034C0000125187800B101208DF8080012E0102CB9
:1034D00004D802251888ADF808000BE0202C03D88A
:1034E00004251868029005E0402C03D8082503CB7A
:1034F000CDE9020100F082FF18B1294602A801F0CF
:103500000DFC600708D002A800EBD40162420878E5
:1035100002F00702904008703B462246002102A8B4
:10352000009600F0D3FABDE8FF81007870470000F4
:103530002DE9FF5F94B00D4616461F46286800F03F
:10354000D9FC8146B9F1020F18D02888C0F30623B0
:103550002868002814DA410012D4800010D4287B97
:1035600070B1B9F1020F0ED01498FFF7DEFF984248
:1035700009D06FF00A0018B0BDE8F09F0023E7E71C
:103580006FF00900F7E72868C0F30461119100F0BB
:103590007F0A00F09EFC1090109840EA094040EA33
:1035A0008A4040EA436B297BE81C11F80080002127
:1035B0000E910F915FEAD81014D0CDF800A01498A6
:1035C0004B460EA94468109AA04740B1594614983A
:1035D00001F0B1FB044620000BD1C01ECBE76FF019
:1035E0000B00C8E75946149800F090FC04462000F0
:1035F00010D0D4E9020150EA01021AD000220D9243
:10360000321A67EB0100D74B00219A1A814112D27E
:10361000012011E0CDF800A014984B460EA9446893
:10362000109AA04710B16FF00C00A4E76FF00B00E8
:10363000A1E70122E3E700200C90687BA17E88428D
:1036400001D1012000E000200B904FEAD81B08F0C8
:103650001F0113916069C0F3846000F031FA012802
:1036600001DD012000E000200A90D4E90201321AB5
:1036700067EB0100BC4B00219A1A814101D2012065
:1036800000E0002009906069C0F38461139800F0A5
:1036900017FA102801DA012000E00020616801B16A
:1036A0000121DDE90C321A430BD10B9A0A9B02EA85
:1036B0000B020B431A4204D1099901EA0B010142A2
:1036C00001D0012000E0002078B11399606961F316
:1036D0009E6020F0004060612146149801F01EFABF
:1036E000687BA0765FEAD81005D0687BA17E88420F
:1036F0000CD000203FE760694FF0006101EBF070F3
:103700004FEA700060616FF00C0034E75FEAD81098
:1037100027D05FEA486024D5C4E9026720216846C3
:10372000FCF73AFDCDE90067281D0290287B401E7A
:10373000C0B2ADF814001098ADF816008DF81890CE
:1037400013988DF8190011988DF81A008DF81BA0A8
:103750001498694682689047204600F0CFFF002009
:1037600009E76069C8F34011B1EBD07F02D06FF078
:103770000D0000E71399C0F38462914202D06FF00C
:103780000E00F8E614995FEAD81201F10C011291CB
:1037900037D05FEA486134D4297B032902D86FF01F
:1037A0000F00E8E6C4E90267704908406061287BC1
:1037B000AA1DC01EC3B221461298FFF7F9FB0028CC
:1037C00009DA2146149801F0A9F9204600F096FF85
:1037D0006FF00200CFE62879697940EA0120208362
:1037E000DDE90E234FF6FF7000F0CBF9A082287BB5
:1037F000A91DC01EC2B2A08A80B200F0A1F9A082A9
:103800002DE008F0400050EAD8100BD0287B401E75
:1038100000F0FF0B4FF000086069C0F30940052875
:1038200030D334E0287B2A1D401EC3B221461298B3
:10383000FFF7BEFB002809DA2146149801F06EF963
:10384000204600F05BFF6FF0020094E6287B291D04
:10385000401EC2B2A08A80B200F072F9A0826069F4
:10386000012101EBE07161F3DF706061002082E60D
:1038700005EB080122180979D176401C08F10108EE
:1038800008F0FF08052823D2D845F1D320E061686D
:103890001298FFF7A8FC0146080019D0052001E0A6
:1038A00011461C300A68002AFAD16269C2F3094243
:1038B000101A09E005EB08020B1812791A71401C66
:1038C00008F1010808F0FF081C2801D2D845F1D3FF
:1038D000CDE9006704F11B00029061681298FFF7C0
:1038E00082FC0390D84501D3002002E005EB0800DC
:1038F000001D04906069C0F309405844ADF81400FD
:103900001098ADF816008DF8189013988DF81900DE
:1039100011988DF81A008DF81BA0002060602A7B9A
:10392000A08A521E80B2291D00F00AF9A082A08A46
:10393000218B80B2884203D11498694682689047EF
:103940006946149800F044F8204600F0D7FEA08A9B
:10395000218B80B2884201D100200CE66FF010006C
:1039600009E6000080841E0040420F00FFFF00FCBB
:103970002DE9F0470446DDE908890D4616461F4645
:103980002C212046FCF708FC00202070A760C4F81A
:10399000048020626062C4F828907009B0F5803F0E
:1039A00001D34FF6FF7082B2294604F10C00BDE846
:1039B000F04700F010BD406A002801D0001D70479C
:1039C00000207047416A0A6842620C3000F0BABABF
:1039D00070B50C4600F10C0604E00D68304600F0AE
:1039E000B1FAE560E1680029F7D10020A06020610C
:1039F000A08270BD2DE9F0418AB010ADDDE914C898
:103A0000E0CD139C012C13D000248DF80040CDE9AB
:103A10000223ADF8105005968DF81870CDF81CC033
:103A2000ADF820806A4600F005F80AB0BDE8F081E4
:103A30000124EAE770B5064614466FF00102E0691A
:103A4000002803D1208C08B1104670BD207E1F28AD
:103A500001D9104670BD3046FFF767FDF8B130461A
:103A6000FFF763FD227E238A120642EA034223788F
:103A700042EAC33242EA0121084340F08005204671
:103A8000FFF729FB024623462946304600F079F924
:103A90000546002D09DD2078012803D005E06FF0F0
:103AA000030070BD606900F08DFC284670BD0846BB
:103AB0007047084670474A1E7E2A00D8017070473A
:103AC000401A002801DA203000B270472DE9F04199
:103AD000069C00EBD10603EBD40701F0070004F0CD
:103AE000070300EB020C27E000F0070403F00701D6
:103AF0008C4201D9254600E00D46ACEB0002C5F131
:103B00000805AA4200D32A464FF47F45D540EDB2BE
:103B1000CD4006EBD00898F8008008FA04F828FA9F
:103B200001F807EBD30108EA05080C78AC4344EA36
:103B300008040C70104413448445D5D1BDE8F081CD
:103B400070B50C46154603E014F8011B00F004F8AC
:103B50006D1E691CF8D170BD10B580EA01200021EE
:103B600041F221034FF6FF72040403D502EA40003C
:103B7000584001E002EA4000491CC9B20829F3D3C9
:103B800010BD2DE9F041074615461E460024224689
:103B900028463146FCF7D7FAC1B23846FFF7DCFFBA
:103BA00007460834A4B2402CF1D33846BDE8F08172
:103BB00010B5FFF7ECF910B10021016010BD002035
:103BC00010BD30B589B005460C4620216846FCF78B
:103BD000E3FA04942846FFF7DAF904463CB12022C0
:103BE00069462046FCF7BFFA204609B030BD0020E8
:103BF000FBE710B5FFF7CBF904462CB114212046A2
:103C0000FCF7CAFA204610BD002010BD082802D9D2
:103C10000C2801D809207047102801D80A207047C5
:103C2000142801D80B207047182801D80C207047A1
:103C3000202801D80D207047302801D80E20704769
:103C40000F2070472DE9FF4F83B08346BBF8140067
:103C5000B1EBC00F03D3002007B0BDE8F08F059A89
:103C60000A44B2EBC00F03D9C1EBC000C0B205904B
:103C7000DBF80C00002210B9DBF81000F0B30C46A2
:103C80004FF00008059D282C12D2C4F12800A8424C
:103C900000D9284600F0FF080092DBF808004246F1
:103CA0002146069BFFF712FF4444A5EB0800C5B26E
:103CB000BBF814006FF0270101EBC00A2826DBF8DF
:103CC0000C9028E0BAF1E00F01D9E02000E0504666
:103CD0008719A74219D9381BA84200D92846C0B273
:103CE0000290A11BCDF8008009F10400069B029A06
:103CF000FFF7ECFE02980444029800E01CE0404408
:103D000000F0FF080298281AC5B2B81BAAEB000AF7
:103D10003E46D9F80090B9F1000F01D0002DD1D165
:103D2000DBF8100078B175B1A11BCDF800802A46F0
:103D3000069BFFF7CBFE06E00092DBF80800DDE90A
:103D40000523FFF7C3FE059886E708280CD9092844
:103D50000BD00A280BD00B280BD00C280BD00D2829
:103D60000BD00E280BD0402070470C20704710203D
:103D7000704714207047182070472020704730206B
:103D800070472DE9FF4F83B092461C466FF001004B
:103D90006269002A39D0228C12B1E369002B34D039
:103DA0004FF0000808200190039841F0004B0C30C0
:103DB0000290082A2CD20298FFF71BFF0546280024
:103DC00021D00830228C0646E169FCF7CCF9208C22
:103DD000401C80B2FFF71AFFFFF7B7FF401E208498
:103DE000401C28746069218C007800F01F0040F0AE
:103DF000C0008855C5F804B02946039800F04AFE73
:103E00004FF0010863E06FF0020007B0BDE8F08FEB
:103E1000002600274FF08009921C90B20721801DD8
:103E200090FBF1F080B203998A8AC98A511A89B24B
:103E3000814249D2F01EE8E70298FFF7DAFE054614
:103E4000280002D000201EB108E06FF00200DCE77D
:103E500085F808A04FEA1A20687202200199491ECD
:103E600007E0E2692B18925D1A72401C80B2761C42
:103E7000B6B2884202DA228CB242F2D8218CB14228
:103E800001D14FF04009401C80B2FFF7BFFEFFF7A1
:103E90005CFF401E80B2626949EA4711127802F065
:103EA0001F0211432A181172C5F804B0401C28746F
:103EB0002946039800F0EEFD08F101080FFA88F892
:103EC00087F001074FF00009208CB042B4D1404682
:103ED0009BE700B50246104600F00CF8022802D01D
:103EE000C2F3074000BDC2F30F205106FAD100F023
:103EF000030000BDC0F3C011002903D0000403D5A6
:103F000001207047022070470020704770B50546B9
:103F10000C46286A0C3506E00169A14205D001680B
:103F20002846FFF7C4FD0028F6D170BD13B54FF643
:103F3000FF73012269460248FEF73AF800981CBD5B
:103F40007415002042680A6041604189491E418120
:103F50007047000010B50848C06910F1FF4F02D249
:103F60004FF07C5101E04FF03F41FCF751F9BDE8C3
:103F70001040FCF702BA0000140000202DE9F041C7
:103F800098B080460D4627A0E97EFEF78BFB4821BE
:103F900006A8FCF701F90DF13A0000F09DFD01269D
:103FA0008DF8386000248DF839408DF828608DF840
:103FB00029408DF82A400B94FDF736FA4FF47A71B8
:103FC000B0FBF1F006908DF81C408DF81D4021A744
:103FD0003846FCF7ECF88DF854001697234906A8EC
:103FE00000F07BFF0746214AA97ECDE90342B8B223
:103FF000059005F11900CDE900600291E97E1C4AA7
:104000001C4B4046FFF7F6FC0146002905DC1AA0D0
:10401000FEF748FB18B0BDE8F08139461FA0FEF757
:1040200041FBF7E75B4765744E6F6465496E666FE9
:104030005D2052657175657374205265636569769C
:1040400065642066726F6D204E6F64652025640D77
:104050000A0000006F72672E6172647570696C6F80
:10406000742E63616E746F70776D000058000020CD
:104070009E6AC421818A46EE5B4765744E6F646513
:10408000496E666F5D205265706C79204661696C7F
:1040900065643A2025640D0A000000005B476574E2
:1040A0004E6F6465496E666F5D205265706C792055
:1040B000456E7175657565642C206C656E3D256C6B
:1040C000750D0A002DE9F04788B007460E46824874
:1040D0000790A0F12002B18A07AB304601F043F807
:1040E000002805DA7DA0FEF7DDFA08B0BDE8F0870C
:1040F000DFF8E4A1AAF1200A9AF8181029B17DA0EE
:10410000DAF81C20FEF7CEFA04E0BAF8001081A01D
:10411000FEF7C8FA00249AF81800DFF8149260B18C
:10412000002505EB45089AF8182059F83810DAF8F8
:104130001C00FCF75EF848B115E0BAF80000022850
:1041400014D200EB400009EBC0040FE059F838002E
:10415000FCF72DF89AF81810884204D105EB4500B9
:1041600009EBC00402E06D1C022DDADB002C4DD0FF
:104170009AF80800002849D0012804D0022808D065
:1041800003280AD011E0DAE90401FCF7E0F86060E6
:104190000BE0DAF81000606007E09AF8100010B148
:1041A0004FF07E5000E000206060D4E90101FCF790
:1041B00045F901D2A0686060E1686068FCF748F9E1
:1041C00001D2E06860606068FCF725F92568024666
:1041D0000B46294657A0FEF765FA5CA12068FBF75D
:1041E000EDFF98B96068FCF7E1F8C5B2681E7E285B
:1041F00008D829465848FFF75EFC294657A0FEF725
:1042000051FA03E029465DA0FEF74CFA32484821F6
:104210006030FBF7C1FF304D4FF000096035BCB393
:104220002068FBF7C4FF85F8400020686864207DA3
:10423000F0B14FF0010885F800806068FCF7CAF81B
:10424000C5E9020185F810802069FCF7C3F8C5E9CB
:10425000060185F83080A068FCF7BCF8C5E90E01BE
:1042600085F82080E068FCF7B5F8C5E90A0112E09E
:10427000022028706168A96028742169A96185F805
:104280003000A168A96385F82000E068A86202E018
:10429000FFE785F800901049A831A1F1480000F02F
:1042A000C1FF0D4AB17EA832CDE9039280B20291DE
:1042B000059006F119000B21CDE90010F17E384A76
:1042C000384B3846FFF796FB014600293FF70DAF04
:1042D00035A0FEF7E7F908E7F80100205B506172AE
:1042E000616D5D204465636F6465204661696C653E
:1042F000640D0A005B506172616D5D2052657175DD
:10430000657374204E616D653A20252E2A730D0A5F
:10431000000000005B506172616D5D205265717537
:1043200065737420496E6465783A2025640D0A002F
:10433000140000205B506172616D5D205365742034
:104340002573203D2025660D0A00000063616E5F25
:104350006E6F64655F696400B40400205B50617235
:10436000616D5D204170706C696564204E6F64659D
:10437000204944203D2025640D0A00005B506172F5
:10438000616D5D204E6F6465204944206F75742017
:104390006F662072616E67653A2025640D0A000021
:1043A000D5A4D139F922B6A75B506172616D5D2049
:1043B0005265706C79204661696C65643A202564A9
:1043C0000D0A00000178491CC9B20170202901D3EF
:1043D00000210170704730B500230161041D04E025
:1043E00001EB431525602C465B1C9342F8D300215A
:1043F0002160028141818181016030BD08B50120C9
:1044000000909DF80100012800D0002008BD30B5C3
:10441000044621F0604224F06043CD0FE00F854256
:104420000CD005B1920C00B19B0C9A4202D002D282
:104430004FF0010030BD4FF0000030BDC1F380717E
:10444000C4F380709A4201D18142F6D19A4201D2DE
:10445000012030BD002030BD8CB00024FCF7F2FFFD
:10446000FDF7F5FEFDF720FEFDF7FAFDFDF754FE22
:10447000FDF7B8FE3D4800F02FFB3DA0FEF712F916
:1044800000253A4E3CA0715DFEF70CF96D1C102D15
:10449000F8DB3BA0FEF706F900213A48FDF7C6FC21
:1044A00004213848FDF7C2FC08213648FDF7BEFC60
:1044B0000C213448FDF7BAFC00253348CDE900054E
:1044C0003349324B4FF48052A1F12C00FFF750FAE0
:1044D0002F483C212C38FFF7EEFA0795089501206C
:1044E0000990029503950495059506950A900E206E
:1044F0000B9002A92748FCF7F3FA2648FCF747FE81
:1045000002212448FCF769FA234D4FF47A7600F033
:1045100099F9FCF789FFA968401AB0420CD31C48EE
:104520002C38FFF702F801461CA0FEF7BBF800F09C
:1045300081FAFCF779FFA860FCF776FF4FF47A71F7
:1045400000FB01F2124800232C38FEF751FE012037
:10455000FCF750FEB44206D34FF400511448FCF768
:1045600053FF0024D3E7641CA4B2D0E7F214002068
:104570005549443A20000000253032582000000000
:104580000D0A00002C150020594B0008B545000805
:10459000E004002004150020000000204D79204E8A
:1045A0006F64652049443A2025640D0A000000002C
:1045B000001001403EB505460C46E08A012802D1B4
:1045C000217E022902D0012805D007E021462A4891
:1045D000FEF73FFF48E0217E012919D00B281CD0AF
:1045E000A0F54071F23904D0A0F5806106391DD0E4
:1045F0003AE022480290A18A02AB214A204600F00C
:10460000B6FB014600290DDB1D4800F09BF82BE0AE
:1046100021462846FFF7B2FC26E021462846FFF750
:1046200051FD21E017A0FEF73DF81DE0134878305A
:1046300002900090A28AE17E17A0FEF733F8A18ACB
:104640006B4601AA204600F004FC0146002908DB65
:104650009DF8041017A0FEF725F801A800F050F906
:1046600002E01DA0FEF71EF803B021462846BDE873
:104670003040FFF7ADB90000E01400201404002022
:104680000C0000204465636F6465206661696C3AC4
:104690002025640D0A0000005B45534320526177DA
:1046A0005D207372633D2564206C656E3D25640D4D
:1046B0000A0000005B455343205261775D2064652A
:1046C000636F6465206F6B2C20636D645F6C656E37
:1046D0003D25640D0A000000455343205261774395
:1046E0006F6D6D616E64206465636F6465206661E3
:1046F000696C3A2025640D0A0000000041694FF002
:10470000006202EBF1714FEA7101034A114021F09E
:104710000041416170470000FFFF00FC70B5054695
:1047200005F10C000646FFF74CFA04463CB1304652
:10473000296AFFF7BEF920602C62204670BD002078
:1047400070BD00002DE9F84F074625A03978FDF728
:10475000A9FF00254FF47A794FF4FA6ADFF8AC80AC
:1047600039E0786800EBC5062949D6F804B0584608
:10477000FBF7A6FDFBF71AFE00F2DC5084B24C45B5
:1047800000D24C46544500D954465846FBF743FEE8
:10479000009496F800C002460B4661461DA0FDF746
:1047A00081FF307830B1012808D002280AD00328D0
:1047B0000FD10BE0D8F8000044630AE0D8F80000FD
:1047C000846306E0D8F80000C46302E0D8F8000073
:1047D00004646D1CEDB23878A842C2D8BDE8F88FE9
:1047E0005265636569766564204172726179436FD1
:1047F0006D6D616E64207769746820256420636F35
:104800006D6D616E64733A0D0A0000002C15002076
:104810000000FA4320202D204163747561746F728B
:104820002049443A2025642C2056616C75653A2055
:1048300025662C2050756C73653A202564207573AD
:104840000D0A000070B588B01E48FFF7B4F80546A1
:1048500034E018221C4902A8FBF785FC286820F0E8
:1048600060400390287B069000244FF47A7600E0A5
:10487000641C1648FCF73CFA08B9B442F8D301AB03
:104880002A1D02A91148FCF7BAF880B10F48FCF7BD
:10489000A4F904460D48FCF72BFA02460B480068C1
:1048A000836921460AA0FDF7FDFE08B070BD0548EA
:1048B000FFF788F80348FFF77EF80546002DC8D1BA
:1048C000F3E70000B4040020C854000804150020D9
:1048D00043414E205478204661696C2E2045727207
:1048E0003A20307825582C20467265654D423A2092
:1048F00025642C204553523A20307825580D0A0063
:104900002DE9FE4F074630A03978FDF7CBFEFFF7C3
:1049100021FB81460025DFF8DC804EE0786830F925
:1049200015A05046FBF70AFD6FF00C01FBF7FAFCEF
:10493000834631498B4500D98B464FF07E508345E5
:1049400000DD83462D495846FBF7BAFCFBF72EFDE8
:1049500000F2DC5084B24FF47A70844200D20446F4
:104960004FF4FA60844200D9044605EB0906584624
:10497000FBF751FD8DE8130053463246294620A02F
:10498000FDF790FE042E16D236B1012E08D0022E6D
:104990000AD0032E0FD10BE0D8F8000044630AE0E0
:1049A000D8F80000846306E0D8F80000C46302E091
:1049B000D8F8000004646D1CEDB23878A84201D923
:1049C000042DABD3BDE8FE8F5265636569766564DF
:1049D0002045534320526177436F6D6D616E6420B3
:1049E0007769746820256420656E74726965733A0E
:1049F0000D0A00002C150020000080BF0000FA43C3
:104A000020202D204553435B25645D3D3E434825D2
:104A10006C642072633D2564206E6F726D3D252E9F
:104A200033662070756C73653D25752075730D0AAE
:104A30000000000000B58BB0FCF7F6FC4FF47A7173
:104A4000B0FBF1F0089000208DF824008DF82500CF
:104A50008DF82600ADF8280006A908A800F0B7FADE
:104A60001822084BCDE9013280B206A9CDE9031026
:104A700040F255100090044A044B0548FEF73DFBF8
:104A80000BB000BD04000020F1C6A7C1D068080F1C
:104A9000B40400202DE9F04107460D467C6A002C45
:104AA00001D026460FE07D62BDE8F081786AA04221
:104AB00002D12C607D62F7E735602C60F4E7216855
:104AC00041B126460C4669686068FFF7A0FC0028E3
:104AD000F5D0EBE72560E7E7FEB505460E48002177
:104AE0006C4650F8212004F8212004EB8103160ABB
:104AF0005E70160C9E70120EDA70491CC9B2032942
:104B0000EFD310212846FBF747FB00982860019857
:104B100068600298A860FEBDE8F7FF1F70B50C46FC
:104B200000F10C060CE03046FEF75DFB01460D6817
:104B30003046FFF707FA29463046FEF756FB60601D
:104B400061680029EFD10349606908406061002075
:104B5000014670BDFFFF00FC2DE9F041DDF8188033
:104B60000D4614461E46012C01D00B2C05D14346A0
:104B70003246214633A0FDF795FD40F20647BC4280
:104B800004D14246314637A0FDF78CFD4048FEF780
:104B9000CCFCB8B1A4F54070F2380DD0BC4228D19D
:104BA000424631463BA0FDF77DFD46484449C5E9F4
:104BB00000100120BDE8F08144484349C5E90010D8
:104BC0000120F7E7012C01D1022E02D0012C06D0E2
:104BD00007E040483E49C5E900100120EAE7012E00
:104BE00001D00020E6E73D483B49C5E9001001201F
:104BF000E0E7012C01D1012E02D0012C06D007E004
:104C000036483549C5E900100120D3E7022E09D006
:104C10000B2C0DD043463246214631A0FDF742FD14
:104C20000020C7E72B482A49C5E900100120C1E749
:104C300033A0FDF737FD38483649C5E9001001209B
:104C4000B8E700004163636570743A2049443D252C
:104C50006420547970653D2564205372633D25645A
:104C60000D0A00005365656E20526177436F6D6DCC
:104C7000616E642049443D31303330205479706591
:104C80003D2564205372633D25640D0A0000000039
:104C9000B404002041636365707420526177436FF0
:104CA0006D6D616E642049443D313033302054795C
:104CB00070653D2564205372633D25640D0A000034
:104CC0001D95ECD7875C7F21F33AEC386248A7D872
:104CD000401DA12026812A0B9E6AC421818A46EEAE
:104CE00052656A6563743A2049443D2564205479CD
:104CF00070653D2564205372633D25640D0A0000F4
:104D000041636365707420506172616D20526571FA
:104D10000D0A0000D5A4D139F922B6A710B500229A
:104D2000491E05E0835C445C84544354521C491E74
:104D30008A42F7D310BD70B504460D46206A00289C
:104D40000BD029462046FFF7E1F800280CD1294670
:104D50002046BDE87040FFF7E1BC294604F10C0095
:104D6000FEF72FFF08B1206270BD002070BD38B57E
:104D7000002400251555641C082CFBD3009500F079
:104D800001F838BD2DE9F8438046089C16461F46B9
:104D90000025002907D0C4EBC100C11700EBD1608A
:104DA000400930700FE0002304222146404600965F
:104DB000FEF77EFA042805D0002801DB6FF008001A
:104DC000BDE8F883241D6FB1386870600AE0009474
:104DD00070683B4600EBC5020021404600F007F832
:104DE00004446D1C3078A842F1D82046E8E77CB531
:104DF0000646069D144600200190002308222946FD
:104E000030460094FEF754FA082815D10835601C86
:104E100000900023082229463046FEF749FA082868
:104E20000AD1083501A800900023102229463046F7
:104E3000FEF73EFA102804D0002801DB6FF00800CE
:104E40007CBDBDF80400FEF717FA606005F11000A4
:104E50007CBD38B5002400251555641C082CFBD3F7
:104E6000009500F001F838BD2DE9F8438046089D13
:104E700017461C460026002906D0C5EBC1000E21AE
:104E800090FBF1F0387009E00023052229464046E6
:104E90000097FEF70DFA05280FD16D1DC4B12068EB
:104EA000786015E094B12068009001230E22294615
:104EB0004046FEF7FDF90E2805D0002801DB6FF013
:104EC0000800BDE8F8832068801C20600E35761C41
:104ED0003878B042E6D82846F3E710B5002201231F
:104EE00000F003F8C01DC00810BD2DE9F0410546D3
:104EF0000F469846002400233946284600F06FF8F4
:104F000002460023394605F1100000F0A1F80246E0
:104F10000023394605F1200000F01DF80646B8F1DF
:104F2000000F11D105F13C03072231463846FEF748
:104F3000B0FAF61D08E0286C0822031931463846FD
:104F4000FEF7A7FA0836641C95F83C00A042F2D898
:104F50003046BDE8F0812DE9F04106460F46144683
:104F6000984600253346082221463846FEF791FA36
:104F70000834731C082221463846FEF78AFA0834A2
:104F800073199B1C082221463846FEF782FA083422
:104F90006D1C102DF4D3B8F1000F07D106F11403E6
:104FA000082221463846FEF774FA0834002508E046
:104FB000B0690822431921463846FEF76AFA0834D8
:104FC0006D1C307DA842F3D82046BDE8F08110B5B5
:104FD0000022012300F003F8C01DC00810BD70B509
:104FE00004460D4616462346202231462846FEF743
:104FF00050FA20362079032800D303202071231D86
:10500000022231462846FEF744FAB61C607907288A
:1050100000D307206071631D032231462846FEF746
:1050200038FAF61CA079072800D30720A071A31D29
:10503000032231462846FEF72CFAF61C04F1080339
:10504000102231462846FEF724FA06F1100070BD02
:1050500070B504460E4615462346082229463046BA
:10506000FEF717FA0835631C082229463046FEF77A
:1050700010FA0835A31C082229463046FEF709FA23
:105080000835231D202229463046FEF702FA203536
:1050900004F10803402229463046FEF7FAF940356C
:1050A000284670BD38B5002400251555641C0C2C0D
:1050B000FBD3009500F001F838BD2DE9F843804698
:1050C000089D894616461C460027002307222946CC
:1050D00040460096FEF7ECF8072830D1ED1D701C15
:1050E00000900023012229464046FEF7E1F80128FE
:1050F00025D16D1CB9F1000F07D0C5EBC900C11750
:1051000000EB5170C00830710AE0301D00900023A0
:10511000052229464046FEF7CBF805280FD16D1D24
:10512000C4B12068B06015E094B1206800900023FD
:10513000082229464046FEF7BBF8082805D000287B
:1051400001DB6FF00800BDE8F8832068401C206098
:1051500008357F1C3079B842E6D82846F3E7009836
:1051600070471046704738B5002400251555641C5B
:10517000202CFBD3009500F001F838BD2DE9F84351
:105180008046089C894616461D46002700230D22AE
:10519000214640460096FEF78BF80D2832D10D349B
:1051A0002B4606F1080249464046009400F0ADF84F
:1051B0000446200000D525E0B9F1000F07D0C4EB6C
:1051C000C900C11700EB5170C00830760BE006F142
:1051D000180000900023072221464046FEF768F899
:1051E00007280FD1E41DC5B12868F06115E095B11D
:1051F000286800900023082221464046FEF758F810
:10520000082805D0002801DB6FF00800BDE8F8830E
:105210002868401C286008347F1C307EB842E6D8DD
:105220002046F3E710B50022012300F003F8C01D6B
:10523000C00810BD2DE9F04105460F4698460024F0
:10524000521D00233946284600F0DEF8401D024674
:105250000023394605F1100000F0D6F8821D002326
:10526000394605F1200000F024F8821D002339465C
:1052700005F1300000F01DF80646B8F1000F11D11D
:1052800005F14003072231463846FEF702F9F61DC4
:1052900008E0686C0822031931463846FEF7F9F831
:1052A0000836641C95F84000A042F2D83046BDE8AC
:1052B000F08170B505460E4614462B460222214663
:1052C0003046FEF7E6F8A41C15F8080B20B10128BB
:1052D0000AD0022810D016E0002322463146284684
:1052E000FFF73FFF04460EE02B46402221463046A2
:1052F000FEF7CFF8403406E02B4620222146304608
:10530000FEF7C7F82034204670BD2DE9F8438146EA
:10531000089C884616461D46002700230322214686
:1053200048460096FDF7C4FF03285DD1E41C3078A1
:1053300006F1080240B1012811D002281AD0032832
:1053400023D004282CD05DE02B46414648460094EB
:10535000FFF705FF0446002C54DA204644E0009293
:105360000123402221464846FDF7A2FF40283BD1B9
:10537000403447E000920023202221464846FDF7B2
:1053800097FF202830D120343CE0009200230822EF
:1053900021464846FDF78CFF082825D1083431E026
:1053A000B8F1000F07D0C4EBC800C11700EB517073
:1053B000C008307209E000920023082221464846C6
:1053C000FDF776FF08280FD10834C5B12868F060D2
:1053D00015E095B128680090002308222146484630
:1053E000FDF766FF082805D0002801DB6FF00800F4
:1053F000BDE8F8832868401C286008347F1C307A98
:10540000B842E6D82046F3E72DE9F04106460F46BC
:105410001446984600253346032221463846FEF7B7
:1054200038F8E41C307806F1080C40B101280ED0A1
:10543000022814D003281AD0042820D036E00023F4
:10544000224639466046FFF78CFE04462EE063464E
:10545000402221463846FEF71CF8403426E06346D9
:10546000202221463846FEF714F820341EE0634619
:10547000082221463846FEF70CF8083416E0B8F149
:10548000000F10D16346082221463846FEF701F886
:10549000083408E0F0680822431921463846FDF731
:1054A000F8FF08346D1C307AA842F3D82046BDE8D6
:1054B000F08100000000807F0000800F0000800766
:1054C000000080770000804700000000000000001E
:1054D00004000000000000000000000000000000C8
:1054E000010202030405060708090A0B0C0D0E0F42
:1054F0001010000000000000000001020304060775
:1055000008090000000001020304000063616E5FEF
:105510006E6F64655F6964006163747561746F7256
:105520005F69645F6F666673657400004C550008C0
:105530000000002058000000E4260008A4550008E0
:105540005800002068350000F42600080000000024
:10555000000000000000000000000000000000004B
:105560000C550008000070420000803F0000FE4221
:105570000000704201000000185500080000000003
:1055800000000000000020410000000001000000B9
:1055900001000000100000000000000000127A006E
:0455A0000000000007
:04000005080000ED02
:00000001FF
