:020000040800F2
:100000000831002005010008031E0008451C0008F7
:10001000011E0008770700083522000800000000D4
:10002000000000000000000000000000071E0008A3
:100030007907000800000000051E0008091E0008DE
:100040001F0100081F0100081F0100081F01000810
:100050001F0100081F0100081F0100081F01000800
:100060001F0100081F0100081F0100081F010008F0
:100070001F0100081F0100081F0100081F010008E0
:100080001F0100081F0100081F0100081F010008D0
:10009000292200081F0100081F0100081F01000895
:1000A0001F0100081F0100081F0100081F010008B0
:1000B0001F0100081F0100081F0100081F010008A0
:1000C0001F0100081F0100081F0100081F01000890
:1000D0001F0100081F0100081F0100081F01000880
:1000E0001F0100081F0100081F010008DFF810D0E1
:1000F00000F0C0FA0048004749350008AFF300801F
:10010000083100200648804706480047FEE7FEE722
:10011000FEE7FEE7FEE7FEE7FEE7FEE7FEE7FEE7B7
:100120006B1E0008ED000008202A04DB203A00FACC
:1001300002F1002070479140C2F1200320FA03F33E
:10014000194390407047202A04DB203A21FA02F03C
:100150000021704721FA02F3D040C2F12002914001
:1001600008431946704740EA01039B0703D009E0A2
:1001700008C9121F08C0042AFAD203E011F8013B93
:1001800000F8013B521EF9D27047D2B201E000F8EC
:10019000012B491EFBD270470022F6E710B513462B
:1001A0000A4604461946FFF7F0FF204610BD80EAD4
:1001B000010210B502F00043400022D04A001FD0D7
:1001C000010E01EB1261C0F35600C2F3560240F477
:1001D000000042F40002A0FB022000047F39140456
:1001E00000D0401C50EA124001D44000491EC2B267
:1001F0000C0604EBD010401C4008802A02D003E01B
:10020000002010BD20F00100002900DA0020184372
:1002100010BD20F00040C10DC0F3160040F40000F6
:100220007F2901DA00207047962903DCC1F196018D
:10023000C840704796398840704700F0004230F05F
:1002400000400AD0C10D01F56071C0F3160042EA0A
:100250000151C20840071143704700200146704712
:10026000002801DBC0F10040002901DBC1F10041A1
:100270008842704730B50B460146002020220124F9
:1002800009E021FA02F59D4205D303FA02F5491B64
:1002900004FA02F52844151EA2F10102F1DC30BD7A
:1002A0002DE9F05F0546002092469B4688460646AB
:1002B000814640241BE02846414647462246FFF738
:1002C00042FF53465A46C01A914110D31146184670
:1002D0002246FFF729FF2D1A67EB01084F462246F9
:1002E00001200021FFF720FF17EB00094E41201EDF
:1002F000A4F10104DFDC484631462A464346BDE806
:10030000F09F2DE9FE4F804681EA0300C00F0C46A6
:10031000009021F0004123F00045B8EB0200A94114
:1003200005D24046214690461C460B46024623F025
:100330000040104347D0270DC7F30A00C3F30A510A
:100340000290401A019040286BDAC3F3130040F486
:10035000801B0098924620B10023D2EB030A63EB86
:100360000B0B01985946C0F140025046FFF7DCFEE6
:1003700006460D4650465946019A00F08DF910EB9D
:1003800008006141002487EA115284EAE7731A43A6
:1003900040D0009A62B3019A012A4FEA075215DC55
:1003A000001B61EB02014FF0004202EA0752CDE967
:1003B0000042001C41F5801132462B4600F08DF9B9
:1003C00003B0BDE8F08F40462146F9E7001B61EB22
:1003D0000201001C41F5801300185B412018A2F5B2
:1003E000001747EB030140EAD570B6196D4111E0E3
:1003F0006D084FEA360645EAC0754FEA0752001B02
:1004000061EB0201001C41F5801149084FEA300000
:100410000019514132462B4603B0BDE8F04F00F0C1
:100420004DB90098012240000023D0EB020263EB9B
:10043000E073009821464FEAE074B8EB000061EBEE
:100440000401E9E783F000435BE781F0004158E7EE
:100450002DE9FE4F81EA030404F0004421F000413D
:1004600000944FF0000B23F0004350EA01045ED0EB
:1004700052EA03045BD0C3F30A54C1F30A552C4477
:10048000A4F2F3340194A0FB0254C1F3130141F42C
:100490008011C3F3130343F4801301FB024400FBF8
:1004A000034E840A970A44EA815447EA8357A4FB1F
:1004B000076802958D0A05FB07854FEA932C04FB1C
:1004C0000C542705029D4FEA065847EA1637B5EB4C
:1004D00008056EEB070C870E920E47EA811742EA79
:1004E0008312A7FB0201B6EB0B0164EB00042B0D9A
:1004F00043EA0C335E1844EB1C50DA465146E7FBE6
:100500000201C5F313044FEA0B3343EA14534FEAD5
:100510000432019C43EA0603A4F10C040294009CFB
:10052000CDE900B400F0D9F803B0BDE8F08F0020A9
:100530000146F9E72DE9F04D81EA030404F0004B90
:1005400021F0004514464FF0000A23F0004150EA24
:10055000050220D054EA01021DD0C5F30A57024615
:10056000C5F31303C1F31300C1F30A5640F4801519
:1005700043F48013A7EB0608101BD64608F2FD389B
:1005800073EB050002D308F1010801E092185B410A
:10059000B8F1000F03DA00200146BDE8F08D00201D
:1005A0004FF48011064684460EE0171B73EB0507D7
:1005B00005D3121B63EB050306434CEA010C490803
:1005C0004FEA300092185B4150EA0107EDD152EA40
:1005D000030012D082EA040083EA0501084305D033
:1005E000101BAB4106D20122002306E000224FF08F
:1005F000004302E06FF0010253101AEB06004CEBCF
:10060000085110EB0A0041EB0B01BDE8F04D00F082
:1006100055B8C1F30A52C1F3130140F2FF3341F45C
:1006200080119A4202DA00200146704740F23343BB
:100630009A42A2F2334202DC5242FFF784BDFFF736
:1006400073BD000030B5041E71F1000404DB4FF0EF
:100650000044404264EB0101141E73F1000405DB09
:100660001C464FF00043524263EB0403994208BF1B
:10067000904230BD064C074D06E0E06840F00103B3
:1006800094E8070098471034AC42F6D3FFF732FDE8
:100690006C3900088C390008202A06DBCB17203A79
:1006A00041FA02F043EAE07306E041FA02F3D04077
:1006B000C2F12002914008431946704710B5141E3C
:1006C00073F1000408DA401C41F1000192185B410B
:1006D0001A4301D120F0010010BD2DE9F04D9246E2
:1006E0009B4611B1B1FA81F202E0B0FA80F22032F9
:1006F0009046FFF719FD04460F4640EA0A0041EA1A
:100700000B0153465A46084313D0114653EA0100E1
:1007100019D0C8F140025046FFF715FD05460E46B8
:10072000504659464246FFF7FFFC084305D00120DA
:1007300004E020463946BDE8F08D0020054346EA36
:10074000E0762C4337430A986305E40AA0EB0800DF
:100750000022FD0A44EA47540A3002D5002001462F
:10076000E9E7010510196941DDE90845001969410A
:10077000BDE8F04DA2E7FEE7704772B6FEE790F8DD
:100780002020012A07D0022A05D0416A41F48021A5
:10079000416201207047006842690A4342610020BB
:1007A0007047F0B590F820500468A468012D05D07A
:1007B000022D03D0416A41F4802157E014F0406FCC
:1007C00001D1E5004FD5C4F301640125A5401D60AA
:1007D0008D684FF4C0739DB1CE6835434E6845EACD
:1007E000C605066803EB0417F5514FF4C275076898
:1007F00005EB04150E697E51097D012905D009E03C
:100800000E88CD6845EA4655EBE701684E5946F437
:1008100080764E511179D579567941EA05619579FD
:100820002D0445EA062529434FF4C676056806EBF4
:100830000416A9511178D57841EA05619578527866
:100840002D0445EA022211434FF4C475026805EBFA
:1008500004155151006803EB0411425842F00102A3
:1008600042500020F0BD416A41F400114162012074
:10087000F0BD000010B590F820300268012B07D0C1
:10088000022B05D0416A41F480214162012010BD54
:10089000D2F8000240F00100C2F80002087D00F02A
:1008A0001F0301209840D2F81C328343C2F81C3247
:1008B000CB69B3B9D2F80C328343C2F80C328C89BD
:1008C0004B6864F31F434C6902EBC404C4F8403224
:1008D0000C890B6864F31F434C6902EBC404C4F831
:1008E0004432CB69012B16D1D2F80C320343C2F843
:1008F0000C320C884B6864F31F434C6902EBC40450
:10090000C4F840320C89CB6864F31F434C6902EB96
:10091000C404C4F844328B69002BD2F804320FD0DF
:1009200053EA0003C2F804320B69002BD2F81432E8
:1009300008D00343C2F81432096A012904D008E040
:100940008343EFE78343F5E7D2F81C120143C2F873
:100950001C12D2F8000220F00100C2F800020020B0
:1009600010BD704770B590F82040012C05D0022CC6
:1009700003D0416A41F4802128E0046809B3246966
:10098000A40720D04FF4D874056804EB01142D5946
:1009900015F00405956005682D591AD0ED085560CD
:1009A00005682C5904F00204D4604FF4DA74056829
:1009B00004EB01142E5906F00F06082E0CD308255F
:1009C0000DE0E468DCE7416A41F400114162012076
:1009D00070BD6D0D1560E3E72D5905F00F0515612C
:1009E00005682D59C5F30725956105682C59240C18
:1009F00054614FF4DC72046802EB0112A4581C70BD
:100A00000468A458240A5C700468A458240C9C70E0
:100A10000468A258120EDA704FF4DE72046802EB1A
:100A20000112A4581C710468A458240A5C7104685B
:100A3000A458240C9C710468A258120EDA71006844
:100A400029B1016941F020010161002070BDC16838
:100A500041F02001C160F8E72DE9F05F054600682C
:100A600000244669D0F804908768D0F80CB0D0F81C
:100A700010A0D0F81880F10748D0F90714D0012150
:100A80008160B80703D5284600F005FA0CE0780726
:100A900002D54FF4006407E0380702D54FF48054C4
:100AA00002E0284600F0F6F9F80516D529684FF45B
:100AB00080708860B80503D5284600F0EEF90CE098
:100AC000780502D544F4005407E0380502D544F413
:100AD000804402E0284600F0DFF9F80316D52968C3
:100AE0004FF480308860B80303D5284600F0D7F96A
:100AF0000CE0780302D544F4004407E0380302D543
:100B000044F4803402E0284600F0C8F9300707D5E5
:100B10005FEACB6004D52968102044F40074C860F3
:100B200070074FF0080707D55FEA0B7004D52868F7
:100B3000C760284600F05AF9B00706D52868C06893
:100B4000800702D0284600F053F9700607D55FEA07
:100B5000CA6004D52968102044F480640861B00696
:100B600007D55FEA0A7004D528680761284600F0B7
:100B700061F9F00606D528680069800702D028468A
:100B800000F059F9B00308D55FEAC96005D52968B6
:100B900010204860284600F04FF9F00307D55FEABF
:100BA000097004D528684760284600F079F93004B8
:100BB00046D55FEA497040D5F00504D55FEAC870B4
:100BC00001D044F00104B00504D55FEA887001D576
:100BD00044F00204700504D55FEA487001D544F082
:100BE0000404300529D518F0700F26D008F07000E5
:100BF000402815D006DC102809D020280AD030283B
:100C000016D10AE050280ED0602811D10EE044F031
:100C100008040DE044F010040AE044F0200407E06A
:100C200044F0400404E044F0800401E044F48074A3
:100C30002868816921F07001816129680420486079
:100C4000002C05D0686A204368622846FFF789FEB9
:100C5000BDE8F09F70B5040003D094F8200010B1F7
:100C600004E0012070BD204600F082F82068016891
:100C700041F00101016000F025FA0546052604E077
:100C800000F020FA401B0A2811D820684068C007ED
:100C9000F6D02068016821F00201016000F012FA2C
:100CA00005460BE000F00EFA401B0A2806D9606AE0
:100CB00040F40030606284F82060D2E72068406829
:100CC0008007EFD4207E0128206801683DD021F004
:100CD00080010160607E01282068016838D021F021
:100CE00040010160A07E01282068016833D021F016
:100CF00020010160E07E0128206801682ED041F0CB
:100D000010010160207F01282068016829D021F0AE
:100D100008010160607F01282068016824D021F06B
:100D200004010160D4E902010843D4E9041211432B
:100D300008436168491E08432168C8610020606259
:100D4000012084F82000002070BD41F08001C0E740
:100D500041F04001C5E741F02001CAE721F0100150
:100D6000CFE741F00801D4E741F00401D9E70000E2
:100D700010B586B0002100910191029103910068A5
:100D8000174988422AD11748C16941F00071C161F1
:100D9000C16901F000710491816941F00401816130
:100DA0008069114C00F0040004904FF40060009042
:100DB0006946204600F088F8A014009002200190B7
:100DC000032003906946204600F07EF80022114679
:100DD000142000F0E3F9142000F0D2F906B010BDA1
:100DE000006400400010024000080140704700000D
:100DF00000B58DB00BAB04AA0021FFF7B3FD0028AE
:100E000014D10598009008988DF80C0002460BA9A3
:100E100001A8FFF7A8F900F055F94FF47A7100FB2B
:100E200001F200236946024801F0F8FF0DB000BD51
:100E300020000020704770477047000070B50446DE
:100E400090F82000012804D0606A40F4002060621D
:100E500018E0022084F820002068016821F00101D8
:100E6000016000F02FF905460EE000BF00F02AF9FE
:100E7000401B0A2808D9606A40F4003060620520EF
:100E800084F82000012070BD20684068C007EDD1C3
:100E9000606270BD70477047704770477047704719
:100EA0007047000070B5044600F00CF90546601C60
:100EB00002D004480078044400F004F9401BA0422A
:100EC000FAD370BD0C0000202DE9F84FDFF8B8917F
:100ED0000024A9F1040B23460F2709F1040AABF102
:100EE000040EC9E00125A5402A40AA427DD1674EE3
:100EF000D1F804C0ACEB0608B44532D014DCBCF128
:100F0000030F3AD009DCBCF1000F2AD0BCF1010F6D
:100F10001CD0BCF1020F31D11DE0BCF1110F17D074
:100F2000BCF1120F2AD119E0B8F5881F19D006DCE0
:100F3000B8F5803F15D0B8F5801F1FD111E0B8F586
:100F4000001F0ED0B8F5041F18D10AE0CB6815E0D9
:100F5000CB681B1D12E0CB6808330FE0CB680C3365
:100F60000CE08B682BB1012B4FF0080303D04561D7
:100F700004E0042302E0056100E00023FF2A01D819
:100F8000064601E000F104064FEA840501D9A5F107
:100F90002005D6F8008007FA05FC28EA0C0803FAB9
:100FA00005F548EA0508C6F800804D68ED0062D5F1
:100FB000374DAE6946F00106AE61AD6924F0030617
:100FC00005F001050095334D06EB050CDCF80850E3
:100FD000A607360F07FA06F825EA0805DFF8B880F5
:100FE000404503D14FF0000817E044E0DFF8AC8043
:100FF000404502D14FF001080FE0DFF8A4804045E2
:1010000002D14FF0020808E0DFF89880404502D195
:101010004FF0030801E04FF0040808FA06F848EA28
:101020000508CCF808804D68D9F80060ED024D46FF
:1010300001D5164300E096432E604D68DAF8006053
:10104000AD02554601D5164300E096432E604D682B
:10105000DBF80060AD035D4601D5164300E0964322
:101060002E604D68DEF80060ED03754601D516432D
:1010700000E096432E60641C0D682A46E5407FF42C
:1010800031AFBDE8F88F00000804014000001110E6
:10109000001002400000014000080140000C014027
:1010A0000010014000140140C26821EA02030A4016
:1010B00043EA0241016170470AB1016170470904C6
:1010C000FBE7000001488068704700000C0000202A
:1010D0000248816802781144816070470C0000204A
:1010E000074810B5016841F010010160032000F0CD
:1010F00075F80F2000F006F800F024F8002010BD6D
:101100000020024070B50D4D04464FF47A712878E6
:10111000B1FBF0F00A490968B1FBF0F000F0DCFA2D
:1011200048B9102C07D200222146501E00F036F894
:1011300000206C6070BD012070BD00000C0000201C
:10114000180000200C4808B5816941F00101816157
:10115000816901F001010091C16941F08051C161D3
:10116000C06900F0805000900448416821F0E061BF
:1011700041F08061416008BD001002400000014064
:10118000002809DB00F01F02012191404009800086
:1011900000F1E020C0F8001170470000F0B40E4BE1
:1011A0001B680C46C3F30223C3F10705042D00D9C5
:1011B0000425191D072901D2002300E0DB1E0126AA
:1011C00006FA05F1491E214099409E40761E1640C0
:1011D0003143F0BC01F040B80CED00E0064900F0EE
:1011E000070208684FF6FF03184040EA0220034A4E
:1011F00010430860704700000CED00E00000FA05A5
:101200002DE9F0470F46050061D0434E306800F0ED
:101210000700B84209D2306820F007003843306038
:10122000306800F00700B84251D128683B4C810774
:1012300012D5400703D5606840F4E060606028780C
:10124000000703D5606840F4605060606068A9687A
:1012500020F0F000084360602878C00728D0686854
:10126000012810D02168022810D0890700292EDA21
:10127000616821F0030101436160FFF723FF8046AD
:1012800041F288390DE021688903EFE78901EDE734
:10129000FFF718FFA0EB0801494502D90320BDE87C
:1012A000F0876068696800F00C00B0EB810FEFD147
:1012B000306800F00700B8420BD9306820F0070012
:1012C00038433060306800F00700B84201D0012098
:1012D000E5E72878400705D56068E96820F4E06014
:1012E000084360602878000706D56068296920F403
:1012F000605040EAC100606000F038F86168084A58
:10130000C1F30311515CC8400649086006480068F3
:10131000FFF7F8FE0020C2E7002002400010024064
:101320005239000818000020100000200448054928
:1013300000684968044AC1F30221515CC840704703
:1013400018000020001002406239000804480549D6
:1013500000684968044AC1F3C221515CC840704723
:101360001800002000100240623900080E4A51683F
:101370000E4801F00C03042B11D0082B0FD10C48A0
:10138000C1F38343C903C05C0AD55168084AC1F35D
:101390004041921E515C054A5043B0FBF1F070474A
:1013A00004494843704700000010024000127A00D0
:1013B0004239000800093D002DE9F84F040070D0C3
:1013C0002078C04DC00749D06868C0F3810001286B
:1013D00007D06868C0F38100022809D16868C0039B
:1013E00006D52868800339D560680028E7D035E045
:1013F0006068B0F5803F0BD010B1B0F5A02F11D0D0
:10140000286820F480302860286820F4802002E0DA
:10141000286840F480302860606890B1FFF752FE81
:1014200006460AE0286840F480202860F0E700BF04
:10143000FFF748FE801B642873D828688003F7D51F
:101440000CE0FFF73FFE064605E000BFFFF73AFE5F
:10145000801B6428F0D828688003F7D420789A4E3F
:1014600080074FF001094FF0000839D5686810F087
:101470000C0F07D06868C0F38100022809D16868A2
:10148000C00306D42868800714D52069012808D134
:1014900010E02069B0B1C6F80090FFF713FE0746D0
:1014A00005E00AE1FFF70EFEC01B0228C4D8286839
:1014B0008007F7D52868616920F0F80040EAC1008C
:1014C00028600DE0C6F80080FFF7FCFD074604E049
:1014D000FFF7F8FDC01B022823D828688007F7D43F
:1014E000207800072CD57948A169D9B1C0F80090BF
:1014F000FFF7E8FD074604E0FFF7E4FDC01B022804
:101500000FD8686A8007F7D571484FF4FA51006820
:10151000B0FBF1F0009000BF0098411E0091FAD29C
:101520000EE080E0C0F80080FFF7CCFD074604E045
:10153000FFF7C8FDC01B022875D8686A8007F7D47A
:101540002078400760D5E8690027C00008D4E86922
:1015500040F08050E861E869012700F08050009079
:101560005C480168C90513D40168834641F4807161
:101570000160FFF7A7FD824606E000BFFFF7A2FD6E
:10158000A0EB0A0064284ED8DBF80000C005F5D5B2
:10159000E06801280AD008B1052813D0286A20F095
:1015A00001002862286A20F0040002E0286A40F066
:1015B00001002862E06841F2883B98B1FFF782FDA4
:1015C00082460BE0286A40F004002862EEE700BF84
:1015D000FFF778FDA0EB0A0159455AD8286A800721
:1015E000F6D50CE0FFF76EFD824605E0FFF76AFDD9
:1015F000A0EB0A0159454CD8286A8007F6D41FB1E0
:10160000E86920F08050E861E06988B36968C1F357
:101610008101022944D00228C6F8608004D0FFF777
:1016200051FD044638E034E0FFF74CFD074604E086
:10163000FFF748FDC01B02282BD828688001F7D48B
:10164000206AB0F5803F05D16868A16820F40030B9
:1016500008436860D4E908010843696821F47411FB
:1016600008436860C6F86090FFF72CFD044606E06A
:1016700025E000BFFFF726FD001B022809D82868D7
:101680008001F7D51BE000BFFFF71CFD001B0228FF
:1016900002D90320BDE8F88F28688001F4D40EE059
:1016A0000128F7D06868226A00F48031914204D1A1
:1016B000616A00F47010884201D00120EAE700203E
:1016C000E8E700000010024000004242800442426D
:1016D000180000200070004010B5401EB0F1807F5F
:1016E00001D3012010BD4FF0E02460610F2160178D
:1016F00000F0B2FD0020A06107202061002010BD95
:1017000070B590F83C20012A26D0012480F83C4096
:10171000022280F83D2003685A689D6822F0700616
:101720000A6832435A600D4B02689A4208D0B2F1FF
:10173000804F05D00A4B9A4202D00A4B9A4204D1FC
:10174000496825F080031943916080F83D400021ED
:1017500080F83C10084670BD022070BD002C01408E
:10176000000400400008004010B5040003D094F8C5
:101770003D0010B107E0012010BD002084F83C00BE
:10178000204600F01FF8022084F83D00211D20684B
:1017900000F06CFB012084F8460084F83E0084F8D9
:1017A0003F0084F8400084F8410084F8420084F847
:1017B000430084F8440084F8450084F83D0000208C
:1017C00010BD000008B50068B0F1804F08D1054891
:1017D000C16941F00101C161C06900F001000090E0
:1017E00008BD00000010024070B5044690F83C00AF
:1017F0000025012817D0012684F83C60022084F8D7
:101800003D002068826822F0770222F47F428260E5
:101810000868502838D00DDC20284FD005DC90B364
:10182000102811D14AE0022070BD302846D040284F
:101830000AD13BE060282FD070280DD0B0F5805F32
:1018400003D0B0F5005F12D0012584F83D60002080
:1018500084F83C00284670BDCB68D1E9012120689E
:1018600000F04DFB2068816841F0770109E0CB680A
:10187000D1E90121206800F042FB2068816841F431
:1018800080418160E1E719E0CA684968206800F09A
:10189000EBFB5021206806E0CA684968206800F028
:1018A000F4FB6021206800F034FBCEE7CA68496889
:1018B000206800F0D9FB40212068F4E72268014647
:1018C0001046F0E700B585B000210091019102912A
:1018D00003910068B0F1804F11D10A48816941F04D
:1018E000040181618069694600F0040004900F20C2
:1018F00000900220019003900348FFF7E5FA05B03D
:1019000000BD0000001002400008014070B5044610
:1019100090F83C0000260D4601280FD0012084F8E5
:101920003C006AB1042A1DD0082A2FD00C2A3FD0CF
:101930000126002084F83C00304670BD022070BDB6
:10194000206800F0EFFA2068816941F008018161A8
:101950002068816921F004018161206881692A6918
:10196000114311E0206800F005FB2068816941F413
:10197000006181612068816921F480618161206852
:1019800081692A6941EA02218161D2E7206800F079
:101990001DFB2068C16941F00801C1612068C1696F
:1019A00021F00401C1612068C1692A69114311E075
:1019B000206800F037FB2068C16941F40061C16113
:1019C0002068C16921F48061C1612068C1692A6908
:1019D00041EA0221C161ACE710B5040003D094F8DC
:1019E0003D0010B107E0012010BD002084F83C004C
:1019F000204600F01EF8022084F83D00211D2068DA
:101A000000F034FA012084F8460084F83E0084F89F
:101A10003F0084F8400084F8410084F8420084F8D4
:101A2000430084F8440084F8450084F83D00002019
:101A300010BD704710B50446022249B104290ED0EA
:101A4000082913D094F84100012816D0012010BDB8
:101A500094F83E000128F9D184F83E200FE094F874
:101A60003F000128F2D184F83F2008E094F84000BC
:101A70000128EBD184F8402001E084F841200122C4
:101A8000206800F02FFA0F492068884203D1426C89
:101A900042F4004242642068884208D0B0F1804F8E
:101AA00005D00949884202D00849884204D181689A
:101AB00001F00701062903D0016841F0010101602E
:101AC000002010BD002C0140000400400008004030
:101AD00070B5040004D094F84100002510B106E070
:101AE000012070BD84F84050204600F023F82420E7
:101AF00084F841002068C16821F40051C16020468B
:101B000000F0FCFA2068016921F49041016120682D
:101B1000416921F02A0141612068C16841F4005106
:101B2000C1606564202084F8410084F84200656348
:101B3000002070BD30B585B000240094019402945B
:101B4000039400681449884224D11448816941F4FF
:101B500080418161816901F480410491816941F092
:101B60000401816180690E4D00F0040004904FF47F
:101B700000700090022001900320039069462846DF
:101B8000FFF7A2F92815CDE900046946284602941A
:101B9000FFF79AF905B030BD00380140001002404F
:101BA000000801402DE9F843044690F841009846AA
:101BB00016460D46202802D00220BDE8F88385B1E4
:101BC0007EB100206064212084F84100FFF77AFA9A
:101BD000A6848146E684A0682027B0F5805F02D005
:101BE00003E00120E9E7206910B12E4600250EE050
:101BF00000260CE08021204600F0DCFAA8B9C6B12E
:101C000016F8010B21684860E08C401EE084E08CEF
:101C10004B464FF00002CDF800800028EAD14FF08B
:101C20004001204600F0C6FA40B184F8417003201C
:101C3000C3E735F8020BC0F30800E3E784F841700E
:101C40000020BAE7FEE700000F4810B50D4901601B
:101C50000221416000214FF420228160C0E903127B
:101C6000D2004261017641768176C1760177417773
:101C7000FEF7F0FF002803D0BDE81040FEF77DBD61
:101C800010BD0000006400404C10002070B586B00C
:101C9000002418480094019402940394816941F04F
:101CA00010018161816901F010010491816941F0A5
:101CB00020018161816901F020010491816941F075
:101CC0000401816180690C4E00F004004FF400555E
:101CD0000490002229463046FFF7EEF901200095D6
:101CE000CDE901040220039069463046FFF7ECF885
:101CF00006B070BD001002400010014010B58EB05B
:101D000000240794089409940A940B941C216846B3
:101D10000C94FEF741FA2B484FF0804101604721B7
:101D2000C0E9011440F2CF71C0E903148461FFF7E8
:101D30001BFD08B1FEF721FD4FF48050079007A965
:101D40002048FFF751FD08B1FEF717FD1D48FFF7CA
:101D500043FE08B1FEF711FD0B940BA919480C9432
:101D6000FFF7CEFC08B1FEF708FD6020009040F2BE
:101D7000E730CDE901040022694612480494FFF7D8
:101D8000C5FD08B1FEF7F9FC042269460D48FFF7CE
:101D9000BDFD08B1FEF7F1FC082269460948FFF7CE
:101DA000B5FD08B1FEF7E9FC0C2269460548FFF7CE
:101DB000ADFD08B1FEF7E1FC0248FFF783FD0EB070
:101DC00010BD0000741000200C4810B50A490160D5
:101DD0004FF4E1314160002181600C22C160C0E913
:101DE00004128161C161FFF773FE002803D0BDE8D2
:101DF0001040FEF7C2BC10BD00380140BC100020EE
:101E0000FEE7FEE770477047FFF762B930B58FB065
:101E100028216846FEF7C0F914210AA8FEF7BCF98C
:101E200001210804CDE90010002402940225049148
:101E3000CDE907504FF4E01009906846FFF7BCFA6F
:101E400008B172B6FEE70F20CDE90A054FF48060B5
:101E5000CDE90C4002210AA80E94FFF7D1F9002821
:101E600001D072B6FEE70FB030BD7047F0B5026822
:101E7000194B1A4C1A4D4FF08047984205D0B84282
:101E800003D0A04201D0A84203D122F070064A68D4
:101E90003243984205D0B84203D0A04201D0A842B4
:101EA00003D122F44074CA6822434C6922F08002B4
:101EB000224302608A68C2620A688262984201D143
:101EC00009690163012141610169C90703D0016901
:101ED00021F001010161F0BD002C0140000400402F
:101EE0000008004010B501F01F030121046A994069
:101EF0008C430462016A9A401143016210BD10B51F
:101F0000846842EA032224F47F440A432243826025
:101F100010BD826822F070020A4342F0070181601E
:101F20007047000030B5036A026A22F001020262C3
:101F30004268846924F073050C682C4323F0020581
:101F40008B682B430A4DA8420BD123F00805CB68C0
:101F500022F440722B434D6923F0040315438A6930
:101F60002A434260846149684163036230BD0000D6
:101F7000002C014030B5026A036A23F010030362AB
:101F8000436884690D6824F4E64444EA05248D68B6
:101F900022F0200242EA05120B4DA8420ED1CD6874
:101FA00022F0800242EA05124D6923F4406343EABD
:101FB00085038D6922F0400243EA85034360846112
:101FC00049688163026230BD002C014030B5036A6C
:101FD000026A22F4807202624268C46923F40073C8
:101FE00024F073050C682C438D6843EA05230C4DDF
:101FF000A8420ED1CD6823F4006343EA05234D695E
:1020000022F4405242EA05128D6923F4806342EAC9
:1020100005124260C4614968C163036230BD0000BB
:10202000002C014030B5046A026A22F48052026238
:102030004268C3690D6823F4E64343EA05238D68CB
:1020400024F4005444EA0534064DA84204D14D69F5
:1020500022F4804242EA85124260C3614968016409
:10206000046230BD002C014010B5036A046A24F0FC
:1020700001040462846924F0F00444EA021423F0A9
:102080000A020A438461026210BD10B5036A046A41
:1020900024F010040462846923F0A00324F4704443
:1020A00044EA023243EA01118261016210BD016813
:1020B0000C3151E8002F22F4907241E80023002BEC
:1020C000F5D10168143151E8002F22F0010241E8F6
:1020D0000023002BF5D1016B012909D101680C31D6
:1020E00051E8002F22F0100241E80023002BF5D127
:1020F000202180F8421000210163704770B504462A
:1021000000680169E26821F44051114301612169CD
:10211000A0680843616908432168CA6841F20C63FA
:102120009A430243CA6020684169A26921F4407160
:10213000114341611E492068884202D1FFF706F928
:1021400001E0FFF7F3F800EBC00101EB001260685B
:1021500064218000B2FBF0F3B3FBF1F36FF01806DB
:102160007343B2FBF0F5B2FBF0F605EB83053223C7
:1021700003EB0515B5FBF1F5B6FBF1F605F0F0053F
:1021800005EB0615B2FBF0F6B2FBF0F0B0FBF1F098
:102190006FF01802504306EB800003EB0010B0FB19
:1021A000F1F0216800F00F002844886070BD000045
:1021B000003801402DE9F843984617460D4604467D
:1021C000089E24E0701C22D0FEF77CFFA0EB0800E4
:1021D000B0421AD8CEB12068C168490717D5802D02
:1021E00015D0402D13D00168C94309070FD40168E9
:1021F0000025406800902046FFF759FF08206064E2
:1022000084F840500120BDE8F8830320FBE72068F4
:10221000006835EA000004D00020B842D2D0002087
:10222000F1E70120F9E700000148FEF715BC0000C6
:102230004C100020FEE700000FB4054B10B503A9B9
:10224000044A029800F0EAF810BC5DF814FB0000A4
:10225000193500081C0000200907090E002804DBBE
:1022600000F1E02080F80014704700F00F0000F14A
:10227000E02080F8141D704702E008C8121F08C152
:10228000002AFAD170477047002001E001C1121FF7
:10229000002AFBD1704700002DE9FF5F82B00021CA
:1022A000DDE90430020DDDF840B0034318D044F6F8
:1022B0001050A2F2FF3242431514119801281FD08A
:1022C000A5EB0B00401C5FEA000A4FF000064E4FE2
:1022D000DFF83891B046504615D5CAF1000413E036
:1022E000119801244AA3012801D16FEA0B01029839
:1022F000119AC0E90031C0E9024206B0BDE8F09F82
:10230000CBF10000DFE704460021404A491842EBC8
:102310000450CDE9001012E0E00707D032463B46FA
:1023200040464946FEF794F88046894632463B4689
:1023300010461946FEF78CF806460F466410002C2E
:10234000EAD1DDE90401DDE90023BAF1000F06DA84
:10235000FEF77EF842464B46FEF77AF805E0FEF7B8
:10236000E9F842464B46FEF7E5F804460E460022E1
:10237000284BFEF767F903D84FF0FF30014607E01E
:102380000022254B20463146FDF7BBFFFEF741F901
:10239000102409E0002C0ADB0A220023FDF780FF4D
:1023A000039B30321A55641E50EA0102F2D1641CBC
:1023B000039AC4F111031444119A012A03D0012293
:1023C00008430DD10AE0084304D000204FF0110B60
:1023D000119072E7A3EB0B056D1E0DE05B4504DD6C
:1023E0004FF0000205F1010504E003DA4FF00002AE
:1023F000A5F10105002AECD002981199C0E902313B
:10240000C0E9004579E70000000014400000F03FFB
:10241000300000000000F0430000E03F2DE9FF4FD6
:1024200095B09A46884606460025EEE1252877D1E4
:1024300000242746F94A0121039400E0044316F8DA
:10244000013F203B01FA03F01042F7D130782A28EF
:1024500011D06FF02F033078A0F13002092A16D87E
:10246000039A44F0020402EB820203EB420210449E
:10247000761C0390EFE758F8042B0392002A03DA46
:10248000504244F40054039044F00204761C307827
:102490002E2816D116F8010F44F004042A280DD076
:1024A0006FF02F023078A0F13003092B09D807EB29
:1024B000870302EB4303C718761CF3E758F8047B45
:1024C000761C30786C280FD006DC4C2817D0682892
:1024D0000DD06A2814D104E0742810D07A280FD1C6
:1024E0000DE044F400140AE044F4801401E044F4E4
:1024F00040147278824202D104F58014761C761C56
:10250000307866280BD013DC582877D009DC0028F7
:1025100075D04528F6D04628F4D047281AD193E143
:1025200018E0632835D0642879D0652812D18BE172
:10253000702873D008DC6728F1D069286FD06E2826
:102540000DD06F2806D1ACE073282CD0752874D03C
:10255000782853D05246179990476D1C54E1C4F324
:102560000250022809D003280DD0D8F80010042802
:102570000DD00D6008F1040846E1D8F80010EA1704
:10258000C1E90052F6E7D8F800100D80F2E70D70AF
:10259000F0E718F8041B8DF8001000208DF80100FA
:1025A000EB46012003E058F804BB4FF0FF30610711
:1025B0004FF0000102D40DE009F101018946B94252
:1025C0000FDA8145F8DB1BF809100029F4D108E087
:1025D00009F1010189468142FADB1BF80910002943
:1025E000F6D103985346A0EB090721463846179ABF
:1025F00000F080FA284400EB090507E044E008E118
:102600000DE01BF8010B524617999047B9F10109EB
:10261000F7D2534621463846179AF2E039E00A21AC
:10262000C4F302524FF0000B0091022A06D058F872
:10263000040BC117032A09D00AE023E008F10700C0
:1026400020F00702F2E80201904605E000B2C1174F
:10265000042A01D140B2C117002906DA0A46002136
:10266000404261EB02012D2202E0220504D52B221B
:102670008DF80420012203E0E20701D02022F7E7D1
:10268000914657E00A2100E010214FF0000B009125
:102690000BE010214FF0000B44F0040408270091D8
:1026A00003E008204FF0000B0090C4F30252022A0E
:1026B00005D058F8040B0021032A08D008E008F1DF
:1026C000070020F00702F2E80201904603E080B222
:1026D000042A00D1C0B24FF0000922072AD532786F
:1026E000702A07D0DDF800C08CF0100C5CEA0B0CEF
:1026F00005D00EE040228DF80420012208E050EAC7
:10270000010306D030238DF804308DF80520022215
:102710009146009B83F0080353EA0B030AD150EA69
:10272000010201D1620705D530228DF804204FF057
:1027300001097F1E3278582A04D039A20C920CAAC3
:1027400002920BE03BA2F9E75B46009AFDF7A8FD79
:102750000C9B9B5C029A521E0292137050EA01027B
:10276000F2D1029804A9081A00F1200B600702D5E3
:1027700024F4803400E001275F4502DDA7EB0B0065
:1027800000E0002000EB0B01009003984944401A40
:102790000390E00306D453462146179A039800F0AD
:1027A000A9F90544002706E001A85246C05D179923
:1027B00090476D1C7F1C4F45F6DBE0030CD553465C
:1027C0002146179A039800F095F9054404E030205B
:1027D0005246179990476D1C0099481E0090002999
:1027E000F5DC08E00298029952460078491C0291F3
:1027F000179990476D1CBBF10001ABF1010BF1DCA7
:102800005BE100F065F90544761C307800287FF420
:102810000DAE19B02846BDE8F08F00000928010070
:102820003031323334353637383961626364656646
:102830000000000030313233343536373839414208
:102840004344454600000000600700D4062708F115
:10285000070020F00700F0E80223804603F0004C58
:102860005FEA0C0001D097A009E0200501D596A0F1
:1028700005E0E00701D095A001E0AFF24C00139015
:10288000307823F0004365280CD006DC452809D0B9
:1028900046281DD047287FD13BE0662818D06728FE
:1028A0007AD136E00021112F01DB112000E0781CE5
:1028B000CDE9000104A90CA8FFF7EEFCDDE90D014C
:1028C0000C9A4FF0000B07F10109109200914EE0B5
:1028D0004FF000400097CDE9011004A90CA8FFF7C4
:1028E000DBFCDDE90D020C9B0F994FF0000B9146CC
:1028F0001093009211B9791C00EB0109B7EB0900A4
:1029000003D4C0F1FF3B07F10109A9EB07000190D7
:1029100042E0012F00DA01270021112F01DD1120F3
:1029200000E03846CDE9000104A90CA8FFF7B4FC8B
:10293000DDE90D010C9A00914FF0000BB9461092A1
:1029400021070FD4009A4A4503DA914601E0A9F124
:102950000109B9F1010F05DD109AA9F10101515CDE
:102960003029F4D0B84202DA10F1040F03DA012161
:10297000CDE9011010E0002803DC8344A9EB00013D
:1029800002E0411C494500DD8946A0EB0B00401CDC
:1029900001904FF000400290200705D4019848456F
:1029A00002DB4FF0FF30019000208DF84B000298C1
:1029B0000DF14B07B0F1004F25D002200C902B20D9
:1029C0000D90029800280CDA404202902D200D90C4
:1029D00007E00A210298FDF74DFC3031029007F81C
:1029E000011D0C99481E0C900029F2DC0298002869
:1029F000EFD1791E0D980870307800F0200040F07B
:102A0000450007F8020D11A8C01BC01D02901398C5
:102A1000007800B1012000EB0901019801EBE071A1
:102A2000029801440398401A401E0390E00306D424
:102A300053462146179A039800F05CF80544139812
:102A4000007818B15246179990476D1CE00323D5C2
:102A500053462146179A039800F04CF805441BE0B2
:102A6000BBF1000F07DB0098584504DD109817995B
:102A700010F80B0001E0179930205246904701985A
:102A80000BF1010B401E05F10105019004D12E2030
:102A90005246179990476D1CB9F10001A9F101093F
:102AA000DEDC05E017F8010B5246179990476D1CC4
:102AB0000299481E02900029F4DC53462146179AD9
:102AC00003989EE62D0000002B000000200000006F
:102AD0002DE9F041044600251E461746880404D41B
:102AE00005E039462020B0476D1C641EF9D5284604
:102AF000BDE8F0812DE9F041044600251E469046D0
:102B0000C80301D5302700E02027880404D505E05C
:102B100041463846B0476D1C641EF9D52846BDE8CD
:102B2000F08142685AB1116841604189491C89B2FB
:102B3000418183898B4200D28181104670470020F9
:102B4000704700002DE9F05F834648690025C0F317
:102B5000094091460E461F46052809D112E000BFE4
:102B6000321819F80510401C6D1CD17680B2ADB238
:102B7000052801D2BD42F3D3BD4203D3706903EBF4
:102B8000104150E070697468C0F30941481F1C226D
:102B9000B0FBF2F302FB13086FF0020A0CB1012044
:102BA0000CE0584600F0FAFB04467060200032D07A
:102BB0004FF0000832E0401C80B21C462368002B16
:102BC000F9D13944491FB1FBF2F1491C89B2814264
:102BD00024D9B8F1000F21D1584600F0DFFB206066
:102BE000C8B104461AE0404608E000BF221819F8B0
:102BF0000510401C6D1C117180B2ADB21C2801D2B1
:102C0000BD42F3D3BD4209D2584600F0C7FB206055
:102C100008B10446CCE75046BDE8F09FBD42E2D380
:102C2000706907EB104161F3194070610120F3E70F
:102C30002DE9F047066A174698460546344600F1E6
:102C40000C0923E0D4E90221BA1A68EB0100124B07
:102C500000219A1A81411DD2286A2146A0422846A5
:102C60000BD100F0B3FD286A21460068286248466F
:102C700000F05EFC2C6A264608E000F0A7FD206804
:102C800030602146484600F053FC3468002CD9D10E
:102C9000BDE8F0872646F8E780841E0070B50B4932
:102CA0000546D1E903010E4669040A0901461046AA
:102CB000FDF77DFA04463146FDF7D2FA01D844F01B
:102CC000FF4405F4004044EA004070BD1439000898
:102CD0002DE9FC471F460A9D14466FF0010340B1E1
:102CE0003DB1A4F10109B9F1400F02D2012C03D189
:102CF00017B11846BDE8FC870022009201926B468E
:102D0000224600F06AFBB0F10008F3DD600708D04E
:102D1000684600EBD4006242017802F00702D1401D
:102D200001706FF0080A012C01D0082C01D801268F
:102D30000AE0102C01D8022606E0202C01D8042637
:102D400002E0402C67D8082600F0F9FB18B13146A4
:102D5000684600F061FDEFB3B4EBC60F42D0611ED0
:102D6000012000FA01F2A040401EC043082C07D801
:102D70009DF80010114244D001438DF8001040E04E
:102D8000102C07D8BDF8001011422FD00143ADF828
:102D900000102BE0202C05D80099114237D00143B8
:102DA000009134E0402C36D2DDE900674A4601202C
:102DB0000021FDF7B9F93040394008431CD02246C4
:102DC00001200021FDF7B0F9401E41F1FF32C1435F
:102DD0000E4300E004E067EA0207CDE900670BE07C
:102DE000012C0ED0082C0CD9102C0ED8BDF80000E8
:102DF00028800EE0402C0ED8DDE90001C5E9000175
:102E000007E09DF80000287003E0202CF2D800981D
:102E1000286040466EE750466CE700002DE9F04F11
:102E2000064697B091469A460D46086800F060FB4A
:102E30008346022816D02888C0F306232868002875
:102E400012DA410010D481000ED4297B61B1BBF1AC
:102E5000020F0CD03178994209D06FF00A0017B0F8
:102E6000BDE8F08F0023E9E76FF00900F7E7C0F352
:102E70000461139100F07F01129100F029FB04908E
:102E8000129940EA0B4040EA814040EA4368297BBE
:102E9000E81C0F5C0020CDE9140006F10C00F909D4
:102EA000019026D01298009074685B4614A93046B1
:102EB000049AA047A8B3306A414628B1304600F0D2
:102EC00022FB04001BD106E0019800F06FFA040019
:102ED0000CD0346213E034464146019800F066FAA3
:102EE00020B1216A01602062044608E06FF0020010
:102EF000B5E74146304600F006FB040012D0D4E9A5
:102F0000020150EA01021CD000220892B9EB000332
:102F10006AEB0102BC490020C91A904113D201207A
:102F200012E008E01298009074685B4614A93046DD
:102F3000049AA04710B96FF00B0090E76FF00C00F7
:102F40008DE70122E1E700200990687BA17E88429D
:102F500001D1012000E000200A90F8090590606985
:102F600007F01F018846C0F3846000F0A8F901282B
:102F700001DD012000E000200C90D4E90223B9EB30
:102F800002026AEB0300A14B00219A1A814101D28F
:102F9000012000E0002007906069C0F38461404692
:102FA00000F08DF9102801DA012200E000226068AB
:102FB00008B1012100E00021DDE9080318430BD12D
:102FC000059B0A9818400C9B0B43184204D10599A5
:102FD0000798084010420DD06069214668F39E6052
:102FE00020F000406061304600F0F0FB687BA07686
:102FF000F8092CD0687BA17E884227D1F8092FD010
:1030000078062DD5C4E9029A202106A8FDF7C4F858
:10301000281DCDF81890CDE907A0287B8DF830B099
:10302000401EC0B2ADF82C000498ADF82E008DF80B
:10303000318013988DF8320012988DF83300B26801
:1030400006A930469047204600F00EFBD7E06069A5
:103050004FF0006101EBF0704FEA700060616DE7C6
:103060006069C7F34011B1EBD07F02D06FF00D0063
:10307000F5E6C0F38462904502D06FF00E00EEE6F4
:10308000F90926D0790624D4297B032902D86FF0C8
:103090000F00E4E65E49AA1D08406061C4E9029A97
:1030A000287B2146C01EC3B20198FFF74BFD0028C4
:1030B00026DBA8882083DDE914234FF6FF7000F09B
:1030C00057F9A082287BC01EC2B2A08AA91D80B277
:1030D00024E007F0400050EAD710287BA0F101005F
:1030E000C3B206D061690020C1F30942052A27D383
:1030F0002BE02A1D21460198FFF724FD002807DA5E
:103100002146304600F062FB204600F0ADFAEDE6C5
:10311000287B291D401EC2B2A08A80B200F00BF9A4
:10312000A0826069012101EBE07161F3DF706061F1
:1031300065E02918A718401C0979F976C0B2521C1D
:10314000052A1CD29842F4D319E06168B9B1052769
:1031500001E061461C37D1F800C0BCF1000FF8D186
:10316000D21B08E02F1801EB020C401C3F798CF8B1
:103170000470C0B2521C1C2A01D29842F2D304F14E
:103180001B01CDF82890CDE90BA161680D91984203
:1031900001D3002001E02844001D0E9060698DF8E5
:1031A00040B0C0F309401844ADF83C000498ADF8B5
:1031B0003E008DF8418013988DF8420012988DF8EA
:1031C0004300002060602A7BA08A291D80B2521E25
:1031D00000F0B1F8A082218B80B2884203D1B2689E
:1031E0000AA9304690470AA9304600F04DF820461B
:1031F00000F03AFAA08A218B80B2884201D10020E7
:103200002DE66FF010002AE680841E0040420F0079
:10321000FFFF00FC2DE9F0470D46DDE908891E4659
:10322000174604462C21FCF7B7FF002020702062CF
:10323000C4E90909C4E901867909B1F5803F01D3E0
:103240004FF6FF718BB2002204F11001E5610C34DE
:1032500005E000BF05EB42160E603146521C9A4253
:10326000F8D3086023816081A0812060BDE8F087E9
:10327000406A002800D0001D704750F8241F0A68DB
:1032800040F8182900F054B970B50C4600F10C064E
:1032900004E030460D6800F04BF9E560E168002974
:1032A000F7D10020A0602061A08270BD0278002AC2
:1032B00004D1002902D07F2900D801707047401A3C
:1032C00000D520307047F0B500EBD106059C01F029
:1032D000070103EBD40704F007038D1828E001F081
:1032E000070E03F0070CE64501D9724600E062467E
:1032F000681AC2F10802904200D310464FF47F4290
:10330000C240D4B206EBD10224FA0CF41278014484
:1033100002FA0EF222FA0CF207EBD30C22409CF8D0
:1033200000E003442EEA040E4EEA020E8CF800E0A0
:103330008D42D4D1F0BD70B515460C4603E014F8AB
:10334000011B00F003F86D1EF9D270BD10B580EAC4
:103350000120002141F221034FF6FF72040402EA2A
:10336000400000D55840491CC9B20829F6D310BD09
:103370002DE9F04115461E46074600242246284600
:103380003146FCF7E0FEC1B23846FFF7DFFF0834F4
:10339000A4B20746402CF1D3BDE8F08110B5FFF789
:1033A000C0FB002801D00021016010BD30B589B0FC
:1033B0000C46054620216846FCF7EEFE284604949C
:1033C000FFF7AFFB040006D020226946FCF7CBFED6
:1033D000204609B030BD0020FBE72DE9FF4F06462F
:1033E000808A83B09246B1EBC00F03D3002007B0B0
:1033F000BDE8F08F01EB0A02B2EBC00F03D9C1EBBD
:10340000C00000F0FF0AF268002012B93269002AF9
:1034100059D00C464FF000085546282911D2C4F166
:103420002801A94200D95146CFB20090B0683A466F
:103430002146069BFFF747FFB846A5EB08003C4432
:10344000C5B2B08A6FF0270101EBC00B4FF028091D
:10345000F76828E05846BBF1E00F01D9E02100E011
:10346000014601EB09000290A04215D9001BA842B9
:1034700000D92846C0B2CDE90080A4EB0901381D6F
:10348000069B019AFFF71FFF01980444404400F097
:10349000FF080198281AC5B202983F68A0EB0901FD
:1034A000ABEB010B81460FB1002DD3D1306940B198
:1034B0003DB1A4EB0901CDF800802A46069BFFF739
:1034C00002FF504693E70090B0685246069BF6E72D
:1034D00000B5024600F00CF8022802D0C2F3074003
:1034E00000BDC2F30F205106FAD100F0030000BD69
:1034F000C0F3C01119B1000403D5012070470220A8
:10350000704700207047006A03E002698A4202D0D7
:1035100000680028F9D1704713B54FF6FF730122F8
:1035200069460248FEF73EFB00981CBDBC10002017
:1035300042680A6041604189491E4181704701200B
:10354000000A00D0012070478CB00025FDF7C8FDAF
:10355000FEF75CFCFEF79AFBFEF776FBFEF7CEFB70
:10356000FEF732FC00212C48FEF764FA04212A48B9
:10357000FEF760FA08212848FEF75CFA0C2126487D
:10358000FEF758FA00242548CDE900042549244BCC
:103590004FF48052A1F12C00FFF73CFE21480A2194
:1035A0002C38FFF783FE0120CDE9084005940A90EE
:1035B00006940E2007940B9002940394049402A99D
:1035C0001948FDF757F91848FDF738FC022116484D
:1035D000FDF7D5F8154E4FF47A774FF4005400BF3D
:1035E00000F0CEF8FDF76EFD4FF47A7100FB01F2AA
:1035F0000C4800232C38FFF71BFB0120FDF752FC81
:10360000BD4205D321463046FDF74EFD0025E7E7D4
:103610006D1CADB2E4E7000074100020F93700081B
:10362000313600084C0000204C10002000100140F2
:1036300070B50546C88A0C46A0F54071F2390AD12A
:10364000A18A0023074A204600F0F3F8002802DB95
:10365000044800F017F821462846BDE87040FFF7FF
:1036600013BE00000400002041694FF0006202EB2D
:10367000F171034A02EA710121F000414161704792
:10368000FFFF00FC2DE9F84F0746017823A0FEF765
:10369000D3FD00254FF47A784FF4FA6ADFF8A8904A
:1036A00037E07868294900EBC50670688346FCF767
:1036B0007EFDFCF7AEFD00F2DC5084B2444501D241
:1036C000444602E0544500D954465846FCF7B5FD3F
:1036D0000B460094024631781DA0FEF7ADFD307810
:1036E00030B1012808D002280AD003280FD10BE0FE
:1036F000D9F8000044630AE0D9F80000846306E0CA
:10370000D9F80000C46302E0D9F8000004646D1C1D
:10371000EDB23878A842C4D8BDE8F88F5265636529
:1037200069766564204172726179436F6D6D616E77
:1037300064207769746820256420636F6D6D616E05
:1037400064733A0D0A000000741000200000FA4370
:1037500020202D204163747561746F722049443AB2
:103760002025642C2056616C75653A2025662C2036
:1037700050756C73653A2025642075730D0A00003E
:1037800010B588B00E48FFF773FD041E16D018223E
:103790000C496846FCF7E7FC206806AB20F0604067
:1037A0000190207B0490221D69460748FCF7F9FF31
:1037B000002803D10248FFF760FDE3E708B010BD21
:1037C00020000020283900084C10002070B50C465D
:1037D00000F10C0504E028460E68FFF7A9FE6660BC
:1037E00061680029F7D103496069084060610020E1
:1037F000014670BDFFFF00FCA2F54070F23801D019
:1038000000207047034A0248C1E9000201207047C6
:10381000F33AEC386248A7D810B50022491E05E0FB
:10382000835C445C84544354491E521C8A42F7D33F
:1038300010BD38B5002425461555641C082CFBD353
:10384000009500F001F838BD2DE9F8431F46089CAB
:1038500015468046002639B1C4EBC100C11700EB04
:10386000D160400928700EE0002304222146009513
:10387000FFF72EFA042805D0002801DB6FF00800BE
:10388000BDE8F883241D6FB1386868600AE00094D1
:1038900068683B4600EBC6020021404600F007F88E
:1038A0000444761C2878B042F1D82046E8E77CB57D
:1038B00006460020069C1546ADF80400034600921B
:1038C000082221463046FFF703FA082815D1681C64
:1038D000083400900023082221463046FFF7F8F90B
:1038E00008280AD101A8083400900023102221469C
:1038F0003046FFF7EDF9102804D0002801DB6FF007
:1039000008007CBDBDF80400FFF7C8F9686004F149
:1039100010007CBD0000807F0000800F0000800749
:1039200000008077000080470000000000000000D9
:103930000400000000000000000000000000000083
:10394000010202030405060708090A0B0C0D0E0FFD
:103950001010000000000000000001020304060730
:103960000809000000000102030400008C3900086F
:10397000000000202000000078220008AC39000878
:1039800020000020E830000088220008000000002D
:103990000000000000000000010000001000000016
:0C39A0000000000000127A00000000008F
:04000005080000ED02
:00000001FF
