:020000040800F2
:10000000182600200501000863220008A720000828
:10001000612200085B0A0008E526000800000000D5
:100020000000000000000000000000008D22000819
:100030005D0A000800000000652200088F22000809
:100040001F0100081F0100081F0100081F01000810
:100050001F0100081F0100081F0100081F01000800
:100060001F0100081F0100081F0100081F010008F0
:100070001F0100081F0100081F0100081F010008E0
:100080001F0100081F0100081F0100081F010008D0
:10009000D92600081F0100081F0100081F010008E1
:1000A0001F0100081F0100081F0100081F010008B0
:1000B0001F0100081F0100081F0100081F010008A0
:1000C0001F0100081F0100081F0100081F01000890
:1000D0001F0100081F0100081F0100081F01000880
:1000E0001F0100081F0100081F010008DFF810D0E1
:1000F00000F032FC0048004771470008AFF3008071
:10010000182600200648804706480047FEE7FEE71D
:10011000FEE7FEE7FEE7FEE7FEE7FEE7FEE7FEE7B7
:10012000F1220008ED000008202A04DB203A00FA42
:1001300002F1002070479140C2F1200320FA03F33E
:10014000194390407047202A04DB203A21FA02F03C
:100150000021704721FA02F3D040C2F12002914001
:1001600008431946704740EA01039B0703D009E0A2
:1001700008C9121F08C0042AFAD203E011F8013B93
:1001800000F8013B521EF9D27047D2B201E000F8EC
:10019000012B491EFBD270470022F6E710B513462B
:1001A0000A4604461946FFF7F0FF204610BD421CE0
:1001B00010F8011B0029FBD1801A704710B50022EE
:1001C00000E0521C835C8C5CA34201D1002BF8D16F
:1001D000D8B2E1B2401A10BD30B504460020034643
:1001E00000E05B1C934203D2E05CCD5C401BF8D086
:1001F00030BD30B505460020034600E05B1C93424D
:1002000005D2EC5CC85C201A01D1002CF6D130BDBF
:10021000F0B480EA0102D40F4200B2EB410F02D2E7
:100220000246084611464A0042D0C30DDDB2C1F372
:10023000C752AD1A202D35DAC1F3160141F4000280
:1002400004B15242C5F1200602FA06F12A411044D7
:10025000B3EBD05F23D0C4B1012DA0EBC35009DCB8
:10026000F0BC4FF0004202EAC352DBB200F50000DE
:1002700000F08CB9400000F1807000EBC350A0F199
:10028000807040EAD170490009E0490841EAC07134
:10029000A0EBC35000F50000400800EBC350F0BCD9
:1002A00000F06BB96142012202EB4101001BF6E74D
:1002B000F0BC704781F00041AAE780F00040A7E75A
:1002C00080EA010210B502F00043400022D04A004B
:1002D0001FD0010E01EB1261C0F35600C2F35602AB
:1002E00040F4000042F40002A0FB022000047F3929
:1002F000140400D0401C50EA124001D44000491EB2
:10030000C2B20C0604EBD010401C4008802A02D078
:1003100003E0002010BD20F00100002900DA0020D9
:10032000184310BD30B480EA010202F0004530F0FD
:10033000004221F0004013D090B1C30DD40DC2F3A0
:100340001601C0F31600E41A41F4000140F4000263
:100350007D34914201D3641C00E04900002C02DA94
:1003600030BC002070474FF400000023914201D3BD
:10037000891A034340084FEA4101F7D151B1914234
:1003800002D14FF0004105E002D24FF0010101E03F
:100390006FF0010103EBC450284430BC00F0EDB80D
:1003A000420005D0C0F3C7525242914201DC002006
:1003B000704700EBC1507047C10F80EAE0700844FD
:1003C000CA079623002100F0E1B8962300221146C7
:1003D00000F0DCB8F0B4CA17CB0F50405140C6183B
:1003E00041F100054FEAC372314628004FF09603F1
:1003F00003D0B623F0BC00F0C9B830460021F9E7BD
:1004000000F0004220F00040C10DC0F3160040F49F
:1004100000007F2901DA00207047962903DCC1F132
:100420009601C84001E096398840002AF4D0404245
:10043000704720F00040C10DC0F3160040F40000EA
:100440007F2901DA00207047962903DCC1F196016B
:10045000C840704796398840704710B500F0004496
:1004600020F00040C20DC0F3160040F400007F2AC7
:1004700002DA0020014610BD0021962A03DCC2F1F9
:100480009602D04002E0963AFFF74EFE002CF2D0E2
:100490000023D0EB030063EB010110BD00F000422C
:1004A00030F000400AD0C10D01F56071C0F31600B4
:1004B00042EA0151C208400711437047002001463B
:1004C00070470000002801DBC0F10040002901DB7B
:1004D000C1F1004181427047002801DBC0F10040BA
:1004E000002901DBC1F100418842704730B50B465D
:1004F000014600202022012409E021FA02F59D4254
:1005000005D303FA02F5491B04FA02F52844151E27
:10051000A2F10102F1DC30BD2DE9F05F05460020BB
:1005200092469B4688460646814640241BE0284664
:10053000414647462246FFF706FE53465A46C01A32
:10054000914110D3114618462246FFF7EDFD2D1AB2
:1005500067EB01084F46224601200021FFF7E4FD2A
:1005600017EB00094E41201EA4F10104DFDC4846D0
:1005700031462A464346BDE8F09F0029A8BF704790
:10058000401C490008BF20F00100704710B4B0FAC9
:1005900080FC00FA0CF050EA010404BF10BC704764
:1005A00049B1CCF1200421FA04F411FA0CF118BF7E
:1005B000012121430843A3EB0C01CB1D4FEA00614D
:1005C0004FEA102042BF002010BC704700EBC35020
:1005D00010440029A4BF10BC7047401C490008BF4C
:1005E00020F0010010BC70472DE9FE4F804681EAE3
:1005F0000300C00F0C46009021F0004123F000459D
:10060000B8EB0200A94105D24046214690461C465F
:100610000B46024623F00040104347D0270DC7F396
:100620000A00C3F30A510290401A019040286BDA85
:10063000C3F3130040F4801B0098924620B10023BE
:10064000D2EB030A63EB0B0B01985946C0F1400251
:100650005046FFF769FD06460D4650465946019A39
:1006600000F08CF910EB08006141002487EA115278
:1006700084EAE7731A4340D0009A62B3019A012AD0
:100680004FEA075215DC001B61EB02014FF00042FC
:1006900002EA0752CDE90042001C41F580113246C2
:1006A0002B4600F08CF903B0BDE8F08F40462146A0
:1006B000F9E7001B61EB0201001C41F580130018F3
:1006C0005B412018A2F5001747EB030140EAD57003
:1006D000B6196D4111E06D084FEA360645EAC0755E
:1006E0004FEA0752001B61EB0201001C41F580112B
:1006F00049084FEA30000019514132462B4603B0F9
:10070000BDE8F04F00F04CB90098012240000023F2
:10071000D0EB020263EBE073009821464FEAE074ED
:10072000B8EB000061EB0401E9E783F000435BE70D
:1007300081F0004158E72DE9FE4F81EA030404F0FF
:10074000004421F0004100944FF0000B23F00043DF
:1007500050EA01045ED052EA03045BD0C3F30A54AA
:10076000C1F30A552C44A4F2F3340194A0FB0254C3
:10077000C1F3130141F48011C3F3130343F4801355
:1007800001FB024400FB034E840A970A44EA8154A9
:1007900047EA8357A4FB076802958D0A05FB078586
:1007A0004FEA932C04FB0C542705029D4FEA065890
:1007B00047EA1637B5EB08056EEB070C870E920E6D
:1007C00047EA811742EA8312A7FB0201B6EB0B014D
:1007D00064EB00042B0D43EA0C335E1844EB1C5011
:1007E000DA465146E7FB0201C5F313044FEA0B3327
:1007F00043EA14534FEA0432019C43EA0603A4F18E
:100800000C040294009CCDE900B400F0D8F803B0C9
:10081000BDE8F08F00200146F9E72DE9F04D81EAAF
:10082000030404F0004B21F0004514464FF0000A89
:1008300023F0004150EA050220D054EA01021DD005
:10084000C5F30A570246C5F31303C1F31300C1F3FE
:100850000A5640F4801543F48013A7EB0608101BDA
:10086000D64608F2FD3873EB050002D308F1010803
:1008700001E092185B41B8F1000F03DA0020014655
:10088000BDE8F08D00204FF48011064684460EE04E
:10089000171B73EB050705D3121B63EB0503064318
:1008A0004CEA010C49084FEA300092185B4150EACB
:1008B0000107EDD152EA030012D082EA040083EA74
:1008C0000501084305D0101BAB4106D201220023CD
:1008D00006E000224FF0004302E06FF001025310E7
:1008E0001AEB06004CEB085110EB0A0041EB0B0130
:1008F000BDE8F04D00F054B8C1F30A52C1F3130142
:1009000040F2FF3341F480119A4202DA002001469E
:10091000704740F233439A42A2F2334202DC524221
:10092000FFF711BCFFF700BC30B5041E71F10004E5
:1009300004DB4FF00044404264EB0101141E73F1EC
:10094000000405DB1C464FF00043524263EB0403F6
:10095000994208BF904230BD064C074D06E0E06862
:1009600040F0010394E8070098471034AC42F6D3F6
:10097000FFF7C0FBF0590008105A0008202A06DBD8
:10098000CB17203A41FA02F043EAE07306E041FA5D
:1009900002F3D040C2F1200291400843194670474B
:1009A00010B5141E73F1000408DA401C41F1000177
:1009B00092185B411A4301D120F0010010BD2DE9CE
:1009C000F04D92469B4611B1B1FA81F202E0B0FAC5
:1009D00080F220329046FFF7A7FB04460F4640EA1C
:1009E0000A0041EA0B0153465A46084313D0114608
:1009F00053EA010019D0C8F140025046FFF7A3FBAB
:100A000005460E46504659464246FFF78DFB0843C1
:100A100005D0012004E020463946BDE8F08D0020D5
:100A2000054346EAE0762C4337430A986305E40A17
:100A3000A0EB08000022FD0A44EA47540A3002D520
:100A400000200146E9E7010510196941DDE9084583
:100A500000196941BDE8F04DA2E7FEE7704772B6A4
:100A6000FEE790F82020012A07D0022A05D0416A2B
:100A700041F48021416201207047006842690A43C5
:100A8000426100207047F0B590F820500468A468D7
:100A9000012D07D0022D05D0416A41F48021416229
:100AA0000120F0BD04F0806504F00066354301D1FB
:100AB000E50053D5C4F301640125A5401D608B6892
:100AC0004FF4C0759BB1CE6805EB041733434E68F5
:100AD00043EAC6030668F3514FF4C273076803EB99
:100AE00004130E69FE50097D012909D00DE00E881E
:100AF000CB6805EB041743EA46530668F351EBE76E
:100B00000168CE5846F48076CE501179D379567963
:100B100041EA036193791B0443EA062319434FF426
:100B2000C676036806EB041699511178D37841EA2A
:100B30000361937852781B0443EA022211434FF475
:100B4000C473026803EB0413D150006805EB041171
:100B5000425842F0010242500020F0BD416A41F487
:100B6000001141620120F0BD10B5026890F82030FC
:100B7000012B07D0022B05D0416A41F4802141624C
:100B8000012010BDD2F8000240F00100C2F80002BE
:100B9000087D00F01F0301209840D2F81C328343E7
:100BA000C2F81C32CB69B3B9D2F80C328343C2F815
:100BB0000C328C894B6864F31F434C6902EBC4040C
:100BC000C4F840320C890B6864F31F434C6902EB94
:100BD000C404C4F84432CB69012B16D1D2F80C32CC
:100BE0000343C2F80C320C884B6864F31F434C6912
:100BF00002EBC404C4F840320C89CB6864F31F4391
:100C00004C6902EBC404C4F844328B697BB1D2F85E
:100C100004320343C2F804320B6973B1D2F81432C0
:100C20000343C2F81432096A01290CD010E0D2F84B
:100C300004328343C2F80432EEE7D2F8143283431D
:100C4000C2F81432EFE7D2F81C120143C2F81C12AA
:100C5000D2F8000220F00100C2F80002002010BD0E
:100C60007047406A704770B590F82040012C07D05B
:100C7000022C05D0416A41F480214162012070BDFF
:100C800021B104682469A4072AD003E00468E46859
:100C9000A4071FD04FF4D874056804EB01142D5934
:100CA00005F0040595600DB305682D59ED085560F4
:100CB00005682C5904F00204D4604FF4DA74056816
:100CC00004EB01142E5906F00F06082E13D3082545
:100CD000156114E0416A41F400114162012070BDC8
:100CE000416A41F400114162012070BD05682D592F
:100CF0006D0D1560DCE72D5905F00F0515610568D0
:100D00002D59C5F30725956105682C59240C5461AC
:100D10004FF4DC72046802EB0112A4581C700468E2
:100D2000A458240A5C700468A458240C9C700468BD
:100D3000A258120EDA704FF4DE72046802EB011250
:100D4000A4581C710468A458240A5C710468A4584F
:100D5000240C9C710468A258120EDA7131B100683B
:100D6000016941F020010161002070BD0068C16887
:100D700041F02001C160F7E70246002092F8201000
:100D8000012901D002290CD111688A68520100D5CD
:100D900001208A68120100D5401C8968C90000D56D
:100DA000401C70472DE9F05F05460024286846691D
:100DB000D0F804908768D0F80CA0D0F810B0D0F824
:100DC0001880F10748D0F90714D001218160B807D5
:100DD00003D5284600F02CFA0CE0780702D54FF432
:100DE000006407E0380702D54FF4805402E028463B
:100DF00000F01DFAF80516D529684FF48070886058
:100E0000B80503D5284600F015FA0CE0780502D5A0
:100E100044F4005407E0380502D544F4804402E06D
:100E2000284600F006FAF80316D529684FF48030FA
:100E30008860B80303D5284600F0FEF90CE078037B
:100E400002D544F4004407E0380302D544F480346A
:100E500002E0284600F0EFF9300707D55FEACA60E4
:100E600004D544F4007429681020C86070074FF05E
:100E7000080707D55FEA0A7004D52868C7602846C6
:100E800000F076F9B00706D52868C068800702D060
:100E9000284600F06FF9700607D55FEACB6004D5ED
:100EA00044F48064296810200861B00607D55FEA21
:100EB0000B7004D528680761284600F089F9F00610
:100EC00006D528680069800702D0284600F081F91D
:100ED000B00308D55FEAC96005D5296810204860CD
:100EE000284600F077F9F00307D55FEA097004D5CA
:100EF00028684760284600F0A0F9300446D55FEA2C
:100F0000497040D5F00504D55FEAC87001D044F0BF
:100F10000104B00504D55FEA887001D544F00204ED
:100F2000700504D55FEA487001D544F0040430052B
:100F300029D518F0700F26D008F07000402815D081
:100F400006DC102809D020280AD0302816D10AE063
:100F500050280ED0602811D10EE044F008040DE0B6
:100F600044F010040AE044F0200407E044F0400498
:100F700004E044F0800401E044F48074286881694E
:100F800021F070018161296804204860002C05D09F
:100F9000686A204368622846FFF762FEBDE8F09F5A
:100FA00070B50446002C03D094F8200010B104E082
:100FB000012070BD204600F09DF82068016841F0D6
:100FC0000101016000F054FA054605260CE000F02E
:100FD0004FFA401B0A2807D9606A40F4003060626B
:100FE00084F82060012070BD20684068C007EED002
:100FF0002068016821F00201016000F039FA05461D
:101000000CE000F035FA401B0A2807D9606A40F46A
:101010000030606284F82060012070BD2068406864
:101020008007EED4207E01283FD02068016821F09F
:1010300080010160607E01283DD02068016821F0B8
:1010400040010160A07E01283BD02068016821F0AA
:1010500020010160E07E012839D02068016841F05C
:1010600010010160207F012837D02068016821F03D
:1010700008010160607F012835D02068016821F0F7
:1010800004010160D4E902010843D4E904121143C8
:1010900008436168491E08432168C86100206062F6
:1010A000012084F82000002070BD2068016841F014
:1010B00080010160BEE72068016841F040010160E5
:1010C000C0E72068016841F020010160C2E72068A4
:1010D000016821F010010160C4E72068016841F057
:1010E00008010160C6E72068016841F00401016061
:1010F000C8E7000010B586B0002102910391049169
:1011000005910068174988422AD11748C16941F002
:101110000071C161C16901F000710191816941F003
:1011200004018161806900F0040001904FF40060C7
:1011300002900E4C02A9204600F092F8A1140291F0
:10114000022103910321059102A9204600F088F8AD
:1011500000221146142000F0F9F9142000F0E8F9FB
:1011600006B010BD006400400010024000080140BD
:101170007047000000B58DB06B4602AA0021FFF752
:1011800072FD00281FD1039820F0604040F000401D
:1011900009900598022803D1099840F080400990F1
:1011A00006988DF8300069460AA8069AFEF7DBFF1C
:1011B00000F05EF94FF47A7100FB01F2002309A9F7
:1011C000024802F0BFFA0DB000BD00000C0500207F
:1011D00070477047704770B5044694F820000128A6
:1011E00005D0606A40F400206062012070BD0220DA
:1011F00084F820002068016821F00101016000F0FE
:1012000037F905460DE000F033F9401B0A2808D9EC
:10121000606A40F400306062052084F820000120FC
:1012200070BD20684068C007EDD1606270BD704736
:1012300070477047704770477047704770B50446F5
:1012400000F016F90546601C02D0044800780444FA
:1012500000F00EF9401BA042FAD370BD98000020A8
:101260002DE9F84F00240023DFF8C4914FF00F0858
:10127000A9F1040B09F1040AABF1040ED1E0012736
:10128000A7403A40BA4275D1DFF8A8C14D68A5EB36
:101290000C0665452BD00DDC032D34D005DC35B3B1
:1012A000012D19D0022D2FD11BE0112D16D0122D9A
:1012B0002AD119E0B6F5881F19D006DCB6F5803FB3
:1012C00015D0B6F5801F1FD111E0B6F5001F0ED066
:1012D000B6F5041F18D10AE0CB6815E0CB681B1DDA
:1012E00012E0CB6808330FE0CB680C330CE08B685E
:1012F00023B1012B04D00823476105E0042303E058
:101300000823076100E00023FF2A01D8054601E019
:1013100000F1040502D84FEA840603E0A4F10806B0
:101320004FEA86062F6808FA06FC27EA0C0703FA3C
:1013300006F647EA06072F604D68ED0070D53E4D72
:10134000AE6946F00106AE61AD6905F00105009594
:101350003A4D24F003067719BE68A5072D0F08FA49
:1013600005FC26EA0C06DFF8D8C0604503D14FF033
:10137000000C17E054E0DFF8CCC0604502D14FF01C
:10138000010C0FE0DFF8C0C0604502D14FF0020C45
:1013900008E0DFF8B8C0604502D14FF0030C01E06F
:1013A0004FF0040C0CFA05FC4CEA060CC7F808C018
:1013B0004D68ED0205D5D9F800501543C9F8005025
:1013C00004E0D9F800509543C9F800504D68AD02CB
:1013D00005D5DAF800501543CAF8005004E0DAF8F1
:1013E00000509543CAF800504D68AD0305D5DBF8B1
:1013F00000501543CBF8005004E0DBF80050954353
:10140000CBF800504D68ED0305D5DEF800501543CC
:10141000CEF8005004E0DEF800509543CEF80050BE
:10142000641C0A6832FA04F57FF429AFBDE8F88F2E
:1014300008040140000011100010024000000140AB
:1014400000080140000C0140001001400014014060
:10145000C26821EA02030A4043EA0241016170477F
:10146000002A01D001617047090401617047000042
:101470000148806870470000980000200248816899
:1014800002781144816070479800002010B5074829
:10149000016841F010010160032000F077F80F208F
:1014A00000F006F800F026F8002010BD00200240F1
:1014B00070B504460D4D4FF47A712878B1FBF0F009
:1014C0000B490968B1FBF0F000F02AFB08B10120DC
:1014D00070BD102C07D200222146501E00F036F8B5
:1014E0006C60002070BD012070BD000098000020DD
:1014F000A400002008B50C48816941F00101816118
:10150000816901F001010091C16941F08051C1611F
:10151000C06900F0805000900449486820F0E06005
:1015200040F08060486008BD0010024000000140AB
:10153000002809DB00F01F020121914040098000D2
:1015400000F1E020C0F8001170470000F0B40D4633
:101550000D4B1B68C3F30223C3F10704042C00D90D
:101560000424191D072901D2002300E0DB1E0126F7
:1015700006FA04F1491E294099409E40761E164005
:101580003143F0BC01F0C0B80CED00E000F0070101
:10159000054A10684FF6FF03184040EA012003494E
:1015A00008431060704700000CED00E00000FA05F1
:1015B0002DE9F04704460D46002C17D0DFF83081A6
:1015C000D8F8000000F00700A84211D2D8F80000B7
:1015D00020F007002843C8F80000D8F8000000F009
:1015E0000700A84204D00120BDE8F0870120FBE7F6
:1015F0002068404E810712D5400703D5706840F43B
:10160000E06070602078000703D5706840F4605097
:1016100070607068A16820F0F00008437060207866
:10162000C0072CD06068012806D0022809D0316894
:1016300089070BD40120D7E73168890306D401203C
:10164000D2E73168890101D40120CDE7716821F02A
:10165000030101437160FFF70BFF074641F2883930
:1016600006E0FFF705FFC01B484501D90320BBE793
:101670007068616800F00C00B0EB810FF1D1D8F810
:10168000000000F00700A8420ED9D8F8000020F0B2
:1016900007002843C8F80000D8F8000000F0070051
:1016A000A84201D001209FE72078400705D5706847
:1016B000E16820F4E060084370602078000706D5F8
:1016C0007068216920F4605040EAC100706000F049
:1016D0003FF87168084AC1F30311515CC8400749DB
:1016E000086007480068FFF7E3FE00207CE7000081
:1016F000002002400010024002590008A40000200F
:101700009C0000200148006870470000A4000020F1
:1017100000B5FFF7F7FF04494968044AC1F3022105
:10172000515CC84000BD0000001002401259000882
:1017300000B5FFF7E7FF04494968044AC1F3C22135
:10174000515CC84000BD0000001002401259000862
:101750000E4B59680E4801F00C02042A11D0082AD9
:101760000FD10C48C1F38342805CC9030AD5596884
:10177000084AC1F34041921E515C054A5043B0FBF8
:10178000F1F07047044948437047000000100240E0
:1017900000127A00F258000800093D002DE9F84FC8
:1017A0000446002C0ED02078D94DC0075ED0686862
:1017B000C0F3810001280BD06868C0F381000228C3
:1017C00003D00CE00120BDE8F88F6868C00306D59F
:1017D000286880034AD56068A8BB0120F3E76068E9
:1017E000B0F5803F11D0A8B1B0F5A02F1BD028686C
:1017F00020F480302860286820F480202860606809
:1018000030B3FFF735FE06461EE0286840F480300E
:101810002860F4E7286820F480302860286820F4E5
:1018200080202860EBE7286840F480202860286842
:1018300040F480302860E2E7FFF71AFE801B64283E
:1018400002D90320BFE711E028688003F4D50DE03A
:10185000FFF70EFE064606E0FFF70AFE801B64282F
:1018600001D90320AFE728688003F5D42078DFF89A
:10187000A48280074FF0010A4FF0000945D568683F
:1018800010F00C0F07D06868C0F38100022812D155
:101890006868C0030FD42868800704D52069012830
:1018A00001D001208FE72868616920F0F80040EA44
:1018B000C100286029E02069B8B1C8F800A0FFF78E
:1018C000D7FD064606E0FFF7D3FD801B022801D9AD
:1018D000032078E728688007F5D52868616920F03B
:1018E000F80040EAC10028600FE0C8F80090FFF758
:1018F000BFFD064606E0FFF7BBFD801B022801D9AD
:10190000032060E728688007F5D42078000726D5F3
:101910008148A16999B1C0F800A0FFF7A9FD06466A
:1019200006E0FFF7A5FD801B022801D903204AE746
:10193000686A8007F5D5012000F096FC0FE0C0F83A
:101940000090FFF795FD064606E0FFF791FD801B2E
:10195000022801D9032036E7686A8007F5D4207889
:10196000400773D50026E869C00008D4E86940F054
:101970008050E861E86900F0805000900126DFF8AF
:101980009CB1DBF80000C00514D4DBF8000040F483
:101990008070CBF80000FFF76BFD074606E0FFF70D
:1019A00067FDC01B642801D903200CE7DBF80000A9
:1019B000C005F4D5E068012812D0B0B105281DD0CB
:1019C000286A20F001002862286A20F004002862BA
:1019D000E06841F2883B28B3FFF74AFD07461DE067
:1019E000286A40F001002862F2E7286A20F001002E
:1019F0002862286A20F004002862E9E7286A40F09B
:101A000004002862286A40F001002862E0E7FFF73E
:101A10002FFDC01B584501D90320D4E6286A800752
:101A2000F5D50DE0FFF724FD074606E0FFF720FDA2
:101A3000C01B584501D90320C5E6286A8007F5D4A4
:101A4000012E03D1E86920F08050E861E069A0B37D
:101A50006968C1F38101022946D0022805D0C8F87F
:101A60006090FFF705FD04463AE0C8F86090FFF784
:101A7000FFFC064606E0FFF7FBFC801B022801D9AD
:101A80000320A0E628688001F5D4206AB0F5803FE5
:101A900005D16868A16820F4003008436860D4E983
:101AA00008010843696821F4741108436860C8F8A4
:101AB00060A0FFF7DDFC044607E026E0FFF7D8FC56
:101AC000001B022801D903207DE628688001F5D596
:101AD0001BE0FFF7CDFC001B022801D9032072E6B2
:101AE00028688001F5D410E001280CD06868226ACB
:101AF00000F48031914204D1616A00F47010884290
:101B000003D001205FE601205DE600205BE60000D7
:101B10000010024000004242800442420070004037
:101B200010B5401EB0F1807F01D3012010BD4FF0F1
:101B3000E02460610F21601700F0E6FD0020A06145
:101B400007202061002010BD70B590F83C20012ACC
:101B500025D0012680F83C60022280F83D200268F2
:101B60005468936824F070050C682C4354600D4C45
:101B70000268A24208D0B2F1804F05D00A4CA242BE
:101B800002D00A4CA24204D123F0800349681943D1
:101B900091603C30467000210170002070BD022031
:101BA00070BD0000002C014000040040000800400F
:101BB00010B50446002C03D094F83D0010B107E0A6
:101BC000012010BD002084F83C00204600F016F8EB
:101BD000022084F83D00211D206800F08BFB0120CD
:101BE0003D3460726070A070E07020716071A0710F
:101BF000E07120722070002010BD000008B5006860
:101C0000B0F1804F08D10548C16941F00101C161BF
:101C1000C06900F00100009008BD00000010024003
:101C200070B50446002594F83C00012817D0012621
:101C300084F83C60022084F83D002068826822F02D
:101C4000770222F47F4282600868502838D00DDC89
:101C5000202853D005DC90B3102811D14EE002208B
:101C600070BD30284AD040280AD13DE0602831D0EC
:101C700070280CD0B0F5805F03D0B0F5005F12D0B3
:101C800001253C34667000202070284670BDCB686A
:101C9000D1E90121206800F076FB2068816841F0DD
:101CA00077018160EDE7CB68D1E90121206800F080
:101CB0006AFB2068816841F480418160E1E71DE0B2
:101CC000CA684968206800F027FC5021206800F0AD
:101CD00064FBD6E7CA684968206800F02EFC6021E2
:101CE000206800F05AFBCCE7CA684968206800F019
:101CF00013FC4021206800F050FBC2E72268014637
:101D0000104600F04AFBBCE700B585B00021019108
:101D10000291039104910068B0F1804F11D10A48FB
:101D2000816941F004018161806900F00400009044
:101D30000F20019002200290049001A90348FFF7B0
:101D40008FFA05B000BD00000010024000080140FD
:101D500070B504460D46002694F83C0001280FD0CB
:101D6000012084F83C006AB1042A1FD0082A32D02E
:101D70000C2A44D00126002084F83C00304670BD77
:101D8000022070BD2946206800F010FB20688169A0
:101D900041F0080181612068816921F004018161BD
:101DA000206881692A6911438161E4E72946206836
:101DB00000F02CFB2068816941F40061816120689A
:101DC000816921F480618161206881692A6941EA21
:101DD00002218161CFE72946206800F049FB206895
:101DE000C16941F00801C1612068C16921F00401A5
:101DF000C1612068C1692A691143C161BBE72946F5
:101E0000206800F065FB2068C16941F40061C16190
:101E10002068C16921F48061C1612068C1692A69B3
:101E200041EA0221C161A6E710B50446002C03D0A7
:101E300094F83D0010B107E0012010BD002084F8A7
:101E40003C00204600F015F8022084F83D00211DDA
:101E5000206800F04FFA01203D3460726070A0707D
:101E6000E07020716071A071E0712072207000201C
:101E700010BD704710B50446002909D004290AD0C6
:101E800008290BD094F8410001280AD0012010BD88
:101E900094F83E00F8E794F83F00F5E794F8400026
:101EA000F2E7022039B3042928D0082929D084F880
:101EB00041000122206800F059FA16492068884242
:101EC00003D1426C42F4004242642068884208D048
:101ED000B0F1804F05D01049884202D00F498842A6
:101EE00012D1816801F00701062911D0016841F083
:101EF000010101600CE084F83E00DAE784F83F005D
:101F0000D7E784F84000D4E7016841F0010101609F
:101F1000002010BD002C01400004004000080040DB
:101F200070B50446002C04D094F84100002510B18F
:101F300006E0012070BD84F84050204600F024F8EF
:101F4000242084F841002068C16821F40051C16058
:101F5000204600F02BFB2068016921F490410161CB
:101F60002068416921F02A0141612068C16841F47B
:101F70000051C1606564202084F8410084F842006B
:101F80006563002070BD000030B585B00024019469
:101F900002940394049400681449884224D114489C
:101FA000816941F480418161816901F4804100913E
:101FB000816941F004018161806900F004000090B2
:101FC0004FF4007001900220029003200490094D0C
:101FD00001A92846FFF744F92915019102940394B9
:101FE00001A92846FFF73CF905B030BD0038014093
:101FF00000100240000801402DE9F84304460E4657
:1020000015461F4694F84100202802D00220BDE862
:10201000F8837EB175B100206064212084F841000E
:10202000FFF726FA8146A584E584A068B0F5805FB5
:1020300002D003E00120EAE7206920B135460026FE
:102040004FF0200815E00025FAE74B4600228021DA
:102050002046009700F006FB18B184F84180032069
:10206000D5E7ADB1216815F8010B4860E08C401E42
:10207000E084E08C0028E8D14B4600224021204635
:10208000009700F0EFFA50B184F841800320BEE7DA
:1020900036F8020B2168C0F308004860E6E784F8D0
:1020A00041800020B3E7FEE710B50F480D490160FD
:1020B0000221416000218160C1604FF42022026151
:1020C000D20042610176012242768176C2760177A2
:1020D0004177FEF765FF002803D0BDE81040FEF70A
:1020E000BEBC10BD006400405C15002070B586B019
:1020F000002402940394049405941648816941F0E5
:1021000010018161816901F010010191816941F043
:1021100020018161816901F020010191816941F013
:1021200004018161806900F0040001900A4E4FF4BF
:102130000055002229463046FFF792F90295012109
:10214000039104940221059102A93046FFF788F813
:1021500006B070BD001002400010014010B58EB0F6
:1021600000240A940B940C940D94089409941C2157
:1021700001A8FEF711F82B484FF08041016047217C
:102180004160846040F2CF71C16004618461FFF7F7
:102190000FFD08B1FEF763FC4FF480500A900AA9C6
:1021A0002048FFF73DFD08B1FEF759FC1D48FFF739
:1021B0003BFE08B1FEF753FC0894099408A919489E
:1021C000FFF7C2FC08B1FEF74AFC6020019040F224
:1021D000E730029003940594002201A91148FFF70B
:1021E000B7FD08B1FEF73BFC042201A90D48FFF73B
:1021F000AFFD08B1FEF733FC082201A90948FFF73B
:10220000A7FD08B1FEF72BFC0C2201A90548FFF73A
:102210009FFD08B1FEF723FC0248FFF775FD0EB0E5
:1022200010BD00008415002010B50C480A4901605B
:102230004FF4E131416000218160C16001610C22F5
:1022400042618161C161FFF76BFE002803D0BDE8E8
:102250001040FEF704BC10BD00380140CC15002032
:10226000FEE7FEE77047000008B507494FF4FA5251
:102270000968B1FBF2F14143009100BF0098411E93
:102280000091FAD208BD0000A40000207047FFF7BB
:10229000F5B830B58FB0282105A8FDF77DFF1421D2
:1022A0006846FDF779FF0121059108040690002496
:1022B0000794099102250C950D904FF4E0100E90B3
:1022C00005A8FFF76BFA08B1FEF7C9FB0F200090D5
:1022D000019502944FF480600390049402216846B3
:1022E000FFF766F9002801D0FEF7B9FB0FB030BD4B
:1022F00070470000F0B50268194C1A4D1A4E4FF0A5
:102300008047A04205D0B84203D0A84201D0B042D5
:1023100003D122F070034A681A43A04205D0B842A4
:1023200003D0A84201D0B04203D122F44073CA685E
:102330001A434B6922F080021A4302608A68C26223
:102340000A688262A04201D10969016301214161E9
:102350000169C90703D0016921F001010161F0BDE4
:10236000002C0140000400400008004010B501F0BE
:102370001F0101238B40046A9C430462036A8A4064
:102380001343036210BD10B5846824F47F4442EA0D
:1023900003220A432243826010BD826822F0700249
:1023A0000A4342F0070181607047000030B5026ABD
:1023B000036A23F0010303624368846924F0700414
:1023C00024F003050C682C4322F002058A682A4396
:1023D0000D4DA84206D122F00802CD6845EA02055B
:1023E00025F0040209D123F4807323F400734D69AE
:1023F00045EA03058B6943EA050343608461496844
:102400004163026230BD0000002C014030B5036A18
:10241000026A22F0100202624268846924F4E044F5
:1024200024F440740D6844EA052423F020038D68E9
:1024300043EA05130D4DA84206D123F08003CD6871
:1024400043EA051323F0400309D122F4806222F409
:1024500000624D6942EA85028D6942EA8502426066
:10246000846149688163036230BD0000002C014033
:1024700030B5026A036A23F4807303624368C46957
:1024800024F0700424F003050C682C4322F400723D
:102490008D6842EA05220D4DA84206D122F4006261
:1024A000CD6842EA052222F4806209D123F48053E8
:1024B00023F400534D6943EA05138D6943EA05137C
:1024C0004360C4614968C163026230BD002C0140B1
:1024D00030B5036A026A22F4805202624268C4691B
:1024E00024F4E04424F440740D6844EA052423F401
:1024F00000538D6843EA0533064DA84204D122F407
:1025000080424D6942EA85124260C46149680164B3
:10251000036230BD002C014010B5036A046A24F048
:1025200001040462846924F0F00444EA021423F0F4
:102530000A020A438461026210BD10B5036A046A8C
:1025400024F010040462846924F4704444EA0232E2
:1025500023F0A00343EA01118261016210BD01680A
:102560000C3151E8002F22F4907241E80023002B37
:10257000F5D10168143151E8002F22F0010241E841
:102580000023002BF5D1016B012909D101680C3121
:1025900051E8002F22F0100241E80023002BF5D172
:1025A000202180F8421000210163704770B5044675
:1025B00020680169E26821F4405111430161A1687A
:1025C00020690143606901432068C26841F20C63DD
:1025D0009A430A43C26020684169A26921F44071AC
:1025E000114341611E492068884202D1FFF7A0F8DB
:1025F00001E0FFF78DF800EBC00101EB001061680E
:1026000064228900B0FBF1F3B3FBF2F36FF018061C
:102610007343B0FBF1F5B0FBF1F605EB8305322314
:1026200003EB0515B5FBF2F5B6FBF2F605F0F00588
:1026300005EB0615B0FBF1F6B0FBF1F0B0FBF2F0E4
:102640006FF01801484306EB800003EB0010B0FB6D
:10265000F2F0216800F00F002844886070BD00008F
:10266000003801402DE9F84304460D4617469846C8
:10267000089E25E0701C23D0FEF7FAFEA0EB0800B0
:10268000B0421BD8D6B12068C168490718D5802D43
:1026900016D0402D14D00168C943090710D4002575
:1026A00021680968406800902046FFF758FF08201D
:1026B000606484F840500120BDE8F8830320FBE704
:1026C0002068006835EA000004D00020B842D1D06C
:1026D0000020F1E70120F9E70148FEF763BB0000A5
:1026E0005C150020FEE700000FB4054B10B503A9F0
:1026F000044A029800F0EAF810BC5DF814FB0000F0
:1027000041410008A80000200907090E002804DB49
:1027100000F1E02080F80014704700F00F0000F195
:10272000E02080F8141D704702E008C8121F08C19D
:10273000002AFAD170477047002001E001C1121F42
:10274000002AFBD1704700002DE9FF5F82B0002115
:10275000DDE90430020DDDF840B0034318D044F643
:102760001050A2F2FF3242431514119801281FD0D5
:10277000A5EB0B00401C5FEA000A4FF000064E4F2D
:10278000DFF83891B046504615D5CAF1000413E081
:10279000119801244AA3012801D16FEA0B01029884
:1027A000119AC0E90031C0E9024206B0BDE8F09FCD
:1027B000CBF10000DFE704460021404A491842EB14
:1027C0000450CDE9001012E0E00707D032463B4646
:1027D00040464946FDF7AFFF8046894632463B46B4
:1027E00010461946FDF7A7FF06460F466410002C59
:1027F000EAD1DDE90401DDE90023BAF1000F06DAD0
:10280000FDF799FF42464B46FDF795FF05E0FEF7C1
:1028100004F842464B46FEF700F804460E460022F6
:10282000284BFEF781F803D84FF0FF30014607E050
:102830000022254B20463146FDF7D6FEFEF75CF818
:10284000102409E0002C0ADB0A220023FDF764FEB5
:10285000039B30321A55641E50EA0102F2D1641C07
:10286000039AC4F111031444119A012A03D00122DE
:1028700008430DD10AE0084304D000204FF0110BAB
:10288000119072E7A3EB0B056D1E0DE05B4504DDB7
:102890004FF0000205F1010504E003DA4FF00002F9
:1028A000A5F10105002AECD002981199C0E9023186
:1028B000C0E9004579E70000000014400000F03F47
:1028C000300000000000F0430000E03F2DE9FF4F22
:1028D00095B09A46884606460025EEE1252877D130
:1028E00000242746F94A0121039400E0044316F826
:1028F000013F203B01FA03F01042F7D130782A283B
:1029000011D06FF02F033078A0F13002092A16D8C9
:10291000039A44F0020402EB820203EB42021044E9
:10292000761C0390EFE758F8042B0392002A03DA91
:10293000504244F40054039044F00204761C307872
:102940002E2816D116F8010F44F004042A280DD0C1
:102950006FF02F023078A0F13003092B09D807EB74
:10296000870302EB4303C718761CF3E758F8047B90
:10297000761C30786C280FD006DC4C2817D06828DD
:102980000DD06A2814D104E0742810D07A280FD111
:102990000DE044F400140AE044F4801401E044F42F
:1029A00040147278824202D104F58014761C761CA1
:1029B000307866280BD013DC582877D009DC002843
:1029C00075D04528F6D04628F4D047281AD193E18F
:1029D00018E0632835D0642879D0652812D18BE1BE
:1029E000702873D008DC6728F1D069286FD06E2872
:1029F0000DD06F2806D1ACE073282CD0752874D088
:102A0000782853D05246179990476D1C54E1C4F36F
:102A10000250022809D003280DD0D8F8001004284D
:102A20000DD00D6008F1040846E1D8F80010EA174F
:102A3000C1E90052F6E7D8F800100D80F2E70D70FA
:102A4000F0E718F8041B8DF8001000208DF8010045
:102A5000EB46012003E058F804BB4FF0FF3061075C
:102A60004FF0000102D40DE009F101018946B9429D
:102A70000FDA8145F8DB1BF809100029F4D108E0D2
:102A800009F1010189468142FADB1BF8091000298E
:102A9000F6D103985346A0EB090721463846179A0A
:102AA00000F080FA284400EB090507E044E008E163
:102AB0000DE01BF8010B524617999047B9F1010937
:102AC000F7D2534621463846179AF2E039E00A21F8
:102AD000C4F302524FF0000B0091022A06D058F8BE
:102AE000040BC117032A09D00AE023E008F107000C
:102AF00020F00702F2E80201904605E000B2C1179B
:102B0000042A01D140B2C117002906DA0A46002181
:102B1000404261EB02012D2202E0220504D52B2266
:102B20008DF80420012203E0E20701D02022F7E71C
:102B3000914657E00A2100E010214FF0000B009170
:102B40000BE010214FF0000B44F004040827009123
:102B500003E008204FF0000B0090C4F30252022A59
:102B600005D058F8040B0021032A08D008E008F12A
:102B7000070020F00702F2E80201904603E080B26D
:102B8000042A00D1C0B24FF0000922072AD53278BA
:102B9000702A07D0DDF800C08CF0100C5CEA0B0C3A
:102BA00005D00EE040228DF80420012208E050EA12
:102BB000010306D030238DF804308DF80520022261
:102BC0009146009B83F0080353EA0B030AD150EAB5
:102BD000010201D1620705D530228DF804204FF0A3
:102BE00001097F1E3278582A04D039A20C920CAA0F
:102BF00002920BE03BA2F9E75B46009AFDF78CFCE2
:102C00000C9B9B5C029A521E0292137050EA0102C6
:102C1000F2D1029804A9081A00F1200B600702D52E
:102C200024F4803400E001275F4502DDA7EB0B00B0
:102C300000E0002000EB0B01009003984944401A8B
:102C40000390E00306D453462146179A039800F0F8
:102C5000A9F90544002706E001A85246C05D17996E
:102C600090476D1C7F1C4F45F6DBE0030CD55346A7
:102C70002146179A039800F095F9054404E03020A6
:102C80005246179990476D1C0099481E00900029E4
:102C9000F5DC08E00298029952460078491C02913E
:102CA000179990476D1CBBF10001ABF1010BF1DCF2
:102CB0005BE100F065F90544761C307800287FF46C
:102CC0000DAE19B02846BDE8F08F000009280100BC
:102CD0003031323334353637383961626364656692
:102CE0000000000030313233343536373839414254
:102CF0004344454600000000600700D4062708F161
:102D0000070020F00700F0E80223804603F0004CA3
:102D10005FEA0C0001D097A009E0200501D596A03C
:102D200005E0E00701D095A001E0AFF24C00139060
:102D3000307823F0004365280CD006DC452809D004
:102D400046281DD047287FD13BE0662818D0672849
:102D50007AD136E00021112F01DB112000E0781C30
:102D6000CDE9000104A90CA8FFF7EEFCDDE90D0197
:102D70000C9A4FF0000B07F10109109200914EE000
:102D80004FF000400097CDE9011004A90CA8FFF70F
:102D9000DBFCDDE90D020C9B0F994FF0000B914617
:102DA0001093009211B9791C00EB0109B7EB0900EF
:102DB00003D4C0F1FF3B07F10109A9EB0700019023
:102DC00042E0012F00DA01270021112F01DD11203F
:102DD00000E03846CDE9000104A90CA8FFF7B4FCD7
:102DE000DDE90D010C9A00914FF0000BB9461092ED
:102DF00021070FD4009A4A4503DA914601E0A9F170
:102E00000109B9F1010F05DD109AA9F10101515C29
:102E10003029F4D0B84202DA10F1040F03DA0121AC
:102E2000CDE9011010E0002803DC8344A9EB000188
:102E300002E0411C494500DD8946A0EB0B00401C27
:102E400001904FF000400290200705D401984845BA
:102E500002DB4FF0FF30019000208DF84B0002980C
:102E60000DF14B07B0F1004F25D002200C902B2024
:102E70000D90029800280CDA404202902D200D900F
:102E800007E00A210298FDF731FB3031029007F884
:102E9000011D0C99481E0C900029F2DC02980028B4
:102EA000EFD1791E0D980870307800F0200040F0C6
:102EB000450007F8020D11A8C01BC01D0290139811
:102EC000007800B1012000EB0901019801EBE071ED
:102ED000029801440398401A401E0390E00306D470
:102EE00053462146179A039800F05CF8054413985E
:102EF000007818B15246179990476D1CE00323D50E
:102F000053462146179A039800F04CF805441BE0FD
:102F1000BBF1000F07DB0098584504DD10981799A6
:102F200010F80B0001E017993020524690470198A5
:102F30000BF1010B401E05F10105019004D12E207B
:102F40005246179990476D1CB9F10001A9F101098A
:102F5000DEDC05E017F8010B5246179990476D1C0F
:102F60000299481E02900029F4DC53462146179A24
:102F700003989EE62D0000002B00000020000000BA
:102F80002DE9F041044600251E461746880404D466
:102F900005E039462020B0476D1C641EF9D528464F
:102FA000BDE8F0812DE9F041044600251E4690461B
:102FB000C80301D5302700E02027880404D505E0A8
:102FC00041463846B0476D1C641EF9D52846BDE819
:102FD000F0814268002A0BD0116841604189491C88
:102FE00089B2418183898B4200D28181104670472A
:102FF000002070472DE9FF5F884691461F46002458
:10300000D8F81400C0F30940052809D11AE008EBEC
:10301000000219F80410D176401C80B2641CA4B2DE
:10302000052801D2BC42F2D3BC420BD3D8F814001D
:1030300007EB104161F31940C8F81400012004B0F7
:10304000BDE8F09FD8F814004FF01C0BC0F3094006
:10305000401FB0FBFBF10BFB110AD8F8041029B19B
:103060000126009800F0EDF8054613E0009800F006
:10307000A9FE05462946009800F0E5F8C8F80400C6
:1030800015B14FF0000A39E06FF00200D7E7761C67
:10309000B6B2054628680028F9D1D8F81400C0F364
:1030A00009403844401FB0FBFBF0401C80B2B042E6
:1030B00024D9BAF1000F21D1009800F083FE2860D6
:1030C00008B105461AE06FF00200B8E7564607E07F
:1030D000A91919F804000871761CB6B2641CA4B2D0
:1030E0001C2E01D2BC42F3D3BC4207D2009800F0A0
:1030F00069FE286070B105464FF0000ABC42E5D376
:10310000D8F8140007EB104161F31940C8F8140017
:10311000012094E76FF0020091E710B504464FF6E6
:10312000FF70218C072909D9D4E9022300F033FE6E
:10313000228CE169BDE8104000F00CBE10BD2DE905
:10314000F04F8BB014AF064697E8800F14461D462B
:1031500028216846FDF720F8CDE90245ADF810704A
:10316000CDF814808DF81890CDF81CA0ADF820B0E3
:103170006946304600F003F80BB0BDE8F08F2DE94A
:10318000F04107460C466FF00101E069002804D1C8
:10319000208C10B10846BDE8F081207E1F2801D99F
:1031A0000846F8E74FF6FF76384600F0C8FAD8B17F
:1031B000384600F0C4FA217E228A090641EA02213B
:1031C00040EA01052046FFF7A8FF0646234632469F
:1031D0002946384600F0DFFE0546002D02DD606915
:1031E00001F07CFA2846D6E7208A012805D0228CF7
:1031F000072A02D96FF00300CDE7800801D0084606
:10320000C9E7228C3046E16900F0A4FD47F6FE7163
:103210000140384600F093FA0546207E000640EA59
:103220004121208A00F0030241EA02210D430128D6
:10323000CCD1208C0728C9D92046FFF76EFF06465F
:10324000C4E7084670470846704700002DE9F0477C
:103250000546174698462E6A344605F10C0933E0B8
:10326000D4E902013A1A68EB0100194B00219A1ABD
:10327000814123D2286AA04210D12146284601F07C
:1032800039FE286A0168484600F01BFD2862214685
:10329000484600F061FF2C6A264615E02146284684
:1032A00001F028FE206830602146484600F054FFB7
:1032B0004846316800F005FD044605E026464846CC
:1032C000216800F0FEFC0446002CC9D1BDE8F0875F
:1032D00080841E00FEB505460B48C1680291046952
:1032E000019468040009FCF7EBFF064600902146B4
:1032F000FDF7F2F802D846F0FF400090009805F480
:10330000004140EA0140FEBDC45800082DE9FC5FC1
:1033100006460C9D144698466FF00100002E18D00A
:10332000002D16D0A4F1010ABAF1400F11D2012CE0
:1033300002D1B8F1000F0CD10020009001906B4633
:103340002246304600F088FD8146B9F1000F02DCCC
:103350004846BDE8FC9F600708D0684600EBD400F3
:103360006242017802F00702D14001706FF0080B51
:10337000012C03D0082C03D801260CE001260AE01A
:10338000102C01D8022606E0202C01D8042602E0E9
:10339000402C1ED8082601F0BDF918B13146684608
:1033A00001F05EFEB8F1000F43D0B4EBC60F40D081
:1033B000601E012101FA00F0A140491EC943082CFA
:1033C00009D89DF80020024233D00A438DF800202E
:1033D0002FE05846BDE7102C07D8BDF80020024268
:1033E00027D00A43ADF8002023E0202C05D8009A0E
:1033F00002421ED00A4300921BE0402C22D2DDE99B
:103400000067524601200021FCF78EFE304007EA9B
:10341000010210430DD0224601200021FCF784FE5A
:10342000401E41F1FF32C1430E4367EA0207CDE976
:103430000067B8F1000F1AD0082C05D89DF80000DD
:10344000287030E0584684E7102C03D8BDF80000FF
:10345000288028E0202C02D80098286023E0402C07
:1034600003D8DDE9000103C51DE0584671E7012CD2
:1034700005D0082C07D89DF80000287013E09DF8AF
:10348000000028700FE0102C03D8BDF80000288041
:1034900009E0202C02D80098286004E0402C04D8D1
:1034A000DDE9000103C5484653E7584651E7007C73
:1034B0007047000070B58EB004460E46207C002890
:1034C0003BD107A80690B18A06AB0BAA304601F0A3
:1034D0008BFF002831DB9DF83030032B02D90D988B
:1034E000C07800E00020022B02D90D99897800E015
:1034F0000021012B02D90D9A527800E0002213B16D
:103500000D9D2D7800E00025CDE90152CDE9031095
:103510009DF82D0000909DF82C20F17E1348FFF7B8
:10352000E3F89DF8302021460D98FCF755FE30B1A8
:103530009DF830100EA0FFF7D7F80EB070BD9DF8C3
:103540002C10481E7E280AD821749DF82D309DF835
:10355000302011A0FFF7C8F80020A074EDE79DF817
:103560003000102800D91020A074E6E71C5900088C
:103570005B44796E49445D20554944206D69736D03
:1035800061746368202872657370206C656E3D25D8
:1035900075290D0A000000005B44796E49445D20E6
:1035A000476F7420616C6C6F636174696F6E3A2051
:1035B0006E6F64655F69643D2575206C656E3D25A1
:1035C000752066697273743D25750D0A0000000050
:1035D00070B504460D4613212046FCF7DDFD102290
:1035E00029462046FCF7BFFD0021A17470BD0000F4
:1035F00070B58EB004460E46134600200B900C901A
:103600000D90A07C102800D91020102802D3002093
:103610000EB070BDC0F11002062A00D90622D2B247
:103620008DF82C30F0B100258DF82D508DF830201C
:1036300020440D90617C0CA0FFF756F806A90BA85A
:1036400001F02FFF18221134CDE9014280B206A902
:10365000CDE90310012000900F4A104B3046FFF7D0
:103660006EFDD5E70125DFE75B44796E49445D20B7
:10367000526571207469643D2575207072656669B4
:10368000785F6C656E3D2575207072656665723D6C
:1036900025750D0A00000000401DA12026812A0B7F
:1036A0002DE9FF4107460E461446402C00D9402420
:1036B00004B901240021029103910025012C06D0B8
:1036C000082C0BD8012518788DF8080019E0012581
:1036D000187800B101208DF8080012E0102C04D8F1
:1036E00002251888ADF808000BE0202C03D804252B
:1036F0001868029005E0402C03D8082503CBCDE9DB
:10370000020101F007F818B1294602A801F0A8FC4F
:10371000600708D002A800EBD4016242087802F0EA
:103720000702904008703B462246002102A80096FE
:1037300000F0D6FABDE8FF810021017070470078E3
:10374000704700002DE9FF5F94B00D4616461F46F6
:10375000286800F0D9FC8146B9F1020F18D02888FA
:10376000C0F306232868002814DA410012D4800030
:1037700010D4287B70B1B9F1020F0ED01498FFF766
:10378000DEFF984209D06FF00A0018B0BDE8F09F44
:103790000023E7E76FF00900F7E72868C0F304614A
:1037A000119100F07F0A00F09EFC1090109840EA02
:1037B000094040EA8A4040EA436B297BE81C11F843
:1037C000008000210E910F915FEAD81014D0CDF83F
:1037D00000A014984B460EA94468109AA04740B127
:1037E0005946149801F049FC044620000BD1C01E34
:1037F000CBE76FF00B00C8E75946149800F090FC37
:103800000446200010D0D4E9020150EA01021AD087
:1038100000220D92321A67EB0100D74B00219A1A51
:10382000814112D2012011E0CDF800A014984B463E
:103830000EA94468109AA04710B16FF00C00A4E7DD
:103840006FF00B00A1E70122E3E700200C90687BFA
:10385000A17E884201D1012000E000200B904FEAB8
:10386000D81B08F01F0113916069C0F3846000F059
:1038700031FA012801DD012000E000200A90D4E99E
:103880000201321A67EB0100BC4B00219A1A8141F8
:1038900001D2012000E0002009906069C0F384613A
:1038A000139800F017FA102801DA012000E0002038
:1038B000616801B10121DDE90C321A430BD10B9A89
:1038C0000A9B02EA0B020B431A4204D1099901EA4E
:1038D0000B01014201D0012000E0002078B11399D2
:1038E000606961F39E6020F0004060612146149899
:1038F00001F000FB687BA0765FEAD81005D0687BFA
:10390000A17E88420CD000203FE760694FF0006143
:1039100001EBF0704FEA700060616FF00C0034E76B
:103920005FEAD81027D05FEA486024D5C4E902676F
:1039300020216846FCF730FCCDE90067281D029085
:10394000287B401EC0B2ADF814001098ADF81600E8
:103950008DF8189013988DF8190011988DF81A00A9
:103960008DF81BA01498694682689047204601F0A4
:10397000CBF8002009E76069C8F34011B1EBD07FB4
:1039800002D06FF00D0000E71399C0F384629142FA
:1039900002D06FF00E00F8E614995FEAD81201F138
:1039A0000C01129137D05FEA486134D4297B032996
:1039B00002D86FF00F00E8E6C4E9026770490840DA
:1039C0006061287BAA1DC01EC3B221461298FFF772
:1039D00011FB002809DA2146149801F08BFA2046E1
:1039E00001F092F86FF00200CFE62879697940EA99
:1039F00001202083DDE90E234FF6FF7000F0CBF9A4
:103A0000A082287BA91DC01EC2B2A08A80B200F08D
:103A1000A1F9A0822DE008F0400050EAD8100BD0A8
:103A2000287B401E00F0FF0B4FF000086069C0F3D8
:103A30000940052830D334E0287B2A1D401EC3B23C
:103A400021461298FFF7D6FA002809DA2146149881
:103A500001F050FA204601F057F86FF0020094E6AA
:103A6000287B291D401EC2B2A08A80B200F072F9E4
:103A7000A0826069012101EBE07161F3DF70606198
:103A8000002082E605EB080122180979D176401C56
:103A900008F1010808F0FF08052823D2D845F1D322
:103AA00020E061681298FFF7CCFB0146080019D0AE
:103AB000052001E011461C300A68002AFAD162692B
:103AC000C2F30942101A09E005EB08020B1812793B
:103AD0001A71401C08F1010808F0FF081C2801D2E7
:103AE000D845F1D3CDE9006704F11B00029061686D
:103AF0001298FFF7A6FB0390D84501D3002002E0FF
:103B000005EB0800001D04906069C0F309405844AB
:103B1000ADF814001098ADF816008DF818901398B1
:103B20008DF8190011988DF81A008DF81BA000204F
:103B300060602A7BA08A521E80B2291D00F00AF91B
:103B4000A082A08A218B80B2884203D11498694652
:103B5000826890476946149800F044F8204600F0C7
:103B6000D3FFA08A218B80B2884201D100200CE6CD
:103B70006FF0100009E6000080841E0040420F0034
:103B8000FFFF00FC2DE9F0470446DDE908890D46FA
:103B900016461F462C212046FCF7FEFA0020207016
:103BA000A760C4F8048020626062C4F8289070099D
:103BB000B0F5803F01D34FF6FF7082B2294604F181
:103BC0000C00BDE8F04700F092BD406A002801D02B
:103BD000001D704700207047416A0A6842620C303D
:103BE00000F0BABA70B50C4600F10C0604E00D689E
:103BF000304600F0B1FAE560E1680029F7D1002015
:103C0000A0602061A08270BD2DE9F0418AB010ADA6
:103C1000DDE914C8E0CD139C012C13D000248DF8ED
:103C20000040CDE90223ADF8105005968DF81870CC
:103C3000CDF81CC0ADF820806A4600F005F80AB047
:103C4000BDE8F0810124EAE770B5064614466FF03E
:103C50000102E069002803D1208C08B1104670BD34
:103C6000207E1F2801D9104670BD3046FFF767FD42
:103C7000F8B13046FFF763FD227E238A120642EA3E
:103C80000342237842EAC33242EA0121084340F06A
:103C900080052046FFF741FA024623462946304672
:103CA00000F079F90546002D09DD2078012803D0C0
:103CB00005E06FF0030070BD606900F00FFD28465D
:103CC00070BD08467047084670474A1E7E2A00D8D5
:103CD00001707047401A002801DA203000B27047A6
:103CE0002DE9F041069C00EBD10603EBD40701F06F
:103CF000070004F0070300EB020C27E000F00704C4
:103D000003F007018C4201D9254600E00D46ACEBDB
:103D10000002C5F10805AA4200D32A464FF47F45A8
:103D2000D540EDB2CD4006EBD00898F8008008FAF7
:103D300004F828FA01F807EBD30108EA05080C7823
:103D4000AC4344EA08040C70104413448445D5D1B4
:103D5000BDE8F08170B50C46154603E014F8011B70
:103D600000F004F86D1E691CF8D170BD10B580EA32
:103D70000120002141F221034FF6FF72040403D514
:103D800002EA4000584001E002EA4000491CC9B282
:103D90000829F3D310BD2DE9F041074615461E460C
:103DA0000024224628463146FCF7CDF9C1B23846F8
:103DB000FFF7DCFF07460834A4B2402CF1D33846A5
:103DC000BDE8F08110B5FFF704F910B100210160E2
:103DD00010BD002010BD30B589B005460C4620212D
:103DE0006846FCF7D9F904942846FFF7F2F8044630
:103DF0003CB1202269462046FCF7B5F9204609B0BF
:103E000030BD0020FBE710B5FFF7E3F804462CB106
:103E100014212046FCF7C0F9204610BD002010BD3B
:103E2000082802D90C2801D809207047102801D889
:103E30000A207047142801D80B207047182801D891
:103E40000C207047202801D80D207047302801D859
:103E50000E2070470F2070472DE9FF4F83B0834637
:103E6000BBF81400B1EBC00F03D3002007B0BDE8CE
:103E7000F08F059A0A44B2EBC00F03D9C1EBC00022
:103E8000C0B20590DBF80C00002210B9DBF810007E
:103E9000F0B30C464FF00008059D282C12D2C4F157
:103EA0002800A84200D9284600F0FF080092DBF85D
:103EB000080042462146069BFFF712FF4444A5EB4B
:103EC0000800C5B2BBF814006FF0270101EBC00A6F
:103ED0002826DBF80C9028E0BAF1E00F01D9E020A9
:103EE00000E050468719A74219D9381BA84200D9CB
:103EF0002846C0B20290A11BCDF8008009F1040051
:103F0000069B029AFFF7ECFE02980444029800E038
:103F10001CE0404400F0FF080298281AC5B2B81B04
:103F2000AAEB000A3E46D9F80090B9F1000F01D083
:103F3000002DD1D1DBF8100078B175B1A11BCDF8FF
:103F400000802A46069BFFF7CBFE06E00092DBF8D6
:103F50000800DDE90523FFF7C3FE059886E708287A
:103F60000CD909280BD00A280BD00B280BD00C2811
:103F70000BD00D280BD00E280BD0402070470C2002
:103F80007047102070471420704718207047202079
:103F90007047302070472DE9FF4F83B092461C4692
:103FA0006FF001006269002A39D0228C12B1E369F6
:103FB000002B34D04FF0000808200190039841F006
:103FC000004B0C300290082A2CD20298FFF71BFFFE
:103FD0000546280021D00830228C0646E169FCF70E
:103FE000C2F8208C401C80B2FFF71AFFFFF7B7FF22
:103FF000401E2084401C28746069218C007800F0E9
:104000001F0040F0C0008855C5F804B02946039849
:1040100000F02CFF4FF0010863E06FF0020007B0E2
:10402000BDE8F08F002600274FF08009921C90B267
:104030000721801D90FBF1F080B203998A8AC98A1A
:10404000511A89B2814249D2F01EE8E70298FFF77F
:10405000DAFE0546280002D000201EB108E06FF00D
:104060000200DCE785F808A04FEA1A2068720220F7
:104070000199491E07E0E2692B18925D1A72401CF3
:1040800080B2761CB6B2884202DA228CB242F2D8F2
:10409000218CB14201D14FF04009401C80B2FFF7A2
:1040A000BFFEFFF75CFF401E80B2626949EA47111C
:1040B000127802F01F0211432A181172C5F804B0D9
:1040C000401C28742946039800F0D0FE08F101082E
:1040D0000FFA88F887F001074FF00009208CB042F2
:1040E000B4D140469BE700B50246104600F00CF8FC
:1040F000022802D0C2F3074000BDC2F30F205106D0
:10410000FAD100F0030000BDC0F3C011002903D0B4
:10411000000403D50120704702207047002070473B
:1041200070B505460C46286A0C3506E00169A142C7
:1041300005D001682846FFF7C4FD0028F6D170BD00
:1041400013B54FF6FF73012269460248FDF754FF8D
:1041500000981CBDCC15002042680A60416041896E
:10416000491E41817047000010B5042802D34FF06A
:10417000FF3010BD401C0A4900EB400001EBC000BD
:10418000406810F1FF4F02D24FF07C5101E04FF038
:104190003F41FCF73DF8BDE81040FCF731B90000A5
:1041A000200000202DE9F04198B080460D4627A060
:1041B000E97EFEF799FA482106A8FBF7EDFF0DF11D
:1041C0003A0000F075FE01268DF8386000248DF865
:1041D00039408DF828608DF829408DF82A400B94DD
:1041E000FDF746F94FF47A71B0FBF1F006908DF8C7
:1041F0001C408DF81D4021A73846FBF7D8FF8DF8ED
:1042000054001697234906A801F009F80746214AE9
:10421000A97ECDE90342B8B2059005F11900CDE9B8
:1042200000600291E97E1C4A1C4B4046FFF7ECFC03
:104230000146002905DC1AA0FEF756FA18B0BDE8C1
:10424000F08139461FA0FEF74FFAF7E75B47657428
:104250004E6F6465496E666F5D205265717565735A
:10426000742052656365697665642066726F6D209F
:104270004E6F64652025640D0A0000006F72672E82
:104280006172647570696C6F742E63616E746F70A7
:10429000776D0000B00000209E6AC421818A46EE3E
:1042A0005B4765744E6F6465496E666F5D2052654D
:1042B000706C79204661696C65643A2025640D0A4A
:1042C000000000005B4765744E6F6465496E666F61
:1042D0005D205265706C7920456E717565756564F9
:1042E0002C206C656E3D256C750D0A002DE9F0479C
:1042F00088B007460E469E48079020212038FBF7DD
:104300004BFF5C219A48FBF747FF994AB18A07ABFC
:10431000203A304601F00CF9002805DA95A0FEF7A6
:10432000E3F908B0BDE8F087DFF84482A8F120087F
:1043300098F8181031B10A4694A0D8F81C30FEF74E
:10434000D3F904E0B8F800109AA0FEF7CDF9D8F838
:104350001000FCF7A3F8B28A98F810308DE80B0033
:10436000039298F80810D8E904239948FEF7BCF99D
:10437000002498F81800DFF85CA260B1002505EB76
:10438000450998F818205AF83910D8F81C00FBF79E
:1043900030FF48B115E0B8F80000052814D200EB52
:1043A00040000AEBC0040FE05AF83900FBF7FFFEAB
:1043B00098F81810884204D105EB45000AEBC004B8
:1043C00002E06D1C052DDADB002C62D098F8081095
:1043D00000295ED080A0FEF787F998F80800012830
:1043E00004D0022808D003280AD011E0D8E904013B
:1043F000FBF7F0FF60600BE0D8F81000606007E0AA
:1044000098F8100010B14FF07E5000E0002060607E
:10441000D4E90101FCF756F801D2A0686060E168B8
:104420006068FCF759F801D2E0686060207D78B1DF
:10443000606810F1FF4F02D24FF07C5101E04FF065
:104440003F41FBF7E5FEFBF7DBFFFBF7B5FF6060E5
:104450006068FCF723F8256802460B46294664A0ED
:10446000FEF742F968A12068FBF7A8FE68B960680A
:10447000FBF7DFFFC1B211B1481E7E2806D85548B0
:104480002038417063A0FEF72FF902E070A0FEF71C
:104490002BF9374848216030FBF77EFE344D4FF052
:1044A00000086035BCB32068FBF781FE85F840004A
:1044B00020686864207DF0B14FF0010985F8009014
:1044C0006068FBF7CAFFC5E9020185F81090206912
:1044D000FBF7C3FFC5E9060185F83090A068FBF73C
:1044E000BCFFC5E90E0185F82090E068FBF7B5FF39
:1044F000C5E90A0115E0022028706168A9602874E6
:104500002169A96185F83000A168A96385F82000B8
:10451000E068A86205E0FFE785F8008055A0FEF797
:10452000E3F81349A831A1F1480001F060F804460E
:104530000F4AB17EA832CDE90382A0B20291059064
:1045400006F119000B21CDE90010F17E524A534BC0
:104550003846FFF759FB0146002903DC50A0FEF75F
:10456000C3F8DEE6214655A0FEF7BEF8D9E6000006
:10457000500200205B506172616D5D204465636F85
:104580006465204661696C65640D0A005B50617268
:10459000616D5D2052657175657374204E616D6546
:1045A000286C656E3D2564293A20252E2A730D0A54
:1045B000000000005B506172616D5D205265717595
:1045C00065737420496E6465783A2025640D0A008D
:1045D00080590008200000205B506172616D5D20F1
:1045E000756E696F6E5F7461673D25640D0A00002A
:1045F0005B506172616D5D20536574202573203DB1
:104600002025660D0A00000063616E5F6E6F6465B1
:104610005F6964005B506172616D5D2050656E641E
:10462000696E67204E6F6465204944203D202564F3
:10463000202877696C6C206170706C7920616674D9
:1046400065722068616E646C6572290D0A00000055
:104650005B506172616D5D204E6F6465204944203E
:104660006F7574206F662072616E67653A202564ED
:104670000D0A00005B506172616D5D204E6F742009
:10468000666F756E642C207265706C7920656D7034
:1046900074790D0A00000000D5A4D139F922B6A71B
:1046A0005B506172616D5D205265706C792046616E
:1046B000696C65643A2025640D0A00005B506172E4
:1046C000616D5D205265706C79206C656E3D256C66
:1046D00075207175657565640D0A00000178491CC7
:1046E000C9B20170202901D300210170704730B593
:1046F00000230161041D04E001EB431525602C46F5
:104700005B1C9342F8D300212160028141818181A9
:10471000016030BD08B5012000909DF8010001281E
:1047200000D0002008BD30B5044621F0604224F0DE
:104730006043CD0FE00F85420CD005B1920C00B163
:104740009B0C9A4202D002D24FF0010030BD4FF0D4
:10475000000030BDC1F38071C4F380709A4201D172
:104760008142F6D19A4201D2012030BD002030BDF5
:104770008CB00024FCF78AFEFDF78BFDFDF7B6FC3C
:10478000FDF792FCFDF7EAFCFDF74EFD784800F0DE
:104790008FFB78A0FDF7A8FF0025754E77A0715D0F
:1047A000FDF7A2FF6D1C102DF8DB76A0FDF79CFF36
:1047B00000217548FDF75EFB04217348FDF75AFBA5
:1047C00008217148FDF756FB0C216F48FDF752FB9D
:1047D00001F054F800276D48CDE900076D496C4B96
:1047E0004FF48052A1F12C00FFF7CCF96049A1F100
:1047F0001300FEF7EDFEDFF8A0814FF07C51D8F8F2
:104800000400FBF705FDFBF714FEC1B2002958D0E8
:1048100060482C38FFF759FA07970897012009904C
:10482000029703970497059706970A900E200B901E
:1048300002A95A48FCF798F95848FCF7CCFC022129
:104840005648FCF70EF9DFF82891534EA9F11309E9
:10485000203E4FF47A7A00F0C1F996F901007F28E2
:1048600013D8C5B2002D2FD0B7704A4829462C382E
:10487000FFF72BFA2846FBF7A8FDC8F80400FF2035
:104880007070294646A0FDF72FFFB078002849D068
:1048900037481338FEF70BFE0546C5B17F2D16D8F5
:1048A0003C4829462C38FFF710FAB7702846FBF72A
:1048B0008CFDC8F80400294641A0FDF715FFF770EC
:1048C00030E000F0AFFBA7E700F0ACFBD2E7F078F8
:1048D000A0B1FCF7CDFD316988420FD399F81200E1
:1048E00010280BD22B49224800222C391338FEF70E
:1048F0007FFEFCF7BDFDF060F77013E0FCF7B8FD3C
:10490000F168401A50450DD399F81200102809D2C9
:104910002049174800222C391338FEF769FEFCF7AE
:10492000A7FDF060FCF7A4FD7169401A504504D35F
:1049300000F05EFAFCF79CFD7061FCF799FD4FF406
:104940007A7100FB01F2134800232C38FEF77EFC3D
:104950000120FCF773FC544506D34FF40051214865
:10496000FCF776FD002476E7641CA4B273E7000030
:104970004B1500205549443A20000000253032589C
:10498000200000000D0A000084150020314F0008AF
:10499000E949000838050020200000205C150020AF
:1049A0005B506172616D5D204170706C696564205F
:1049B0004E6F6465204944203D2025640D0A0000A7
:1049C0005B44796E49445D20416C6C6F6361746532
:1049D00064204E6F6465204944203D2025640D0A03
:1049E0000000000000100140FEB506460C46E08ABB
:1049F000012802D1217E022902D0012819D01BE012
:104A000021463048FEF756FD2F4DA87870B12D484D
:104A1000FEF74DFD50B92B48807C102806D20120AE
:104A2000E870FCF725FD0A30286144E00020E870BA
:104A300041E0217E01291BD00B281ED0A0F540713A
:104A4000F23904D0A0F5806106391FD033E01F4849
:104A500002901D4AA18A02AB1832204600F029FBC1
:104A6000014600290EDB1848183000F071F822E0EA
:104A700021463046FFF796FB1DE021463046FFF702
:104A800035FC18E012A0FDF72FFE14E00F48783037
:104A900002900090A18A6B4601AA204600F07BFBA1
:104AA0000146002904DBE17E01A800F00DF902E0D7
:104AB0000CA0FDF719FE03B021463046BDE8F040DA
:104AC000FFF790B838150020000000206C0400208B
:104AD0004465636F6465206661696C3A2025640DE6
:104AE0000A00000045534320526177436F6D6D61AA
:104AF0006E64206465636F6465206661696C3A204A
:104B000025640D0A0000000041694FF0006202EBCD
:104B1000F1714FEA7101034A114021F000414161F6
:104B200070470000FFFF00FC70B5054605F10C0062
:104B30000646FFF750F904463CB13046296AFFF7B4
:104B4000C2F820602C62204670BD002070BD0000BD
:104B50002DE9F047804600264FF47A794FF4FA6A3F
:104B60001C4F30E0D8F8040000EBC6051A4968680D
:104B7000FBF7A6FBFBF75DFC00F2DC5084B24C4572
:104B800000D24C46544500D954462878FFF7ECFA39
:104B90000546204600F05CF9042D12D235B1012DF6
:104BA00007D0022D08D0032D0BD108E039684863E7
:104BB00007E03968886304E03968C86301E0396850
:104BC0000864761CF6B298F80000B042CAD8BDE876
:104BD000F0870000841500200000FA4330B587B04C
:104BE0002348FEF7F2FF04463EE01822214901A8BF
:104BF000FBF7B9FA206820F060400290207B059016
:104C0000002503E00120FCF719FB6D1C1A48FCF796
:104C1000B3F808B9052DF5D31748FCF7ADF800280F
:104C200015D06B46221D01A91348FBF72CFF80B15C
:104C30001148FCF716F804460F48FCF79DF80246A9
:104C40000D480068836921460CA0FDF74DFD07B0B3
:104C500030BD0748FEF7C0FF0548FEF7B6FF044623
:104C600014B912A0FDF740FD002CBED1EFE7000003
:104C70000C050020D85800085C15002043414E2048
:104C80005478204661696C2E204572723A20307843
:104C900025582C20467265654D423A2025642C200B
:104CA0004553523A20307825580D0A005B44796EFE
:104CB00049445D20545820717565756520656D7097
:104CC00074790D0A000000002DE9FF5F804633A0D3
:104CD00098F80020FDF708FD0025DFF8D89054E093
:104CE000D8F8040030F915A05046FBF765FB6FF0CB
:104CF0000C01FBF755FB83462F498B4500D98B46AA
:104D00004FF07E50834500DD83462C495846FBF723
:104D1000D7FAFBF78EFB00F2DC5084B24FF47A70C6
:104D2000844200D204464FF4FA60844200D904461B
:104D30002846FFF719FA0746204600F089F806468C
:104D40005846FBF7ABFB8DE89300524629461CA062
:104D5000FDF7CAFC042F16D237B1012F08D0022F5D
:104D60000AD0032F0FD10BE0D9F8000046630AE008
:104D7000D9F80000866306E0D9F80000C66302E0B7
:104D8000D9F8000006646D1CEDB298F80000A84246
:104D900001D9042DA4D3BDE8FF9F00005B45534318
:104DA0005D207372633D2575206C656E3D25640D35
:104DB0000A00000084150020000080BF0000FA43B4
:104DC00020204553435B25645D2072633D256420AC
:104DD0006E6F726D3D252E33662070756C73653D68
:104DE00025752075732063683D256C640D0A0000ED
:104DF00000B58BB0FCF73CFB4FF47A71B0FBF1F0DF
:104E0000089000208DF824008DF825008DF82600EC
:104E1000ADF8280006A908A800F07BFA1822084B74
:104E2000CDE9013280B206A9CDE9031040F2551058
:104E30000090044A044B0548FEF781F90BB000BD11
:104E400007000020F1C6A7C1D068080F0C0500209C
:104E500010B5FBF7BAFA04498968FBF731FABDE8E7
:104E60001040FBF7E6BA0000000000202DE9F041F9
:104E700007460D467C6A002C01D026460FE07D6275
:104E8000BDE8F081786AA04202D12C607D62F7E72C
:104E900035602C60F4E7216841B126460C4669680C
:104EA0006068FFF740FC0028F5D0EBE72560E7E7F6
:104EB000FEB505460E4800216C4650F8212004F846
:104EC000212004EB8103160A5E70160C9E70120EF0
:104ED000DA70491CC9B20329EFD310212846FBF729
:104EE0005BF900982860019868600298A860FEBD90
:104EF000E8F7FF1F70B50C4600F10C060CE03046D9
:104F0000FEF79FF901460D683046FFF725F929465F
:104F10003046FEF798F9606061680029EFD10349D7
:104F20006069084060610020014670BDFFFF00FC21
:104F300070B50C4615461E462848FEF700FC80B1A9
:104F4000A5F54070F23806D0A5F5806006381FD070
:104F5000012D23D024E023482149C4E90010012079
:104F600070BD012D01D1022E02D0012D06D007E027
:104F70001E481D49C4E90010012070BD012E01D05A
:104F8000002070BD1B481A49C4E90010012070BD03
:104F90001A481949C4E90010012070BD012E02D041
:104FA000012D09D00AE016A0FDF79EFB114810491B
:104FB000C4E90010012070BD022E03D00B2D07D0D4
:104FC000002070BD09480849C4E90010012070BDE7
:104FD00013481249C4E90010012070BD0C050020DF
:104FE000F33AEC386248A7D8401DA12026812A0B4D
:104FF0009E6AC421818A46EE1D95ECD7875C7F218D
:10500000416363657074204765744E6F6465496ED3
:10501000666F205265710D0A00000000D5A4D139D9
:10502000F922B6A710B50B48FEF786FB0A49A1F195
:105030001300FEF7CDFA094C0120A070FCF718FA16
:10504000E06005480022BDE8104002491338FEF731
:10505000CFBA00000C0500204B15002000000020F6
:1050600010B50022491E05E0835C445C845443541F
:10507000521C491E8A42F7D310BD70B504460D4636
:10508000206A00280BD029462046FFF749F800285F
:105090000CD129462046BDE87040FFF745BD2946A2
:1050A00004F10C00FEF797FE08B1206270BD0020ED
:1050B00070BD38B5002400251555641C082CFBD3A1
:1050C000009500F001F838BD2DE9F8438046089CB2
:1050D00016461F460025002907D0C4EBC100C117A2
:1050E00000EBD160400930700FE00023042221461C
:1050F00040460096FEF70AF9042805D0002801DB97
:105100006FF00800BDE8F883241D6FB13868706047
:105110000AE0009470683B4600EBC502002140465F
:1051200000F007F804446D1C3078A842F1D82046FE
:10513000E8E77CB50646069D144600200190002352
:105140000822294630460094FEF7E0F8082815D1D9
:105150000835601C00900023082229463046FEF7DF
:10516000D5F808280AD1083501A80090002310229C
:1051700029463046FEF7CAF8102804D0002801DB83
:105180006FF008007CBDBDF80400FEF7A3F8606076
:1051900005F110007CBD38B5002400251555641CB0
:1051A000082CFBD3009500F001F838BD2DE9F84339
:1051B0008046089D17461C460026002906D0C5EBF0
:1051C000C1000E2190FBF1F0387009E000230522A8
:1051D000294640460097FEF799F805280FD16D1D26
:1051E000C4B12068786015E094B120680090012374
:1051F0000E2229464046FEF789F80E2805D00028E1
:1052000001DB6FF00800BDE8F8832068801C206097
:105210000E35761C3878B042E6D82846F3E710B54C
:105220000022012300F003F8C01DC00810BD2DE9C5
:10523000F04105460F46984600240023394628468B
:1052400000F06FF802460023394605F1100000F027
:10525000A1F802460023394605F1200000F01DF8B0
:105260000646B8F1000F11D105F13C030722314683
:105270003846FEF715FAF61D08E0286C08220319D7
:1052800031463846FEF70CFA0836641C95F83C00A7
:10529000A042F2D83046BDE8F0812DE9F041064643
:1052A0000F461446984600253346082221463846C4
:1052B000FEF7F6F90834731C082221463846FEF73B
:1052C000EFF9083473199B1C082221463846FEF773
:1052D000E7F908346D1C102DF4D3B8F1000F07D195
:1052E00006F11403082221463846FEF7D9F908349E
:1052F000002508E0B0690822431921463846FEF728
:10530000CFF908346D1C307DA842F3D82046BDE8A3
:10531000F08110B50022012300F003F8C01DC00881
:1053200010BD70B504460D46164623462022314670
:105330002846FEF7B5F920362079032800D303204C
:105340002071231D022231462846FEF7A9F9B61C1A
:105350006079072800D307206071631D032231465E
:105360002846FEF79DF9F61CA079072800D30720F0
:10537000A071A31D032231462846FEF791F9F61CC1
:1053800004F10803102231462846FEF789F906F198
:10539000100070BD70B504460E461546234608221F
:1053A00029463046FEF77CF90835631C0822294659
:1053B0003046FEF775F90835A31C08222946304609
:1053C000FEF76EF90835231D202229463046FEF7E8
:1053D00067F9203504F10803402229463046FEF7DC
:1053E0005FF94035284670BD38B5002400251555B5
:1053F000641C0C2CFBD3009500F001F838BD2DE99E
:10540000F8438046089D894616461C46002700231F
:105410000722294640460096FDF778FF072830D13D
:10542000ED1D701C00900023012229464046FDF727
:105430006DFF012825D16D1CB9F1000F07D0C5EB18
:10544000C900C11700EB5170C00830710AE0301D6F
:1054500000900023052229464046FDF757FF052806
:105460000FD16D1DC4B12068B06015E094B1206803
:1054700000900023082229464046FDF747FF0828F0
:1054800005D0002801DB6FF00800BDE8F883206834
:10549000401C206008357F1C3079B842E6D8284689
:1054A000F3E710B50022012300F003F8C01DC00887
:1054B00010BD2DE9F04104460F46164698460025DA
:1054C00020787F2800D37F20207023460722314692
:1054D0003846FEF7E5F8F61D607860B1012060708F
:1054E000631C012231463846FEF7DAF8761CB8F123
:1054F000000F02D012E00020F1E7231D0522314603
:105500003846FEF7CDF8761D08E0A068082243195A
:1055100031463846FEF7C4F808366D1C2079A8429B
:10552000F3D83046BDE8F0810098704710467047C8
:1055300038B5002400251555641C202CFBD300959C
:1055400000F001F838BD2DE9F8438046089C8946F3
:1055500016461D46002700230D2221464046009690
:10556000FDF7D4FE0D2832D10D342B4606F108028A
:1055700049464046009400F0ADF80446200000D5AE
:1055800025E0B9F1000F07D0C4EBC900C11700EB4B
:105590005170C00830760BE006F11800009000232F
:1055A000072221464046FDF7B1FE07280FD1E41D32
:1055B000C5B12868F06115E095B128680090002316
:1055C000082221464046FDF7A1FE082805D0002804
:1055D00001DB6FF00800BDE8F8832868401C2860F4
:1055E00008347F1C307EB842E6D82046F3E710B579
:1055F0000022012300F003F8C01DC00810BD2DE9F2
:10560000F04105460F4698460024521D00233946B6
:10561000284600F0DEF8401D02460023394605F119
:10562000100000F0D6F8821D0023394605F1200055
:1056300000F024F8821D0023394605F1300000F007
:105640001DF80646B8F1000F11D105F140030722FD
:1056500031463846FEF724F8F61D08E0686C08224B
:10566000031931463846FEF71BF80836641C95F8D6
:105670004000A042F2D83046BDE8F08170B5054642
:105680000E4614462B46022221463046FEF708F805
:10569000A41C15F8080B20B101280AD0022810D04C
:1056A00016E00023224631462846FFF73FFF044616
:1056B0000EE02B46402221463046FDF7F1FF4034F4
:1056C00006E02B46202221463046FDF7E9FF203434
:1056D000204670BD2DE9F8438146089C8846164651
:1056E0001D46002700230322214648460096FDF769
:1056F0000DFE03285DD1E41C307806F1080240B1AC
:10570000012811D002281AD0032823D004282CD035
:105710005DE02B46414648460094FFF705FF0446EE
:10572000002C54DA204644E0009201234022214616
:105730004846FDF7EBFD40283BD1403447E000925E
:105740000023202221464846FDF7E0FD202830D1E5
:1057500020343CE000920023082221464846FDF711
:10576000D5FD082825D1083431E0B8F1000F07D065
:10577000C4EBC800C11700EB5170C008307209E0DB
:1057800000920023082221464846FDF7BFFD082865
:105790000FD10834C5B12868F06015E095B12868CC
:1057A00000900023082221464846FDF7AFFD082857
:1057B00005D0002801DB6FF00800BDE8F8832868F9
:1057C000401C286008347F1C307AB842E6D8204656
:1057D000F3E72DE9F04106460F46144698460025AA
:1057E0003346032221463846FDF75AFFE41C307841
:1057F00006F1080C40B101280ED0022814D003286D
:105800001AD0042820D036E00023224639466046CC
:10581000FFF78CFE04462EE06346402221463846C0
:10582000FDF73EFF403426E06346202221463846FD
:10583000FDF736FF20341EE0634608222146384635
:10584000FDF72EFF083416E0B8F1000F10D16346C3
:10585000082221463846FDF723FF083408E0F068A7
:105860000822431921463846FDF71AFF08346D1CFB
:10587000307AA842F3D82046BDE8F08170B5FBF736
:1058800047FF04460B48406810F4E06F00D0640006
:1058900009484068401CFAF798FD05462046FAF78B
:1058A00094FD2946FAF73EFD0449FAF73BFD044909
:1058B000886070BD001002408415002000247449E7
:1058C000000000200000807F0000800F00008007A3
:1058D000000080770000804700000000000000000A
:1058E00004000000000000000000000000000000B4
:1058F000010202030405060708090A0B0C0D0E0F2E
:105900001010000000000000000001020304060760
:105910000809000000000102030400005B44796EE6
:1059200049445D204465636F64656420616C6C6FFD
:10593000633A207372633D2575206E6F64655F69FD
:10594000643D2575206C656E3D2575206669727312
:10595000743D257520756964303D253032582075B9
:105960006964313D2530325820756964323D2530F7
:10597000325820756964333D253032580D0A0000D5
:105980005B506172616D5D20756E696F6E5F7461F1
:10599000673D256420696E743D256C6C64207265DA
:1059A000616C3D252E336620626F6F6C3D2564204F
:1059B0007061796C6F61645F6C656E3D256C750D0F
:1059C0000A00000063616E5F6E6F64655F6964006A
:1059D0006368305F6D6170006368315F6D61700096
:1059E0006368325F6D6170006368335F6D61700082
:1059F000105A000800000020AC0000002827000812
:105A0000BC5A0008AC0000206C25000038270008B4
:105A100000FF0000000000000000803F00000000C8
:105A20000000000000000000000000000000000076
:105A3000C459000800007042000000000000FE424F
:105A40000000704201000000D05900080000000072
:105A5000000080BF00004040000000000100000086
:105A6000D85900080000803F000080BF000040407F
:105A70000000803F01000000E059000800000040E5
:105A8000000080BF00004040000000400100000016
:105A9000E859000800004040000080BF000040407E
:105AA0000000404001000000010000001000000064
:0C5AB0000000000000127A00000000005E
:04000005080000ED02
:00000001FF
